{
  "_format": "hh-sol-artifact-1",
  "contractName": "SimplePersonaToken",
  "sourceName": "contracts/SimplePersonaToken.sol",
  "abi": [
    {
      "inputs": [],
      "stateMutability": "nonpayable",
      "type": "constructor"
    },
    {
      "inputs": [],
      "name": "AccessControlBadConfirmation",
      "type": "error"
    },
    {
      "inputs": [
        {
          "internalType": "address",
          "name": "account",
          "type": "address"
        },
        {
          "internalType": "bytes32",
          "name": "neededRole",
          "type": "bytes32"
        }
      ],
      "name": "AccessControlUnauthorizedAccount",
      "type": "error"
    },
    {
      "inputs": [],
      "name": "ECDSAInvalidSignature",
      "type": "error"
    },
    {
      "inputs": [
        {
          "internalType": "uint256",
          "name": "length",
          "type": "uint256"
        }
      ],
      "name": "ECDSAInvalidSignatureLength",
      "type": "error"
    },
    {
      "inputs": [
        {
          "internalType": "bytes32",
          "name": "s",
          "type": "bytes32"
        }
      ],
      "name": "ECDSAInvalidSignatureS",
      "type": "error"
    },
    {
      "inputs": [
        {
          "internalType": "address",
          "name": "spender",
          "type": "address"
        },
        {
          "internalType": "uint256",
          "name": "allowance",
          "type": "uint256"
        },
        {
          "internalType": "uint256",
          "name": "needed",
          "type": "uint256"
        }
      ],
      "name": "ERC20InsufficientAllowance",
      "type": "error"
    },
    {
      "inputs": [
        {
          "internalType": "address",
          "name": "sender",
          "type": "address"
        },
        {
          "internalType": "uint256",
          "name": "balance",
          "type": "uint256"
        },
        {
          "internalType": "uint256",
          "name": "needed",
          "type": "uint256"
        }
      ],
      "name": "ERC20InsufficientBalance",
      "type": "error"
    },
    {
      "inputs": [
        {
          "internalType": "address",
          "name": "approver",
          "type": "address"
        }
      ],
      "name": "ERC20InvalidApprover",
      "type": "error"
    },
    {
      "inputs": [
        {
          "internalType": "address",
          "name": "receiver",
          "type": "address"
        }
      ],
      "name": "ERC20InvalidReceiver",
      "type": "error"
    },
    {
      "inputs": [
        {
          "internalType": "address",
          "name": "sender",
          "type": "address"
        }
      ],
      "name": "ERC20InvalidSender",
      "type": "error"
    },
    {
      "inputs": [
        {
          "internalType": "address",
          "name": "spender",
          "type": "address"
        }
      ],
      "name": "ERC20InvalidSpender",
      "type": "error"
    },
    {
      "inputs": [
        {
          "internalType": "uint256",
          "name": "deadline",
          "type": "uint256"
        }
      ],
      "name": "ERC2612ExpiredSignature",
      "type": "error"
    },
    {
      "inputs": [
        {
          "internalType": "address",
          "name": "signer",
          "type": "address"
        },
        {
          "internalType": "address",
          "name": "owner",
          "type": "address"
        }
      ],
      "name": "ERC2612InvalidSigner",
      "type": "error"
    },
    {
      "inputs": [],
      "name": "EnforcedPause",
      "type": "error"
    },
    {
      "inputs": [],
      "name": "ExpectedPause",
      "type": "error"
    },
    {
      "inputs": [
        {
          "internalType": "address",
          "name": "account",
          "type": "address"
        },
        {
          "internalType": "uint256",
          "name": "currentNonce",
          "type": "uint256"
        }
      ],
      "name": "InvalidAccountNonce",
      "type": "error"
    },
    {
      "inputs": [],
      "name": "InvalidShortString",
      "type": "error"
    },
    {
      "inputs": [],
      "name": "ReentrancyGuardReentrantCall",
      "type": "error"
    },
    {
      "inputs": [
        {
          "internalType": "string",
          "name": "str",
          "type": "string"
        }
      ],
      "name": "StringTooLong",
      "type": "error"
    },
    {
      "anonymous": false,
      "inputs": [
        {
          "indexed": true,
          "internalType": "address",
          "name": "owner",
          "type": "address"
        },
        {
          "indexed": true,
          "internalType": "address",
          "name": "spender",
          "type": "address"
        },
        {
          "indexed": false,
          "internalType": "uint256",
          "name": "value",
          "type": "uint256"
        }
      ],
      "name": "Approval",
      "type": "event"
    },
    {
      "anonymous": false,
      "inputs": [],
      "name": "EIP712DomainChanged",
      "type": "event"
    },
    {
      "anonymous": false,
      "inputs": [
        {
          "indexed": false,
          "internalType": "address",
          "name": "account",
          "type": "address"
        }
      ],
      "name": "Paused",
      "type": "event"
    },
    {
      "anonymous": false,
      "inputs": [
        {
          "indexed": true,
          "internalType": "address",
          "name": "user",
          "type": "address"
        },
        {
          "indexed": false,
          "internalType": "uint256",
          "name": "amount",
          "type": "uint256"
        }
      ],
      "name": "RewardsClaimed",
      "type": "event"
    },
    {
      "anonymous": false,
      "inputs": [
        {
          "indexed": true,
          "internalType": "bytes32",
          "name": "role",
          "type": "bytes32"
        },
        {
          "indexed": true,
          "internalType": "bytes32",
          "name": "previousAdminRole",
          "type": "bytes32"
        },
        {
          "indexed": true,
          "internalType": "bytes32",
          "name": "newAdminRole",
          "type": "bytes32"
        }
      ],
      "name": "RoleAdminChanged",
      "type": "event"
    },
    {
      "anonymous": false,
      "inputs": [
        {
          "indexed": true,
          "internalType": "bytes32",
          "name": "role",
          "type": "bytes32"
        },
        {
          "indexed": true,
          "internalType": "address",
          "name": "account",
          "type": "address"
        },
        {
          "indexed": true,
          "internalType": "address",
          "name": "sender",
          "type": "address"
        }
      ],
      "name": "RoleGranted",
      "type": "event"
    },
    {
      "anonymous": false,
      "inputs": [
        {
          "indexed": true,
          "internalType": "bytes32",
          "name": "role",
          "type": "bytes32"
        },
        {
          "indexed": true,
          "internalType": "address",
          "name": "account",
          "type": "address"
        },
        {
          "indexed": true,
          "internalType": "address",
          "name": "sender",
          "type": "address"
        }
      ],
      "name": "RoleRevoked",
      "type": "event"
    },
    {
      "anonymous": false,
      "inputs": [
        {
          "indexed": true,
          "internalType": "address",
          "name": "user",
          "type": "address"
        },
        {
          "indexed": false,
          "internalType": "uint256",
          "name": "amount",
          "type": "uint256"
        },
        {
          "indexed": false,
          "internalType": "uint256",
          "name": "timestamp",
          "type": "uint256"
        }
      ],
      "name": "Staked",
      "type": "event"
    },
    {
      "anonymous": false,
      "inputs": [
        {
          "indexed": true,
          "internalType": "address",
          "name": "from",
          "type": "address"
        },
        {
          "indexed": true,
          "internalType": "address",
          "name": "to",
          "type": "address"
        },
        {
          "indexed": false,
          "internalType": "uint256",
          "name": "value",
          "type": "uint256"
        }
      ],
      "name": "Transfer",
      "type": "event"
    },
    {
      "anonymous": false,
      "inputs": [
        {
          "indexed": false,
          "internalType": "address",
          "name": "account",
          "type": "address"
        }
      ],
      "name": "Unpaused",
      "type": "event"
    },
    {
      "anonymous": false,
      "inputs": [
        {
          "indexed": true,
          "internalType": "address",
          "name": "user",
          "type": "address"
        },
        {
          "indexed": false,
          "internalType": "uint256",
          "name": "amount",
          "type": "uint256"
        },
        {
          "indexed": false,
          "internalType": "uint256",
          "name": "rewards",
          "type": "uint256"
        }
      ],
      "name": "Unstaked",
      "type": "event"
    },
    {
      "anonymous": false,
      "inputs": [
        {
          "indexed": true,
          "internalType": "address",
          "name": "user",
          "type": "address"
        },
        {
          "indexed": false,
          "internalType": "uint256",
          "name": "amount",
          "type": "uint256"
        },
        {
          "indexed": false,
          "internalType": "string",
          "name": "verificationType",
          "type": "string"
        }
      ],
      "name": "VerificationReward",
      "type": "event"
    },
    {
      "inputs": [],
      "name": "DEFAULT_ADMIN_ROLE",
      "outputs": [
        {
          "internalType": "bytes32",
          "name": "",
          "type": "bytes32"
        }
      ],
      "stateMutability": "view",
      "type": "function"
    },
    {
      "inputs": [],
      "name": "DOMAIN_SEPARATOR",
      "outputs": [
        {
          "internalType": "bytes32",
          "name": "",
          "type": "bytes32"
        }
      ],
      "stateMutability": "view",
      "type": "function"
    },
    {
      "inputs": [],
      "name": "INITIAL_SUPPLY",
      "outputs": [
        {
          "internalType": "uint256",
          "name": "",
          "type": "uint256"
        }
      ],
      "stateMutability": "view",
      "type": "function"
    },
    {
      "inputs": [],
      "name": "MAX_SUPPLY",
      "outputs": [
        {
          "internalType": "uint256",
          "name": "",
          "type": "uint256"
        }
      ],
      "stateMutability": "view",
      "type": "function"
    },
    {
      "inputs": [],
      "name": "PAUSER_ROLE",
      "outputs": [
        {
          "internalType": "bytes32",
          "name": "",
          "type": "bytes32"
        }
      ],
      "stateMutability": "view",
      "type": "function"
    },
    {
      "inputs": [],
      "name": "REWARD_MANAGER_ROLE",
      "outputs": [
        {
          "internalType": "bytes32",
          "name": "",
          "type": "bytes32"
        }
      ],
      "stateMutability": "view",
      "type": "function"
    },
    {
      "inputs": [],
      "name": "VERIFIER_ROLE",
      "outputs": [
        {
          "internalType": "bytes32",
          "name": "",
          "type": "bytes32"
        }
      ],
      "stateMutability": "view",
      "type": "function"
    },
    {
      "inputs": [
        {
          "internalType": "address",
          "name": "owner",
          "type": "address"
        },
        {
          "internalType": "address",
          "name": "spender",
          "type": "address"
        }
      ],
      "name": "allowance",
      "outputs": [
        {
          "internalType": "uint256",
          "name": "",
          "type": "uint256"
        }
      ],
      "stateMutability": "view",
      "type": "function"
    },
    {
      "inputs": [
        {
          "internalType": "address",
          "name": "spender",
          "type": "address"
        },
        {
          "internalType": "uint256",
          "name": "value",
          "type": "uint256"
        }
      ],
      "name": "approve",
      "outputs": [
        {
          "internalType": "bool",
          "name": "",
          "type": "bool"
        }
      ],
      "stateMutability": "nonpayable",
      "type": "function"
    },
    {
      "inputs": [
        {
          "internalType": "address",
          "name": "account",
          "type": "address"
        }
      ],
      "name": "balanceOf",
      "outputs": [
        {
          "internalType": "uint256",
          "name": "",
          "type": "uint256"
        }
      ],
      "stateMutability": "view",
      "type": "function"
    },
    {
      "inputs": [],
      "name": "baseStakingRate",
      "outputs": [
        {
          "internalType": "uint256",
          "name": "",
          "type": "uint256"
        }
      ],
      "stateMutability": "view",
      "type": "function"
    },
    {
      "inputs": [
        {
          "internalType": "address",
          "name": "_user",
          "type": "address"
        },
        {
          "internalType": "uint256",
          "name": "_stakeIndex",
          "type": "uint256"
        }
      ],
      "name": "calculateStakingRewards",
      "outputs": [
        {
          "internalType": "uint256",
          "name": "",
          "type": "uint256"
        }
      ],
      "stateMutability": "view",
      "type": "function"
    },
    {
      "inputs": [
        {
          "internalType": "address",
          "name": "_user",
          "type": "address"
        }
      ],
      "name": "canClaimMonthlyKYC",
      "outputs": [
        {
          "internalType": "bool",
          "name": "",
          "type": "bool"
        }
      ],
      "stateMutability": "view",
      "type": "function"
    },
    {
      "inputs": [],
      "name": "decimals",
      "outputs": [
        {
          "internalType": "uint8",
          "name": "",
          "type": "uint8"
        }
      ],
      "stateMutability": "view",
      "type": "function"
    },
    {
      "inputs": [
        {
          "internalType": "address",
          "name": "_user",
          "type": "address"
        }
      ],
      "name": "distributeMonthlyKYCReward",
      "outputs": [],
      "stateMutability": "nonpayable",
      "type": "function"
    },
    {
      "inputs": [
        {
          "internalType": "address",
          "name": "_user",
          "type": "address"
        },
        {
          "internalType": "string",
          "name": "_verificationType",
          "type": "string"
        }
      ],
      "name": "distributeVerificationReward",
      "outputs": [],
      "stateMutability": "nonpayable",
      "type": "function"
    },
    {
      "inputs": [],
      "name": "eip712Domain",
      "outputs": [
        {
          "internalType": "bytes1",
          "name": "fields",
          "type": "bytes1"
        },
        {
          "internalType": "string",
          "name": "name",
          "type": "string"
        },
        {
          "internalType": "string",
          "name": "version",
          "type": "string"
        },
        {
          "internalType": "uint256",
          "name": "chainId",
          "type": "uint256"
        },
        {
          "internalType": "address",
          "name": "verifyingContract",
          "type": "address"
        },
        {
          "internalType": "bytes32",
          "name": "salt",
          "type": "bytes32"
        },
        {
          "internalType": "uint256[]",
          "name": "extensions",
          "type": "uint256[]"
        }
      ],
      "stateMutability": "view",
      "type": "function"
    },
    {
      "inputs": [
        {
          "internalType": "bytes32",
          "name": "role",
          "type": "bytes32"
        }
      ],
      "name": "getRoleAdmin",
      "outputs": [
        {
          "internalType": "bytes32",
          "name": "",
          "type": "bytes32"
        }
      ],
      "stateMutability": "view",
      "type": "function"
    },
    {
      "inputs": [
        {
          "internalType": "address",
          "name": "_user",
          "type": "address"
        }
      ],
      "name": "getStakeCount",
      "outputs": [
        {
          "internalType": "uint256",
          "name": "",
          "type": "uint256"
        }
      ],
      "stateMutability": "view",
      "type": "function"
    },
    {
      "inputs": [
        {
          "internalType": "address",
          "name": "_user",
          "type": "address"
        }
      ],
      "name": "getTotalPendingRewards",
      "outputs": [
        {
          "internalType": "uint256",
          "name": "",
          "type": "uint256"
        }
      ],
      "stateMutability": "view",
      "type": "function"
    },
    {
      "inputs": [
        {
          "internalType": "address",
          "name": "_user",
          "type": "address"
        }
      ],
      "name": "getTotalStaked",
      "outputs": [
        {
          "internalType": "uint256",
          "name": "",
          "type": "uint256"
        }
      ],
      "stateMutability": "view",
      "type": "function"
    },
    {
      "inputs": [
        {
          "internalType": "bytes32",
          "name": "role",
          "type": "bytes32"
        },
        {
          "internalType": "address",
          "name": "account",
          "type": "address"
        }
      ],
      "name": "grantRole",
      "outputs": [],
      "stateMutability": "nonpayable",
      "type": "function"
    },
    {
      "inputs": [
        {
          "internalType": "bytes32",
          "name": "role",
          "type": "bytes32"
        },
        {
          "internalType": "address",
          "name": "account",
          "type": "address"
        }
      ],
      "name": "hasRole",
      "outputs": [
        {
          "internalType": "bool",
          "name": "",
          "type": "bool"
        }
      ],
      "stateMutability": "view",
      "type": "function"
    },
    {
      "inputs": [
        {
          "internalType": "address",
          "name": "",
          "type": "address"
        }
      ],
      "name": "lastKYCReward",
      "outputs": [
        {
          "internalType": "uint256",
          "name": "",
          "type": "uint256"
        }
      ],
      "stateMutability": "view",
      "type": "function"
    },
    {
      "inputs": [
        {
          "internalType": "address",
          "name": "",
          "type": "address"
        }
      ],
      "name": "lifetimeRewards",
      "outputs": [
        {
          "internalType": "uint256",
          "name": "",
          "type": "uint256"
        }
      ],
      "stateMutability": "view",
      "type": "function"
    },
    {
      "inputs": [
        {
          "internalType": "address",
          "name": "_to",
          "type": "address"
        },
        {
          "internalType": "uint256",
          "name": "_amount",
          "type": "uint256"
        }
      ],
      "name": "mintRewards",
      "outputs": [],
      "stateMutability": "nonpayable",
      "type": "function"
    },
    {
      "inputs": [],
      "name": "monthlyKYCReward",
      "outputs": [
        {
          "internalType": "uint256",
          "name": "",
          "type": "uint256"
        }
      ],
      "stateMutability": "view",
      "type": "function"
    },
    {
      "inputs": [],
      "name": "name",
      "outputs": [
        {
          "internalType": "string",
          "name": "",
          "type": "string"
        }
      ],
      "stateMutability": "view",
      "type": "function"
    },
    {
      "inputs": [
        {
          "internalType": "address",
          "name": "owner",
          "type": "address"
        }
      ],
      "name": "nonces",
      "outputs": [
        {
          "internalType": "uint256",
          "name": "",
          "type": "uint256"
        }
      ],
      "stateMutability": "view",
      "type": "function"
    },
    {
      "inputs": [],
      "name": "pause",
      "outputs": [],
      "stateMutability": "nonpayable",
      "type": "function"
    },
    {
      "inputs": [],
      "name": "paused",
      "outputs": [
        {
          "internalType": "bool",
          "name": "",
          "type": "bool"
        }
      ],
      "stateMutability": "view",
      "type": "function"
    },
    {
      "inputs": [
        {
          "internalType": "address",
          "name": "",
          "type": "address"
        }
      ],
      "name": "pendingRewards",
      "outputs": [
        {
          "internalType": "uint256",
          "name": "",
          "type": "uint256"
        }
      ],
      "stateMutability": "view",
      "type": "function"
    },
    {
      "inputs": [
        {
          "internalType": "address",
          "name": "owner",
          "type": "address"
        },
        {
          "internalType": "address",
          "name": "spender",
          "type": "address"
        },
        {
          "internalType": "uint256",
          "name": "value",
          "type": "uint256"
        },
        {
          "internalType": "uint256",
          "name": "deadline",
          "type": "uint256"
        },
        {
          "internalType": "uint8",
          "name": "v",
          "type": "uint8"
        },
        {
          "internalType": "bytes32",
          "name": "r",
          "type": "bytes32"
        },
        {
          "internalType": "bytes32",
          "name": "s",
          "type": "bytes32"
        }
      ],
      "name": "permit",
      "outputs": [],
      "stateMutability": "nonpayable",
      "type": "function"
    },
    {
      "inputs": [
        {
          "internalType": "bytes32",
          "name": "role",
          "type": "bytes32"
        },
        {
          "internalType": "address",
          "name": "callerConfirmation",
          "type": "address"
        }
      ],
      "name": "renounceRole",
      "outputs": [],
      "stateMutability": "nonpayable",
      "type": "function"
    },
    {
      "inputs": [
        {
          "internalType": "bytes32",
          "name": "role",
          "type": "bytes32"
        },
        {
          "internalType": "address",
          "name": "account",
          "type": "address"
        }
      ],
      "name": "revokeRole",
      "outputs": [],
      "stateMutability": "nonpayable",
      "type": "function"
    },
    {
      "inputs": [
        {
          "internalType": "uint256",
          "name": "_amount",
          "type": "uint256"
        }
      ],
      "name": "stake",
      "outputs": [],
      "stateMutability": "nonpayable",
      "type": "function"
    },
    {
      "inputs": [
        {
          "internalType": "bytes4",
          "name": "interfaceId",
          "type": "bytes4"
        }
      ],
      "name": "supportsInterface",
      "outputs": [
        {
          "internalType": "bool",
          "name": "",
          "type": "bool"
        }
      ],
      "stateMutability": "view",
      "type": "function"
    },
    {
      "inputs": [],
      "name": "symbol",
      "outputs": [
        {
          "internalType": "string",
          "name": "",
          "type": "string"
        }
      ],
      "stateMutability": "view",
      "type": "function"
    },
    {
      "inputs": [],
      "name": "totalRewardsDistributed",
      "outputs": [
        {
          "internalType": "uint256",
          "name": "",
          "type": "uint256"
        }
      ],
      "stateMutability": "view",
      "type": "function"
    },
    {
      "inputs": [
        {
          "internalType": "address",
          "name": "",
          "type": "address"
        }
      ],
      "name": "totalStaked",
      "outputs": [
        {
          "internalType": "uint256",
          "name": "",
          "type": "uint256"
        }
      ],
      "stateMutability": "view",
      "type": "function"
    },
    {
      "inputs": [],
      "name": "totalStakedAmount",
      "outputs": [
        {
          "internalType": "uint256",
          "name": "",
          "type": "uint256"
        }
      ],
      "stateMutability": "view",
      "type": "function"
    },
    {
      "inputs": [],
      "name": "totalSupply",
      "outputs": [
        {
          "internalType": "uint256",
          "name": "",
          "type": "uint256"
        }
      ],
      "stateMutability": "view",
      "type": "function"
    },
    {
      "inputs": [
        {
          "internalType": "address",
          "name": "to",
          "type": "address"
        },
        {
          "internalType": "uint256",
          "name": "value",
          "type": "uint256"
        }
      ],
      "name": "transfer",
      "outputs": [
        {
          "internalType": "bool",
          "name": "",
          "type": "bool"
        }
      ],
      "stateMutability": "nonpayable",
      "type": "function"
    },
    {
      "inputs": [
        {
          "internalType": "address",
          "name": "from",
          "type": "address"
        },
        {
          "internalType": "address",
          "name": "to",
          "type": "address"
        },
        {
          "internalType": "uint256",
          "name": "value",
          "type": "uint256"
        }
      ],
      "name": "transferFrom",
      "outputs": [
        {
          "internalType": "bool",
          "name": "",
          "type": "bool"
        }
      ],
      "stateMutability": "nonpayable",
      "type": "function"
    },
    {
      "inputs": [],
      "name": "unpause",
      "outputs": [],
      "stateMutability": "nonpayable",
      "type": "function"
    },
    {
      "inputs": [
        {
          "internalType": "uint256",
          "name": "_stakeIndex",
          "type": "uint256"
        }
      ],
      "name": "unstake",
      "outputs": [],
      "stateMutability": "nonpayable",
      "type": "function"
    },
    {
      "inputs": [
        {
          "internalType": "uint256",
          "name": "_baseStakingRate",
          "type": "uint256"
        },
        {
          "internalType": "uint256",
          "name": "_verificationReward",
          "type": "uint256"
        },
        {
          "internalType": "uint256",
          "name": "_monthlyKYCReward",
          "type": "uint256"
        }
      ],
      "name": "updateRewardConfig",
      "outputs": [],
      "stateMutability": "nonpayable",
      "type": "function"
    },
    {
      "inputs": [
        {
          "internalType": "address",
          "name": "",
          "type": "address"
        },
        {
          "internalType": "uint256",
          "name": "",
          "type": "uint256"
        }
      ],
      "name": "userStakes",
      "outputs": [
        {
          "internalType": "uint256",
          "name": "amount",
          "type": "uint256"
        },
        {
          "internalType": "uint256",
          "name": "timestamp",
          "type": "uint256"
        },
        {
          "internalType": "uint256",
          "name": "rewardRate",
          "type": "uint256"
        },
        {
          "internalType": "uint256",
          "name": "claimedRewards",
          "type": "uint256"
        }
      ],
      "stateMutability": "view",
      "type": "function"
    },
    {
      "inputs": [
        {
          "internalType": "address",
          "name": "",
          "type": "address"
        }
      ],
      "name": "verificationCount",
      "outputs": [
        {
          "internalType": "uint256",
          "name": "",
          "type": "uint256"
        }
      ],
      "stateMutability": "view",
      "type": "function"
    },
    {
      "inputs": [],
      "name": "verificationReward",
      "outputs": [
        {
          "internalType": "uint256",
          "name": "",
          "type": "uint256"
        }
      ],
      "stateMutability": "view",
      "type": "function"
    }
  ],
  "bytecode": "0x6101606040818152346200053457620000188262000539565b600f8252602091828101916e2832b939b7b730a4a2102a37b5b2b760891b93848452815194620000488662000539565b600f8652818601528151906200005e8262000539565b6003958683526214125160ea1b8284015283516200007c8162000539565b6001808252603160f81b84830190815283516001600160401b039a92949192908b811162000434578154928684811c9416801562000529575b8885101462000513578190601f94858111620004bd575b50889085831160011462000456576000926200044a575b505060001982841b1c191690861b1781555b8651918b8311620004345760049788548781811c9116801562000429575b8982101462000414579081838695949311620003ba575b50889184116001146200034f5760009362000343575b505082861b92600019911b1c19161785555b6200015d87620007b5565b976101209889526200016f8362000979565b97610140988952519020918260e05251902061010098818a524660a052865191858301937f8b73c3c69bb8fe3d512ecc4cf759cc79239f7b179b0ffacaa9a75d522b39400f85528884015260608301524660808301523060a083015260a0825260c0820190828210908211176200032e5786525190206080523060c052600855610320601155678ac7230489e8000060125568056bc75e2d63100000601355620002193362000555565b506200022533620005d6565b50620002313362000679565b506200023d3362000717565b503315620003175760ff6009541662000308576002546a52b7d2dcc80cd2e400000092838201809211620002f357506000917fddf252ad1be2c89b69c2b068fc378daa952ba7f163c4a11628f55a4df523b3ef9160025533835282815284832084815401905584519384523393a351916121ea938462000b32853960805184611cf5015260a05184611dc1015260c05184611cbf015260e05184611d4401525183611d6a01525182610bab01525181610bd50152f35b601190634e487b7160e01b6000525260246000fd5b50905163d93c066560e01b8152fd5b506000602492519163ec442f0560e01b8352820152fd5b604186634e487b7160e01b6000525260246000fd5b01519150388062000140565b9190879450601f198416928a600052896000209360005b8b828210620003a3575050851162000388575b50505050811b01855562000152565b01519060f884600019921b161c191690553880808062000379565b8385015187558b9890960195938401930162000366565b909192935089600052886000208380870160051c8201928b88106200040a575b918a918897969594930160051c01915b828110620003fa5750506200012a565b600081558796508a9101620003ea565b92508192620003da565b60228a634e487b7160e01b6000525260246000fd5b90607f169062000113565b634e487b7160e01b600052604160045260246000fd5b015190503880620000e3565b90889350601f19831691856000528a6000209260005b8c828210620004a657505084116200048d575b505050811b018155620000f5565b015160001983861b60f8161c191690553880806200047f565b8385015186558c979095019493840193016200046c565b90915083600052886000208580850160051c8201928b861062000509575b918a91869594930160051c01915b828110620004f9575050620000cc565b600081558594508a9101620004e9565b92508192620004db565b634e487b7160e01b600052602260045260246000fd5b93607f1693620000b5565b600080fd5b604081019081106001600160401b038211176200043457604052565b6001600160a01b031660008181527f13da86008ba1c6922daee3e07db95305ef49ebced9f5467a0b8613fcc6b343e3602052604081205490919060ff16620005d257818052600a6020526040822081835260205260408220600160ff19825416179055339160008051602062002d1c8339815191528180a4600190565b5090565b6001600160a01b031660008181527f9c8843fca7ab1747e9c69e3d39849ba2c8aedc9d17b2ba460751d1b018c702ff60205260408120549091907f0f51adb3f49e4a9bbb17b3783f025995eaf8c24be2c8eefff214bdfda05ef94d9060ff166200067457808352600a6020526040832082845260205260408320600160ff1982541617905560008051602062002d1c833981519152339380a4600190565b505090565b6001600160a01b031660008181527f4ff89fc4f2a8c3e81968e251ce81a0192ce0c78211e2e4d669374e0b173baef860205260408120549091907f0ce23c3e399818cfee81a7ab0880f714e53d7672b08df0fa62f2843416e1ea099060ff166200067457808352600a6020526040832082845260205260408320600160ff1982541617905560008051602062002d1c833981519152339380a4600190565b6001600160a01b031660008181527f6c4ab3a3cc4fea3ac566afdaa38e0e471d1bdfd1aa59eb20affdabfa5e893fed60205260408120549091907f65d7a28e3265b37a6474929f336521b332c1681b933f6cb9f3376673440d862a9060ff166200067457808352600a6020526040832082845260205260408320600160ff1982541617905560008051602062002d1c833981519152339380a4600190565b8051602091908281101562000854575090601f825111620007f35780825192015190808310620007e457501790565b82600019910360031b1b161790565b90604051809263305a27a960e01b82528060048301528251908160248401526000935b8285106200083a575050604492506000838284010152601f80199101168101030190fd5b848101820151868601604401529381019385935062000816565b6001600160401b03811162000434576005928354926001938481811c911680156200096e575b838210146200051357601f811162000937575b5081601f8411600114620008cd5750928293918392600094620008c1575b50501b916000199060031b1c191617905560ff90565b015192503880620008ab565b919083601f1981168760005284600020946000905b888383106200091c575050501062000902575b505050811b01905560ff90565b015160001960f88460031b161c19169055388080620008f5565b858701518855909601959485019487935090810190620008e2565b8560005284601f846000209201871c820191601f8601881c015b828110620009615750506200088d565b6000815501859062000951565b90607f16906200087a565b80516020908181101562000a075750601f825111620009a65780825192015190808310620007e457501790565b90604051809263305a27a960e01b82528060048301528251908160248401526000935b828510620009ed575050604492506000838284010152601f80199101168101030190fd5b8481018201518686016044015293810193859350620009c9565b906001600160401b0382116200043457600654926001938481811c9116801562000b26575b838210146200051357601f811162000aec575b5081601f841160011462000a80575092829391839260009462000a74575b50501b916000199060031b1c19161760065560ff90565b01519250388062000a5d565b919083601f198116600660005284600020946000905b8883831062000ad1575050501062000ab7575b505050811b0160065560ff90565b015160001960f88460031b161c1916905538808062000aa9565b85870151885590960195948501948793509081019062000a96565b600660005284601f84600020920160051c820191601f860160051c015b82811062000b1957505062000a3f565b6000815501859062000b09565b90607f169062000a2c56fe608060408181526004918236101561001657600080fd5b600092833560e01c91826301ffc9a7146116bd5750816306fdde03146115ea578163082fa374146115cb578163095ea7b3146115a157816318160ddd146115825781631d336d621461154a57816323b872dd14611456578163248a9ca31461142b5781632e17de78146112375781632f2ff15d1461120d5781632ff2e9dc146111e7578163313ce567146111cb57816331d7a2621461119357816332cb6b0c1461116c5781633644e5151461114f57816336568abe146111095781633f4ba83a1461109f5781634d08622814611067578163567e98f9146110485781635c975abb1461102457816360acf9e414610f125781636a20de9214610e365781636d750d8014610dfb5781636f3ba88914610dcd57816370a0823114610d965781637ecebe0014610d5e5781638456cb5914610cb157816384b0196e14610b9357816391bc7d5e14610b5b57816391d1485414610b1457816393b12e5414610af557816395d89b4114610a0a5781639bfd8d61146103d4578163a217fddf146109ef578163a694fc3a14610841578163a8c478ba146107c5578163a9059cbb14610794578163b4ed30f514610665578163b5d5b5fa146105f0578163cf57ee69146105b8578163d505accf14610450578163d547741f1461040c578163dd2a8b11146103d4578163dd62ed3e1461038b578163e63ab1e914610350578163e7705db614610315578163e9c8298b146102b957508063ee1725461461029b578063f417085e1461027d5763f6c45d021461024b57600080fd5b34610279578060031936011261027957602090610272610269611750565b60243590612030565b9051908152f35b5080fd5b50346102795781600319360112610279576020906011549051908152f35b50346102795781600319360112610279576020906010549051908152f35b838334610279576020366003190112610279576001600160a01b036102dc611750565b1682526015602052808220549162278d0083018093116103025760208383519042118152f35b634e487b7160e01b815260118452602490fd5b505034610279578160031936011261027957602090517f0ce23c3e399818cfee81a7ab0880f714e53d7672b08df0fa62f2843416e1ea098152f35b505034610279578160031936011261027957602090517f65d7a28e3265b37a6474929f336521b332c1681b933f6cb9f3376673440d862a8152f35b505034610279578060031936011261027957806020926103a9611750565b6103b161176b565b6001600160a01b0391821683526001865283832091168252845220549051908152f35b5050346102795760203660031901126102795760209181906001600160a01b036103fc611750565b168152600c845220549051908152f35b9190503461044c578060031936011261044c576104489135610443600161043161176b565b93838752600a60205286200154611867565b61190d565b5080f35b8280fd5b839150346102795760e03660031901126102795761046c611750565b61047461176b565b906044359260643560843560ff811681036105b45781421161059d5760018060a01b0390818516928389526007602052898920908154916001830190558a519060208201927f6e71edae12b1b97f4d1f60370fef10105fa2faae0126114a169c64845d6126c98452868d840152858a1660608401528a608084015260a083015260c082015260c0815260e0810181811067ffffffffffffffff82111761058a578b525190206105589161054f91610529611cbc565b908c519161190160f01b83526002830152602282015260c43591604260a4359220611ba7565b90929192611c37565b1681810361056f578661056c878787611b14565b80f35b87516325c0072360e11b815292830152602482015260449150fd5b634e487b7160e01b8b526041875260248bfd5b875163313c898160e11b8152808401839052602490fd5b8680fd5b5050346102795760203660031901126102795760209181906001600160a01b036105e0611750565b168152600b845220549051908152f35b50503461027957806003193601126102795761060a611750565b6001600160a01b03168252600b60205280822080546024359390841015610662575060809261063891611781565b50908154916001810154916003600283015492015492815194855260208501528301526060820152f35b80fd5b83915034610279578260031936011261027957610680611750565b926024359167ffffffffffffffff80841161079057366023850112156107905783820135908111610790573660248286010111610790576106bf61180b565b6001600160a01b038616808652601460205283862080549195916106e29061200e565b90556012549285875260146020526001858820541461075f575b50918160609260247ff04232e906a9fa60f3dd1fd7e480db536b06b5517b57271070107667c17b33759695610731858c612130565b828751978896875280602088015286015201848401378181018301879052601f01601f19168101030190a280f35b96928060011b908082046002149015171561077d57929650816106fc565b634e487b7160e01b875260118852602487fd5b8480fd5b5050346102795780600319360112610279576020906107be6107b4611750565b6024359033611a2e565b5160018152f35b82843461066257602080600319360112610279576107e1611750565b6001600160a01b038116808452600e83528484205490949192919084905b868252600b845282822054861015610839579061083061082a84936108248989612030565b90611f9d565b9661200e565b959091506107ff565b915191825250f35b838334610279576020908160031936011261044c57833591610861611fc0565b610869611fde565b82156109bc573384528381528282852054106109835761088a833033611a2e565b338452600b8152818420601154908351916108a4836119be565b85835283830142815285840191825260608401928884528054906801000000000000000082101561097057906108df91600182018155611781565b94909461095e57917f1449c6dd7851abc30abf37f57715f492010519147cc2652fbc38202c18a6ee90969594939160039351855551600185015551600284015551910155338552600c8152818520610938858254611f9d565b905561094684600d54611f9d565b600d55815193845242908401523392a2600160085580f35b634e487b7160e01b8952888a52602489fd5b634e487b7160e01b8a5260418b5260248afd5b8490606492519162461bcd60e51b83528201526014602482015273496e73756666696369656e742062616c616e636560601b6044820152fd5b8490606492519162461bcd60e51b8352820152600e60248201526d125b9d985b1a5908185b5bdd5b9d60921b6044820152fd5b50503461027957816003193601126102795751908152602090f35b9190503461044c578260031936011261044c5780519183815490610a2d82611984565b80865292600192808416908115610aca5750600114610a6e575b610a6a8686610a58828b0383611a0c565b51918291602083526020830190611710565b0390f35b815294507f8a35acfbc15ff81a39ae7d344fd709f28e8600b4aa8c65c6b64bfe7fe36bd19b5b828610610ab257505050610a58826020610a6a958201019438610a47565b80546020878701810191909152909501948101610a94565b9050610a6a975086935060209250610a5894915060ff191682840152151560051b8201019438610a47565b5050346102795781600319360112610279576020906013549051908152f35b90503461044c578160031936011261044c578160209360ff92610b3561176b565b90358252600a86528282206001600160a01b039091168252855220549151911615158152f35b5050346102795760203660031901126102795760209181906001600160a01b03610b83611750565b1681526014845220549051908152f35b9190503461044c578260031936011261044c57610bcf7f0000000000000000000000000000000000000000000000000000000000000000611de7565b92610bf97f0000000000000000000000000000000000000000000000000000000000000000611ee3565b908251926020928385019585871067ffffffffffffffff881117610c9e57509280610c54838896610c47998b9996528686528151998a99600f60f81b8b5260e0868c015260e08b0190611710565b91898303908a0152611710565b924660608801523060808801528460a088015286840360c088015251928381520193925b828110610c8757505050500390f35b835185528695509381019392810192600101610c78565b634e487b7160e01b845260419052602483fd5b90503461044c578260031936011261044c577f65d7a28e3265b37a6474929f336521b332c1681b933f6cb9f3376673440d862a808452600a60205282842033855260205260ff838520541615610d4357837f62e78cea01bee320cd4e420270b5ea74000d11b0c9f74754ebdbfc544b05a258602085610d2e611fc0565b600160ff19600954161760095551338152a180f35b604492519163e2517d3f60e01b835233908301526024820152fd5b5050346102795760203660031901126102795760209181906001600160a01b03610d86611750565b1681526007845220549051908152f35b5050346102795760203660031901126102795760209181906001600160a01b03610dbe611750565b16815280845220549051908152f35b83903461027957606036600319011261027957610de86117b3565b3560115560243560125560443560135580f35b505034610279578160031936011261027957602090517f0f51adb3f49e4a9bbb17b3783f025995eaf8c24be2c8eefff214bdfda05ef94d8152f35b83915034610279578260031936011261027957610e51611750565b602435917f0f51adb3f49e4a9bbb17b3783f025995eaf8c24be2c8eefff214bdfda05ef94d808552600a60205285852033865260205260ff868620541615610ef557506b033b2e3c9fd0803ce8000000610ead84600254611f9d565b11610ebd57509061056c916120ca565b606490602086519162461bcd60e51b8352820152601260248201527145786365656473206d617820737570706c7960701b6044820152fd5b6044925085519163e2517d3f60e01b835233908301526024820152fd5b9190503461044c57602036600319011261044c57610f2e611750565b610f3661180b565b6001600160a01b03811680855260156020528285205490939062278d00810190811061101157421115610fce57507ff04232e906a9fa60f3dd1fd7e480db536b06b5517b57271070107667c17b337591610fa26080928587526015602052428388205560135490612130565b600b6013549180519283528060208401528201526a4d6f6e74686c79204b594360a81b6060820152a280f35b606490602084519162461bcd60e51b8352820152601e60248201527f4d6f6e74686c792072657761726420616c726561647920636c61696d656400006044820152fd5b634e487b7160e01b865260118252602486fd5b50503461027957816003193601126102795760209060ff6009541690519015158152f35b505034610279578160031936011261027957602090600d549051908152f35b5050346102795760203660031901126102795760209181906001600160a01b0361108f611750565b1681526015845220549051908152f35b90503461044c578260031936011261044c576110b96117b3565b6009549060ff8216156110fb575060ff1916600955513381527f5db9ee0a495bf2e6ff9c91a7834c1ba4fdd244a5e8aa4e537bd38aeae4b073aa90602090a180f35b8251638dfc202b60e01b8152fd5b83833461027957806003193601126102795761112361176b565b90336001600160a01b03831603611140575061044891923561190d565b5163334bd91960e11b81528390fd5b505034610279578160031936011261027957602090610272611cbc565b505034610279578160031936011261027957602090516b033b2e3c9fd0803ce80000008152f35b5050346102795760203660031901126102795760209181906001600160a01b036111bb611750565b168152600e845220549051908152f35b5050346102795781600319360112610279576020905160128152f35b505034610279578160031936011261027957602090516a52b7d2dcc80cd2e40000008152f35b9190503461044c578060031936011261044c576104489135611232600161043161176b565b61188d565b838334610279576020908160031936011261044c578335611256611fc0565b61125e611fde565b338452600b8352818420548110156113f257338452600b835261128381838620611781565b5054926112908233612030565b91338652600b8252838620908154600019928382019182116113df576112ca916112b991611781565b5091338952600b8552868920611781565b919091611392578082036113b7575b5050338652600b825283862090815480156113a45701906112fa8282611781565b6113925787985096600388827f7fc4727e062e336010f2c282598ef5f14facb3de68cf8195c2f23e1454b2b74e999a55826001820155826002820155015555338652600c815282862061134e868254612001565b905561135c85600d54612001565b600d5561136a853330611a2e565b81611383575b82519485528401523392a2600160085580f35b61138d8233612130565b611370565b634e487b7160e01b8852878952602488fd5b634e487b7160e01b885260318952602488fd5b60038181925484556001810154600185015560028101546002850155015491015587806112d9565b634e487b7160e01b895260118a52602489fd5b815162461bcd60e51b81528086018490526013602482015272092dcecc2d8d2c840e6e8c2d6ca40d2dcc8caf606b1b6044820152606490fd5b90503461044c57602036600319011261044c5781602093600192358152600a85522001549051908152f35b9050823461066257606036600319011261066257611472611750565b61147a61176b565b916044359360018060a01b0383168083526001602052868320338452602052868320549160001983106114b6575b6020886107be898989611a2e565b86831061151e5781156115075733156114f0575082526001602090815286832033845281529186902090859003905582906107be876114a8565b8751634a1406b160e11b8152908101849052602490fd5b875163e602df0560e01b8152908101849052602490fd5b8751637dc7a0d960e11b8152339181019182526020820193909352604081018790528291506060010390fd5b5050346102795760203660031901126102795760209181906001600160a01b03611572611750565b168152600f845220549051908152f35b5050346102795781600319360112610279576020906002549051908152f35b5050346102795780600319360112610279576020906107be6115c1611750565b6024359033611b14565b5050346102795781600319360112610279576020906012549051908152f35b5050346102795781600319360112610279578051908260035461160c81611984565b808552916001918083169081156116955750600114611638575b505050610a5882610a6a940383611a0c565b9450600385527fc2575a0e9e593c00f959f8c92f12db2869c3395a3b0502d05e2516446f71f85b5b82861061167d57505050610a58826020610a6a9582010194611626565b80546020878701810191909152909501948101611660565b610a6a975086935060209250610a5894915060ff191682840152151560051b82010194611626565b84913461044c57602036600319011261044c573563ffffffff60e01b811680910361044c5760209250637965db0b60e01b81149081156116ff575b5015158152f35b6301ffc9a760e01b149050836116f8565b919082519283825260005b84811061173c575050826000602080949584010152601f8019910116010190565b60208183018101518483018201520161171b565b600435906001600160a01b038216820361176657565b600080fd5b602435906001600160a01b038216820361176657565b805482101561179d5760005260206000209060021b0190600090565b634e487b7160e01b600052603260045260246000fd5b3360009081527f13da86008ba1c6922daee3e07db95305ef49ebced9f5467a0b8613fcc6b343e3602052604081205460ff16156117ed5750565b6044906040519063e2517d3f60e01b82523360048301526024820152fd5b3360009081527f4ff89fc4f2a8c3e81968e251ce81a0192ce0c78211e2e4d669374e0b173baef860205260409020547f0ce23c3e399818cfee81a7ab0880f714e53d7672b08df0fa62f2843416e1ea099060ff16156117ed5750565b80600052600a60205260406000203360005260205260ff60406000205416156117ed5750565b90600091808352600a602052604083209160018060a01b03169182845260205260ff6040842054161560001461190857808352600a6020526040832082845260205260408320600160ff198254161790557f2f8788117e7eff1d82e926ec794901d17c78024a50270940304540a733656f0d339380a4600190565b505090565b90600091808352600a602052604083209160018060a01b03169182845260205260ff60408420541660001461190857808352600a602052604083208284526020526040832060ff1981541690557ff6391f5c32d9c69d2a47ea670b442974b53935d1edc7fd64eb21e047a839171b339380a4600190565b90600182811c921680156119b4575b602083101461199e57565b634e487b7160e01b600052602260045260246000fd5b91607f1691611993565b6080810190811067ffffffffffffffff8211176119da57604052565b634e487b7160e01b600052604160045260246000fd5b6040810190811067ffffffffffffffff8211176119da57604052565b90601f8019910116810190811067ffffffffffffffff8211176119da57604052565b916001600160a01b03808416928315611afb5716928315611ae257611a51611fc0565b60009083825281602052604082205490838210611ab0575091604082827fddf252ad1be2c89b69c2b068fc378daa952ba7f163c4a11628f55a4df523b3ef958760209652828652038282205586815220818154019055604051908152a3565b60405163391434e360e21b81526001600160a01b03919091166004820152602481019190915260448101839052606490fd5b60405163ec442f0560e01b815260006004820152602490fd5b604051634b637e8f60e11b815260006004820152602490fd5b6001600160a01b03908116918215611b8e5716918215611b755760207f8c5be1e5ebec7d5bd14f71427d1e84f3dd0314c0f7b2291e5b200ac8c7c3b925918360005260018252604060002085600052825280604060002055604051908152a3565b604051634a1406b160e11b815260006004820152602490fd5b60405163e602df0560e01b815260006004820152602490fd5b91907f7fffffffffffffffffffffffffffffff5d576e7357a4501ddfe92f46681b20a08411611c2b57926020929160ff608095604051948552168484015260408301526060820152600092839182805260015afa15611c1f5780516001600160a01b03811615611c1657918190565b50809160019190565b604051903d90823e3d90fd5b50505060009160039190565b6004811015611ca65780611c49575050565b60018103611c635760405163f645eedf60e01b8152600490fd5b60028103611c845760405163fce698f760e01b815260048101839052602490fd5b600314611c8e5750565b602490604051906335e2f38360e21b82526004820152fd5b634e487b7160e01b600052602160045260246000fd5b307f00000000000000000000000000000000000000000000000000000000000000006001600160a01b03161480611dbe575b15611d17577f000000000000000000000000000000000000000000000000000000000000000090565b60405160208101907f8b73c3c69bb8fe3d512ecc4cf759cc79239f7b179b0ffacaa9a75d522b39400f82527f000000000000000000000000000000000000000000000000000000000000000060408201527f000000000000000000000000000000000000000000000000000000000000000060608201524660808201523060a082015260a0815260c0810181811067ffffffffffffffff8211176119da5760405251902090565b507f00000000000000000000000000000000000000000000000000000000000000004614611cee565b60ff8114611e255760ff811690601f8211611e135760405191611e09836119f0565b8252602082015290565b604051632cd44ac360e21b8152600490fd5b50604051600554816000611e3883611984565b80835292600190818116908115611ec15750600114611e62575b50611e5f92500382611a0c565b90565b6005600090815291507f036b6384b5eca791c62761152d0c79bb0604c104a5fb6f4eb0703f3154bb3db05b848310611ea65750611e5f935050810160200138611e52565b81935090816020925483858901015201910190918492611e8d565b905060209250611e5f94915060ff191682840152151560051b82010138611e52565b60ff8114611f055760ff811690601f8211611e135760405191611e09836119f0565b50604051600654816000611f1883611984565b80835292600190818116908115611ec15750600114611f3e5750611e5f92500382611a0c565b6006600090815291507ff652222313e28459528d920b65115c16c04f3efc82aaedc97be59f3f377c0d3f5b848310611f825750611e5f935050810160200138611e52565b81935090816020925483858901015201910190918492611f69565b91908201809211611faa57565b634e487b7160e01b600052601160045260246000fd5b60ff60095416611fcc57565b60405163d93c066560e01b8152600490fd5b600260085414611fef576002600855565b604051633ee5aeb560e01b8152600490fd5b91908203918211611faa57565b6000198114611faa5760010190565b81810292918115918404141715611faa57565b6001600160a01b03166000908152600b6020526040902080548210156120c357611e5f9161205d91611781565b506301e133806120ba604051612072816119be565b835481526127106120b46001860154958660208501526120aa6003600283015492604087019384520154976060860198895242612001565b935190519061201d565b0461201d565b04905190612001565b5050600090565b6001600160a01b0316908115611ae2577fddf252ad1be2c89b69c2b068fc378daa952ba7f163c4a11628f55a4df523b3ef6020600092612108611fc0565b61211481600254611f9d565b60025584845283825260408420818154019055604051908152a3565b90612187916b033b2e3c9fd0803ce800000061214e83600254611f9d565b1161218c5761215d82826120ca565b60018060a01b0316600052600f602052604060002061217d828254611f9d565b9055601054611f9d565b601055565b60018060a01b038116600052600e60205260406000206121ad838254611f9d565b905561215d56fea26469706673582212207ee660aa621d2f59b5474703e3a8e513041add9950382be7502bc10ebf207ed464736f6c634300081400332f8788117e7eff1d82e926ec794901d17c78024a50270940304540a733656f0d",
  "linkReferences": {},
  "deployedLinkReferences": {}
}