{
  "_format": "hh-sol-artifact-1",
  "contractName": "KYCVerifier",
  "sourceName": "contracts/KYCVerifier.sol",
  "abi": [
    {
      "anonymous": false,
      "inputs": [
        {
          "indexed": true,
          "internalType": "bytes32",
          "name": "proofHash",
          "type": "bytes32"
        },
        {
          "indexed": true,
          "internalType": "address",
          "name": "user",
          "type": "address"
        },
        {
          "indexed": false,
          "internalType": "uint256",
          "name": "timestamp",
          "type": "uint256"
        }
      ],
      "name": "ProofVerified",
      "type": "event"
    },
    {
      "inputs": [
        {
          "internalType": "bytes32",
          "name": "proofHash",
          "type": "bytes32"
        }
      ],
      "name": "isVerified",
      "outputs": [
        {
          "internalType": "bool",
          "name": "",
          "type": "bool"
        }
      ],
      "stateMutability": "view",
      "type": "function"
    },
    {
      "inputs": [
        {
          "internalType": "bytes32",
          "name": "",
          "type": "bytes32"
        }
      ],
      "name": "verifiedProofs",
      "outputs": [
        {
          "internalType": "bool",
          "name": "",
          "type": "bool"
        }
      ],
      "stateMutability": "view",
      "type": "function"
    },
    {
      "inputs": [
        {
          "internalType": "uint256[2]",
          "name": "_pA",
          "type": "uint256[2]"
        },
        {
          "internalType": "uint256[2][2]",
          "name": "_pB",
          "type": "uint256[2][2]"
        },
        {
          "internalType": "uint256[2]",
          "name": "_pC",
          "type": "uint256[2]"
        },
        {
          "internalType": "uint256[1]",
          "name": "_pubSignals",
          "type": "uint256[1]"
        }
      ],
      "name": "verifyProof",
      "outputs": [
        {
          "internalType": "bool",
          "name": "",
          "type": "bool"
        }
      ],
      "stateMutability": "pure",
      "type": "function"
    }
  ],
  "bytecode": "0x608080604052346100165761027c908161001c8239f35b600080fdfe60806040818152600436101561001457600080fd5b600091823560e01c908163176d80c4146101e65750806343753b4d146100725763c181b2731461004357600080fd5b3461006e57602036600319011261006e5760ff81602093600435815280855220541690519015158152f35b5080fd5b503461006e5761012036600319011261006e57366023121561006e57610096610210565b9160449236841161006e576004905b8482106101d65750503660631215610152576100bf610210565b60c49336851161017957905b84821061017d5750503660e31215610152576100e5610210565b6101049336851161017957905b8482106101695750503661012312156101525781519260209384810181811067ffffffffffffffff8211176101555784529061012492368411610152575084915b8382106101435782855160018152f35b81358152908201908201610133565b80fd5b634e487b7160e01b84526041600452602484fd5b81358152602091820191016100f2565b8280fd5b36601f8301121561017957610190610210565b808584013681116101d25791869285949294905b8082106101bc575050815292019160200190506100cb565b81358652602095860195899550909101906101a4565b8580fd5b81358152602091820191016100a5565b91905034610179576020366003190112610179576004358352602083815292205460ff1615158152f35b604051906040820182811067ffffffffffffffff82111761023057604052565b634e487b7160e01b600052604160045260246000fdfea26469706673582212201e8d7747bf3752e1d121566f73317878b88e260440ffd211dc15bc52db88a41564736f6c63430008140033",
  "linkReferences": {},
  "deployedLinkReferences": {}
}