{"contracts/SimplePersonaToken.sol":{"SimplePersonaToken":{"abi":[{"inputs":[],"stateMutability":"nonpayable","type":"constructor"},{"inputs":[],"name":"AccessControlBadConfirmation","type":"error"},{"inputs":[{"internalType":"address","name":"account","type":"address"},{"internalType":"bytes32","name":"neededRole","type":"bytes32"}],"name":"AccessControlUnauthorizedAccount","type":"error"},{"inputs":[],"name":"ECDSAInvalidSignature","type":"error"},{"inputs":[{"internalType":"uint256","name":"length","type":"uint256"}],"name":"ECDSAInvalidSignatureLength","type":"error"},{"inputs":[{"internalType":"bytes32","name":"s","type":"bytes32"}],"name":"ECDSAInvalidSignatureS","type":"error"},{"inputs":[{"internalType":"address","name":"spender","type":"address"},{"internalType":"uint256","name":"allowance","type":"uint256"},{"internalType":"uint256","name":"needed","type":"uint256"}],"name":"ERC20InsufficientAllowance","type":"error"},{"inputs":[{"internalType":"address","name":"sender","type":"address"},{"internalType":"uint256","name":"balance","type":"uint256"},{"internalType":"uint256","name":"needed","type":"uint256"}],"name":"ERC20InsufficientBalance","type":"error"},{"inputs":[{"internalType":"address","name":"approver","type":"address"}],"name":"ERC20InvalidApprover","type":"error"},{"inputs":[{"internalType":"address","name":"receiver","type":"address"}],"name":"ERC20InvalidReceiver","type":"error"},{"inputs":[{"internalType":"address","name":"sender","type":"address"}],"name":"ERC20InvalidSender","type":"error"},{"inputs":[{"internalType":"address","name":"spender","type":"address"}],"name":"ERC20InvalidSpender","type":"error"},{"inputs":[{"internalType":"uint256","name":"deadline","type":"uint256"}],"name":"ERC2612ExpiredSignature","type":"error"},{"inputs":[{"internalType":"address","name":"signer","type":"address"},{"internalType":"address","name":"owner","type":"address"}],"name":"ERC2612InvalidSigner","type":"error"},{"inputs":[],"name":"EnforcedPause","type":"error"},{"inputs":[],"name":"ExpectedPause","type":"error"},{"inputs":[{"internalType":"address","name":"account","type":"address"},{"internalType":"uint256","name":"currentNonce","type":"uint256"}],"name":"InvalidAccountNonce","type":"error"},{"inputs":[],"name":"InvalidShortString","type":"error"},{"inputs":[],"name":"ReentrancyGuardReentrantCall","type":"error"},{"inputs":[{"internalType":"string","name":"str","type":"string"}],"name":"StringTooLong","type":"error"},{"anonymous":false,"inputs":[{"indexed":true,"internalType":"address","name":"owner","type":"address"},{"indexed":true,"internalType":"address","name":"spender","type":"address"},{"indexed":false,"internalType":"uint256","name":"value","type":"uint256"}],"name":"Approval","type":"event"},{"anonymous":false,"inputs":[],"name":"EIP712DomainChanged","type":"event"},{"anonymous":false,"inputs":[{"indexed":false,"internalType":"address","name":"account","type":"address"}],"name":"Paused","type":"event"},{"anonymous":false,"inputs":[{"indexed":true,"internalType":"address","name":"user","type":"address"},{"indexed":false,"internalType":"uint256","name":"amount","type":"uint256"}],"name":"RewardsClaimed","type":"event"},{"anonymous":false,"inputs":[{"indexed":true,"internalType":"bytes32","name":"role","type":"bytes32"},{"indexed":true,"internalType":"bytes32","name":"previousAdminRole","type":"bytes32"},{"indexed":true,"internalType":"bytes32","name":"newAdminRole","type":"bytes32"}],"name":"RoleAdminChanged","type":"event"},{"anonymous":false,"inputs":[{"indexed":true,"internalType":"bytes32","name":"role","type":"bytes32"},{"indexed":true,"internalType":"address","name":"account","type":"address"},{"indexed":true,"internalType":"address","name":"sender","type":"address"}],"name":"RoleGranted","type":"event"},{"anonymous":false,"inputs":[{"indexed":true,"internalType":"bytes32","name":"role","type":"bytes32"},{"indexed":true,"internalType":"address","name":"account","type":"address"},{"indexed":true,"internalType":"address","name":"sender","type":"address"}],"name":"RoleRevoked","type":"event"},{"anonymous":false,"inputs":[{"indexed":true,"internalType":"address","name":"user","type":"address"},{"indexed":false,"internalType":"uint256","name":"amount","type":"uint256"},{"indexed":false,"internalType":"uint256","name":"timestamp","type":"uint256"}],"name":"Staked","type":"event"},{"anonymous":false,"inputs":[{"indexed":true,"internalType":"address","name":"from","type":"address"},{"indexed":true,"internalType":"address","name":"to","type":"address"},{"indexed":false,"internalType":"uint256","name":"value","type":"uint256"}],"name":"Transfer","type":"event"},{"anonymous":false,"inputs":[{"indexed":false,"internalType":"address","name":"account","type":"address"}],"name":"Unpaused","type":"event"},{"anonymous":false,"inputs":[{"indexed":true,"internalType":"address","name":"user","type":"address"},{"indexed":false,"internalType":"uint256","name":"amount","type":"uint256"},{"indexed":false,"internalType":"uint256","name":"rewards","type":"uint256"}],"name":"Unstaked","type":"event"},{"anonymous":false,"inputs":[{"indexed":true,"internalType":"address","name":"user","type":"address"},{"indexed":false,"internalType":"uint256","name":"amount","type":"uint256"},{"indexed":false,"internalType":"string","name":"verificationType","type":"string"}],"name":"VerificationReward","type":"event"},{"inputs":[],"name":"DEFAULT_ADMIN_ROLE","outputs":[{"internalType":"bytes32","name":"","type":"bytes32"}],"stateMutability":"view","type":"function"},{"inputs":[],"name":"DOMAIN_SEPARATOR","outputs":[{"internalType":"bytes32","name":"","type":"bytes32"}],"stateMutability":"view","type":"function"},{"inputs":[],"name":"INITIAL_SUPPLY","outputs":[{"internalType":"uint256","name":"","type":"uint256"}],"stateMutability":"view","type":"function"},{"inputs":[],"name":"MAX_SUPPLY","outputs":[{"internalType":"uint256","name":"","type":"uint256"}],"stateMutability":"view","type":"function"},{"inputs":[],"name":"PAUSER_ROLE","outputs":[{"internalType":"bytes32","name":"","type":"bytes32"}],"stateMutability":"view","type":"function"},{"inputs":[],"name":"REWARD_MANAGER_ROLE","outputs":[{"internalType":"bytes32","name":"","type":"bytes32"}],"stateMutability":"view","type":"function"},{"inputs":[],"name":"VERIFIER_ROLE","outputs":[{"internalType":"bytes32","name":"","type":"bytes32"}],"stateMutability":"view","type":"function"},{"inputs":[{"internalType":"address","name":"owner","type":"address"},{"internalType":"address","name":"spender","type":"address"}],"name":"allowance","outputs":[{"internalType":"uint256","name":"","type":"uint256"}],"stateMutability":"view","type":"function"},{"inputs":[{"internalType":"address","name":"spender","type":"address"},{"internalType":"uint256","name":"value","type":"uint256"}],"name":"approve","outputs":[{"internalType":"bool","name":"","type":"bool"}],"stateMutability":"nonpayable","type":"function"},{"inputs":[{"internalType":"address","name":"account","type":"address"}],"name":"balanceOf","outputs":[{"internalType":"uint256","name":"","type":"uint256"}],"stateMutability":"view","type":"function"},{"inputs":[],"name":"baseStakingRate","outputs":[{"internalType":"uint256","name":"","type":"uint256"}],"stateMutability":"view","type":"function"},{"inputs":[{"internalType":"address","name":"_user","type":"address"},{"internalType":"uint256","name":"_stakeIndex","type":"uint256"}],"name":"calculateStakingRewards","outputs":[{"internalType":"uint256","name":"","type":"uint256"}],"stateMutability":"view","type":"function"},{"inputs":[{"internalType":"address","name":"_user","type":"address"}],"name":"canClaimMonthlyKYC","outputs":[{"internalType":"bool","name":"","type":"bool"}],"stateMutability":"view","type":"function"},{"inputs":[],"name":"decimals","outputs":[{"internalType":"uint8","name":"","type":"uint8"}],"stateMutability":"view","type":"function"},{"inputs":[{"internalType":"address","name":"_user","type":"address"}],"name":"distributeMonthlyKYCReward","outputs":[],"stateMutability":"nonpayable","type":"function"},{"inputs":[{"internalType":"address","name":"_user","type":"address"},{"internalType":"string","name":"_verificationType","type":"string"}],"name":"distributeVerificationReward","outputs":[],"stateMutability":"nonpayable","type":"function"},{"inputs":[],"name":"eip712Domain","outputs":[{"internalType":"bytes1","name":"fields","type":"bytes1"},{"internalType":"string","name":"name","type":"string"},{"internalType":"string","name":"version","type":"string"},{"internalType":"uint256","name":"chainId","type":"uint256"},{"internalType":"address","name":"verifyingContract","type":"address"},{"internalType":"bytes32","name":"salt","type":"bytes32"},{"internalType":"uint256[]","name":"extensions","type":"uint256[]"}],"stateMutability":"view","type":"function"},{"inputs":[{"internalType":"bytes32","name":"role","type":"bytes32"}],"name":"getRoleAdmin","outputs":[{"internalType":"bytes32","name":"","type":"bytes32"}],"stateMutability":"view","type":"function"},{"inputs":[{"internalType":"address","name":"_user","type":"address"}],"name":"getStakeCount","outputs":[{"internalType":"uint256","name":"","type":"uint256"}],"stateMutability":"view","type":"function"},{"inputs":[{"internalType":"address","name":"_user","type":"address"}],"name":"getTotalPendingRewards","outputs":[{"internalType":"uint256","name":"","type":"uint256"}],"stateMutability":"view","type":"function"},{"inputs":[{"internalType":"address","name":"_user","type":"address"}],"name":"getTotalStaked","outputs":[{"internalType":"uint256","name":"","type":"uint256"}],"stateMutability":"view","type":"function"},{"inputs":[{"internalType":"bytes32","name":"role","type":"bytes32"},{"internalType":"address","name":"account","type":"address"}],"name":"grantRole","outputs":[],"stateMutability":"nonpayable","type":"function"},{"inputs":[{"internalType":"bytes32","name":"role","type":"bytes32"},{"internalType":"address","name":"account","type":"address"}],"name":"hasRole","outputs":[{"internalType":"bool","name":"","type":"bool"}],"stateMutability":"view","type":"function"},{"inputs":[{"internalType":"address","name":"","type":"address"}],"name":"lastKYCReward","outputs":[{"internalType":"uint256","name":"","type":"uint256"}],"stateMutability":"view","type":"function"},{"inputs":[{"internalType":"address","name":"","type":"address"}],"name":"lifetimeRewards","outputs":[{"internalType":"uint256","name":"","type":"uint256"}],"stateMutability":"view","type":"function"},{"inputs":[{"internalType":"address","name":"_to","type":"address"},{"internalType":"uint256","name":"_amount","type":"uint256"}],"name":"mintRewards","outputs":[],"stateMutability":"nonpayable","type":"function"},{"inputs":[],"name":"monthlyKYCReward","outputs":[{"internalType":"uint256","name":"","type":"uint256"}],"stateMutability":"view","type":"function"},{"inputs":[],"name":"name","outputs":[{"internalType":"string","name":"","type":"string"}],"stateMutability":"view","type":"function"},{"inputs":[{"internalType":"address","name":"owner","type":"address"}],"name":"nonces","outputs":[{"internalType":"uint256","name":"","type":"uint256"}],"stateMutability":"view","type":"function"},{"inputs":[],"name":"pause","outputs":[],"stateMutability":"nonpayable","type":"function"},{"inputs":[],"name":"paused","outputs":[{"internalType":"bool","name":"","type":"bool"}],"stateMutability":"view","type":"function"},{"inputs":[{"internalType":"address","name":"","type":"address"}],"name":"pendingRewards","outputs":[{"internalType":"uint256","name":"","type":"uint256"}],"stateMutability":"view","type":"function"},{"inputs":[{"internalType":"address","name":"owner","type":"address"},{"internalType":"address","name":"spender","type":"address"},{"internalType":"uint256","name":"value","type":"uint256"},{"internalType":"uint256","name":"deadline","type":"uint256"},{"internalType":"uint8","name":"v","type":"uint8"},{"internalType":"bytes32","name":"r","type":"bytes32"},{"internalType":"bytes32","name":"s","type":"bytes32"}],"name":"permit","outputs":[],"stateMutability":"nonpayable","type":"function"},{"inputs":[{"internalType":"bytes32","name":"role","type":"bytes32"},{"internalType":"address","name":"callerConfirmation","type":"address"}],"name":"renounceRole","outputs":[],"stateMutability":"nonpayable","type":"function"},{"inputs":[{"internalType":"bytes32","name":"role","type":"bytes32"},{"internalType":"address","name":"account","type":"address"}],"name":"revokeRole","outputs":[],"stateMutability":"nonpayable","type":"function"},{"inputs":[{"internalType":"uint256","name":"_amount","type":"uint256"}],"name":"stake","outputs":[],"stateMutability":"nonpayable","type":"function"},{"inputs":[{"internalType":"bytes4","name":"interfaceId","type":"bytes4"}],"name":"supportsInterface","outputs":[{"internalType":"bool","name":"","type":"bool"}],"stateMutability":"view","type":"function"},{"inputs":[],"name":"symbol","outputs":[{"internalType":"string","name":"","type":"string"}],"stateMutability":"view","type":"function"},{"inputs":[],"name":"totalRewardsDistributed","outputs":[{"internalType":"uint256","name":"","type":"uint256"}],"stateMutability":"view","type":"function"},{"inputs":[{"internalType":"address","name":"","type":"address"}],"name":"totalStaked","outputs":[{"internalType":"uint256","name":"","type":"uint256"}],"stateMutability":"view","type":"function"},{"inputs":[],"name":"totalStakedAmount","outputs":[{"internalType":"uint256","name":"","type":"uint256"}],"stateMutability":"view","type":"function"},{"inputs":[],"name":"totalSupply","outputs":[{"internalType":"uint256","name":"","type":"uint256"}],"stateMutability":"view","type":"function"},{"inputs":[{"internalType":"address","name":"to","type":"address"},{"internalType":"uint256","name":"value","type":"uint256"}],"name":"transfer","outputs":[{"internalType":"bool","name":"","type":"bool"}],"stateMutability":"nonpayable","type":"function"},{"inputs":[{"internalType":"address","name":"from","type":"address"},{"internalType":"address","name":"to","type":"address"},{"internalType":"uint256","name":"value","type":"uint256"}],"name":"transferFrom","outputs":[{"internalType":"bool","name":"","type":"bool"}],"stateMutability":"nonpayable","type":"function"},{"inputs":[],"name":"unpause","outputs":[],"stateMutability":"nonpayable","type":"function"},{"inputs":[{"internalType":"uint256","name":"_stakeIndex","type":"uint256"}],"name":"unstake","outputs":[],"stateMutability":"nonpayable","type":"function"},{"inputs":[{"internalType":"uint256","name":"_baseStakingRate","type":"uint256"},{"internalType":"uint256","name":"_verificationReward","type":"uint256"},{"internalType":"uint256","name":"_monthlyKYCReward","type":"uint256"}],"name":"updateRewardConfig","outputs":[],"stateMutability":"nonpayable","type":"function"},{"inputs":[{"internalType":"address","name":"","type":"address"},{"internalType":"uint256","name":"","type":"uint256"}],"name":"userStakes","outputs":[{"internalType":"uint256","name":"amount","type":"uint256"},{"internalType":"uint256","name":"timestamp","type":"uint256"},{"internalType":"uint256","name":"rewardRate","type":"uint256"},{"internalType":"uint256","name":"claimedRewards","type":"uint256"}],"stateMutability":"view","type":"function"},{"inputs":[{"internalType":"address","name":"","type":"address"}],"name":"verificationCount","outputs":[{"internalType":"uint256","name":"","type":"uint256"}],"stateMutability":"view","type":"function"},{"inputs":[],"name":"verificationReward","outputs":[{"internalType":"uint256","name":"","type":"uint256"}],"stateMutability":"view","type":"function"}],"evm":{"bytecode":{"linkReferences":{},"object":"6101606040818152346200053457620000188262000539565b600f8252602091828101916e2832b939b7b730a4a2102a37b5b2b760891b93848452815194620000488662000539565b600f8652818601528151906200005e8262000539565b6003958683526214125160ea1b8284015283516200007c8162000539565b6001808252603160f81b84830190815283516001600160401b039a92949192908b811162000434578154928684811c9416801562000529575b8885101462000513578190601f94858111620004bd575b50889085831160011462000456576000926200044a575b505060001982841b1c191690861b1781555b8651918b8311620004345760049788548781811c9116801562000429575b8982101462000414579081838695949311620003ba575b50889184116001146200034f5760009362000343575b505082861b92600019911b1c19161785555b6200015d87620007b5565b976101209889526200016f8362000979565b97610140988952519020918260e05251902061010098818a524660a052865191858301937f8b73c3c69bb8fe3d512ecc4cf759cc79239f7b179b0ffacaa9a75d522b39400f85528884015260608301524660808301523060a083015260a0825260c0820190828210908211176200032e5786525190206080523060c052600855610320601155678ac7230489e8000060125568056bc75e2d63100000601355620002193362000555565b506200022533620005d6565b50620002313362000679565b506200023d3362000717565b503315620003175760ff6009541662000308576002546a52b7d2dcc80cd2e400000092838201809211620002f357506000917fddf252ad1be2c89b69c2b068fc378daa952ba7f163c4a11628f55a4df523b3ef9160025533835282815284832084815401905584519384523393a351916121ea938462000b32853960805184611cf5015260a05184611dc1015260c05184611cbf015260e05184611d4401525183611d6a01525182610bab01525181610bd50152f35b601190634e487b7160e01b6000525260246000fd5b50905163d93c066560e01b8152fd5b506000602492519163ec442f0560e01b8352820152fd5b604186634e487b7160e01b6000525260246000fd5b01519150388062000140565b9190879450601f198416928a600052896000209360005b8b828210620003a3575050851162000388575b50505050811b01855562000152565b01519060f884600019921b161c191690553880808062000379565b8385015187558b9890960195938401930162000366565b909192935089600052886000208380870160051c8201928b88106200040a575b918a918897969594930160051c01915b828110620003fa5750506200012a565b600081558796508a9101620003ea565b92508192620003da565b60228a634e487b7160e01b6000525260246000fd5b90607f169062000113565b634e487b7160e01b600052604160045260246000fd5b015190503880620000e3565b90889350601f19831691856000528a6000209260005b8c828210620004a657505084116200048d575b505050811b018155620000f5565b015160001983861b60f8161c191690553880806200047f565b8385015186558c979095019493840193016200046c565b90915083600052886000208580850160051c8201928b861062000509575b918a91869594930160051c01915b828110620004f9575050620000cc565b600081558594508a9101620004e9565b92508192620004db565b634e487b7160e01b600052602260045260246000fd5b93607f1693620000b5565b600080fd5b604081019081106001600160401b038211176200043457604052565b6001600160a01b031660008181527f13da86008ba1c6922daee3e07db95305ef49ebced9f5467a0b8613fcc6b343e3602052604081205490919060ff16620005d257818052600a6020526040822081835260205260408220600160ff19825416179055339160008051602062002d1c8339815191528180a4600190565b5090565b6001600160a01b031660008181527f9c8843fca7ab1747e9c69e3d39849ba2c8aedc9d17b2ba460751d1b018c702ff60205260408120549091907f0f51adb3f49e4a9bbb17b3783f025995eaf8c24be2c8eefff214bdfda05ef94d9060ff166200067457808352600a6020526040832082845260205260408320600160ff1982541617905560008051602062002d1c833981519152339380a4600190565b505090565b6001600160a01b031660008181527f4ff89fc4f2a8c3e81968e251ce81a0192ce0c78211e2e4d669374e0b173baef860205260408120549091907f0ce23c3e399818cfee81a7ab0880f714e53d7672b08df0fa62f2843416e1ea099060ff166200067457808352600a6020526040832082845260205260408320600160ff1982541617905560008051602062002d1c833981519152339380a4600190565b6001600160a01b031660008181527f6c4ab3a3cc4fea3ac566afdaa38e0e471d1bdfd1aa59eb20affdabfa5e893fed60205260408120549091907f65d7a28e3265b37a6474929f336521b332c1681b933f6cb9f3376673440d862a9060ff166200067457808352600a6020526040832082845260205260408320600160ff1982541617905560008051602062002d1c833981519152339380a4600190565b8051602091908281101562000854575090601f825111620007f35780825192015190808310620007e457501790565b82600019910360031b1b161790565b90604051809263305a27a960e01b82528060048301528251908160248401526000935b8285106200083a575050604492506000838284010152601f80199101168101030190fd5b848101820151868601604401529381019385935062000816565b6001600160401b03811162000434576005928354926001938481811c911680156200096e575b838210146200051357601f811162000937575b5081601f8411600114620008cd5750928293918392600094620008c1575b50501b916000199060031b1c191617905560ff90565b015192503880620008ab565b919083601f1981168760005284600020946000905b888383106200091c575050501062000902575b505050811b01905560ff90565b015160001960f88460031b161c19169055388080620008f5565b858701518855909601959485019487935090810190620008e2565b8560005284601f846000209201871c820191601f8601881c015b828110620009615750506200088d565b6000815501859062000951565b90607f16906200087a565b80516020908181101562000a075750601f825111620009a65780825192015190808310620007e457501790565b90604051809263305a27a960e01b82528060048301528251908160248401526000935b828510620009ed575050604492506000838284010152601f80199101168101030190fd5b8481018201518686016044015293810193859350620009c9565b906001600160401b0382116200043457600654926001938481811c9116801562000b26575b838210146200051357601f811162000aec575b5081601f841160011462000a80575092829391839260009462000a74575b50501b916000199060031b1c19161760065560ff90565b01519250388062000a5d565b919083601f198116600660005284600020946000905b8883831062000ad1575050501062000ab7575b505050811b0160065560ff90565b015160001960f88460031b161c1916905538808062000aa9565b85870151885590960195948501948793509081019062000a96565b600660005284601f84600020920160051c820191601f860160051c015b82811062000b1957505062000a3f565b6000815501859062000b09565b90607f169062000a2c56fe608060408181526004918236101561001657600080fd5b600092833560e01c91826301ffc9a7146116bd5750816306fdde03146115ea578163082fa374146115cb578163095ea7b3146115a157816318160ddd146115825781631d336d621461154a57816323b872dd14611456578163248a9ca31461142b5781632e17de78146112375781632f2ff15d1461120d5781632ff2e9dc146111e7578163313ce567146111cb57816331d7a2621461119357816332cb6b0c1461116c5781633644e5151461114f57816336568abe146111095781633f4ba83a1461109f5781634d08622814611067578163567e98f9146110485781635c975abb1461102457816360acf9e414610f125781636a20de9214610e365781636d750d8014610dfb5781636f3ba88914610dcd57816370a0823114610d965781637ecebe0014610d5e5781638456cb5914610cb157816384b0196e14610b9357816391bc7d5e14610b5b57816391d1485414610b1457816393b12e5414610af557816395d89b4114610a0a5781639bfd8d61146103d4578163a217fddf146109ef578163a694fc3a14610841578163a8c478ba146107c5578163a9059cbb14610794578163b4ed30f514610665578163b5d5b5fa146105f0578163cf57ee69146105b8578163d505accf14610450578163d547741f1461040c578163dd2a8b11146103d4578163dd62ed3e1461038b578163e63ab1e914610350578163e7705db614610315578163e9c8298b146102b957508063ee1725461461029b578063f417085e1461027d5763f6c45d021461024b57600080fd5b34610279578060031936011261027957602090610272610269611750565b60243590612030565b9051908152f35b5080fd5b50346102795781600319360112610279576020906011549051908152f35b50346102795781600319360112610279576020906010549051908152f35b838334610279576020366003190112610279576001600160a01b036102dc611750565b1682526015602052808220549162278d0083018093116103025760208383519042118152f35b634e487b7160e01b815260118452602490fd5b505034610279578160031936011261027957602090517f0ce23c3e399818cfee81a7ab0880f714e53d7672b08df0fa62f2843416e1ea098152f35b505034610279578160031936011261027957602090517f65d7a28e3265b37a6474929f336521b332c1681b933f6cb9f3376673440d862a8152f35b505034610279578060031936011261027957806020926103a9611750565b6103b161176b565b6001600160a01b0391821683526001865283832091168252845220549051908152f35b5050346102795760203660031901126102795760209181906001600160a01b036103fc611750565b168152600c845220549051908152f35b9190503461044c578060031936011261044c576104489135610443600161043161176b565b93838752600a60205286200154611867565b61190d565b5080f35b8280fd5b839150346102795760e03660031901126102795761046c611750565b61047461176b565b906044359260643560843560ff811681036105b45781421161059d5760018060a01b0390818516928389526007602052898920908154916001830190558a519060208201927f6e71edae12b1b97f4d1f60370fef10105fa2faae0126114a169c64845d6126c98452868d840152858a1660608401528a608084015260a083015260c082015260c0815260e0810181811067ffffffffffffffff82111761058a578b525190206105589161054f91610529611cbc565b908c519161190160f01b83526002830152602282015260c43591604260a4359220611ba7565b90929192611c37565b1681810361056f578661056c878787611b14565b80f35b87516325c0072360e11b815292830152602482015260449150fd5b634e487b7160e01b8b526041875260248bfd5b875163313c898160e11b8152808401839052602490fd5b8680fd5b5050346102795760203660031901126102795760209181906001600160a01b036105e0611750565b168152600b845220549051908152f35b50503461027957806003193601126102795761060a611750565b6001600160a01b03168252600b60205280822080546024359390841015610662575060809261063891611781565b50908154916001810154916003600283015492015492815194855260208501528301526060820152f35b80fd5b83915034610279578260031936011261027957610680611750565b926024359167ffffffffffffffff80841161079057366023850112156107905783820135908111610790573660248286010111610790576106bf61180b565b6001600160a01b038616808652601460205283862080549195916106e29061200e565b90556012549285875260146020526001858820541461075f575b50918160609260247ff04232e906a9fa60f3dd1fd7e480db536b06b5517b57271070107667c17b33759695610731858c612130565b828751978896875280602088015286015201848401378181018301879052601f01601f19168101030190a280f35b96928060011b908082046002149015171561077d57929650816106fc565b634e487b7160e01b875260118852602487fd5b8480fd5b5050346102795780600319360112610279576020906107be6107b4611750565b6024359033611a2e565b5160018152f35b82843461066257602080600319360112610279576107e1611750565b6001600160a01b038116808452600e83528484205490949192919084905b868252600b845282822054861015610839579061083061082a84936108248989612030565b90611f9d565b9661200e565b959091506107ff565b915191825250f35b838334610279576020908160031936011261044c57833591610861611fc0565b610869611fde565b82156109bc573384528381528282852054106109835761088a833033611a2e565b338452600b8152818420601154908351916108a4836119be565b85835283830142815285840191825260608401928884528054906801000000000000000082101561097057906108df91600182018155611781565b94909461095e57917f1449c6dd7851abc30abf37f57715f492010519147cc2652fbc38202c18a6ee90969594939160039351855551600185015551600284015551910155338552600c8152818520610938858254611f9d565b905561094684600d54611f9d565b600d55815193845242908401523392a2600160085580f35b634e487b7160e01b8952888a52602489fd5b634e487b7160e01b8a5260418b5260248afd5b8490606492519162461bcd60e51b83528201526014602482015273496e73756666696369656e742062616c616e636560601b6044820152fd5b8490606492519162461bcd60e51b8352820152600e60248201526d125b9d985b1a5908185b5bdd5b9d60921b6044820152fd5b50503461027957816003193601126102795751908152602090f35b9190503461044c578260031936011261044c5780519183815490610a2d82611984565b80865292600192808416908115610aca5750600114610a6e575b610a6a8686610a58828b0383611a0c565b51918291602083526020830190611710565b0390f35b815294507f8a35acfbc15ff81a39ae7d344fd709f28e8600b4aa8c65c6b64bfe7fe36bd19b5b828610610ab257505050610a58826020610a6a958201019438610a47565b80546020878701810191909152909501948101610a94565b9050610a6a975086935060209250610a5894915060ff191682840152151560051b8201019438610a47565b5050346102795781600319360112610279576020906013549051908152f35b90503461044c578160031936011261044c578160209360ff92610b3561176b565b90358252600a86528282206001600160a01b039091168252855220549151911615158152f35b5050346102795760203660031901126102795760209181906001600160a01b03610b83611750565b1681526014845220549051908152f35b9190503461044c578260031936011261044c57610bcf7f0000000000000000000000000000000000000000000000000000000000000000611de7565b92610bf97f0000000000000000000000000000000000000000000000000000000000000000611ee3565b908251926020928385019585871067ffffffffffffffff881117610c9e57509280610c54838896610c47998b9996528686528151998a99600f60f81b8b5260e0868c015260e08b0190611710565b91898303908a0152611710565b924660608801523060808801528460a088015286840360c088015251928381520193925b828110610c8757505050500390f35b835185528695509381019392810192600101610c78565b634e487b7160e01b845260419052602483fd5b90503461044c578260031936011261044c577f65d7a28e3265b37a6474929f336521b332c1681b933f6cb9f3376673440d862a808452600a60205282842033855260205260ff838520541615610d4357837f62e78cea01bee320cd4e420270b5ea74000d11b0c9f74754ebdbfc544b05a258602085610d2e611fc0565b600160ff19600954161760095551338152a180f35b604492519163e2517d3f60e01b835233908301526024820152fd5b5050346102795760203660031901126102795760209181906001600160a01b03610d86611750565b1681526007845220549051908152f35b5050346102795760203660031901126102795760209181906001600160a01b03610dbe611750565b16815280845220549051908152f35b83903461027957606036600319011261027957610de86117b3565b3560115560243560125560443560135580f35b505034610279578160031936011261027957602090517f0f51adb3f49e4a9bbb17b3783f025995eaf8c24be2c8eefff214bdfda05ef94d8152f35b83915034610279578260031936011261027957610e51611750565b602435917f0f51adb3f49e4a9bbb17b3783f025995eaf8c24be2c8eefff214bdfda05ef94d808552600a60205285852033865260205260ff868620541615610ef557506b033b2e3c9fd0803ce8000000610ead84600254611f9d565b11610ebd57509061056c916120ca565b606490602086519162461bcd60e51b8352820152601260248201527145786365656473206d617820737570706c7960701b6044820152fd5b6044925085519163e2517d3f60e01b835233908301526024820152fd5b9190503461044c57602036600319011261044c57610f2e611750565b610f3661180b565b6001600160a01b03811680855260156020528285205490939062278d00810190811061101157421115610fce57507ff04232e906a9fa60f3dd1fd7e480db536b06b5517b57271070107667c17b337591610fa26080928587526015602052428388205560135490612130565b600b6013549180519283528060208401528201526a4d6f6e74686c79204b594360a81b6060820152a280f35b606490602084519162461bcd60e51b8352820152601e60248201527f4d6f6e74686c792072657761726420616c726561647920636c61696d656400006044820152fd5b634e487b7160e01b865260118252602486fd5b50503461027957816003193601126102795760209060ff6009541690519015158152f35b505034610279578160031936011261027957602090600d549051908152f35b5050346102795760203660031901126102795760209181906001600160a01b0361108f611750565b1681526015845220549051908152f35b90503461044c578260031936011261044c576110b96117b3565b6009549060ff8216156110fb575060ff1916600955513381527f5db9ee0a495bf2e6ff9c91a7834c1ba4fdd244a5e8aa4e537bd38aeae4b073aa90602090a180f35b8251638dfc202b60e01b8152fd5b83833461027957806003193601126102795761112361176b565b90336001600160a01b03831603611140575061044891923561190d565b5163334bd91960e11b81528390fd5b505034610279578160031936011261027957602090610272611cbc565b505034610279578160031936011261027957602090516b033b2e3c9fd0803ce80000008152f35b5050346102795760203660031901126102795760209181906001600160a01b036111bb611750565b168152600e845220549051908152f35b5050346102795781600319360112610279576020905160128152f35b505034610279578160031936011261027957602090516a52b7d2dcc80cd2e40000008152f35b9190503461044c578060031936011261044c576104489135611232600161043161176b565b61188d565b838334610279576020908160031936011261044c578335611256611fc0565b61125e611fde565b338452600b8352818420548110156113f257338452600b835261128381838620611781565b5054926112908233612030565b91338652600b8252838620908154600019928382019182116113df576112ca916112b991611781565b5091338952600b8552868920611781565b919091611392578082036113b7575b5050338652600b825283862090815480156113a45701906112fa8282611781565b6113925787985096600388827f7fc4727e062e336010f2c282598ef5f14facb3de68cf8195c2f23e1454b2b74e999a55826001820155826002820155015555338652600c815282862061134e868254612001565b905561135c85600d54612001565b600d5561136a853330611a2e565b81611383575b82519485528401523392a2600160085580f35b61138d8233612130565b611370565b634e487b7160e01b8852878952602488fd5b634e487b7160e01b885260318952602488fd5b60038181925484556001810154600185015560028101546002850155015491015587806112d9565b634e487b7160e01b895260118a52602489fd5b815162461bcd60e51b81528086018490526013602482015272092dcecc2d8d2c840e6e8c2d6ca40d2dcc8caf606b1b6044820152606490fd5b90503461044c57602036600319011261044c5781602093600192358152600a85522001549051908152f35b9050823461066257606036600319011261066257611472611750565b61147a61176b565b916044359360018060a01b0383168083526001602052868320338452602052868320549160001983106114b6575b6020886107be898989611a2e565b86831061151e5781156115075733156114f0575082526001602090815286832033845281529186902090859003905582906107be876114a8565b8751634a1406b160e11b8152908101849052602490fd5b875163e602df0560e01b8152908101849052602490fd5b8751637dc7a0d960e11b8152339181019182526020820193909352604081018790528291506060010390fd5b5050346102795760203660031901126102795760209181906001600160a01b03611572611750565b168152600f845220549051908152f35b5050346102795781600319360112610279576020906002549051908152f35b5050346102795780600319360112610279576020906107be6115c1611750565b6024359033611b14565b5050346102795781600319360112610279576020906012549051908152f35b5050346102795781600319360112610279578051908260035461160c81611984565b808552916001918083169081156116955750600114611638575b505050610a5882610a6a940383611a0c565b9450600385527fc2575a0e9e593c00f959f8c92f12db2869c3395a3b0502d05e2516446f71f85b5b82861061167d57505050610a58826020610a6a9582010194611626565b80546020878701810191909152909501948101611660565b610a6a975086935060209250610a5894915060ff191682840152151560051b82010194611626565b84913461044c57602036600319011261044c573563ffffffff60e01b811680910361044c5760209250637965db0b60e01b81149081156116ff575b5015158152f35b6301ffc9a760e01b149050836116f8565b919082519283825260005b84811061173c575050826000602080949584010152601f8019910116010190565b60208183018101518483018201520161171b565b600435906001600160a01b038216820361176657565b600080fd5b602435906001600160a01b038216820361176657565b805482101561179d5760005260206000209060021b0190600090565b634e487b7160e01b600052603260045260246000fd5b3360009081527f13da86008ba1c6922daee3e07db95305ef49ebced9f5467a0b8613fcc6b343e3602052604081205460ff16156117ed5750565b6044906040519063e2517d3f60e01b82523360048301526024820152fd5b3360009081527f4ff89fc4f2a8c3e81968e251ce81a0192ce0c78211e2e4d669374e0b173baef860205260409020547f0ce23c3e399818cfee81a7ab0880f714e53d7672b08df0fa62f2843416e1ea099060ff16156117ed5750565b80600052600a60205260406000203360005260205260ff60406000205416156117ed5750565b90600091808352600a602052604083209160018060a01b03169182845260205260ff6040842054161560001461190857808352600a6020526040832082845260205260408320600160ff198254161790557f2f8788117e7eff1d82e926ec794901d17c78024a50270940304540a733656f0d339380a4600190565b505090565b90600091808352600a602052604083209160018060a01b03169182845260205260ff60408420541660001461190857808352600a602052604083208284526020526040832060ff1981541690557ff6391f5c32d9c69d2a47ea670b442974b53935d1edc7fd64eb21e047a839171b339380a4600190565b90600182811c921680156119b4575b602083101461199e57565b634e487b7160e01b600052602260045260246000fd5b91607f1691611993565b6080810190811067ffffffffffffffff8211176119da57604052565b634e487b7160e01b600052604160045260246000fd5b6040810190811067ffffffffffffffff8211176119da57604052565b90601f8019910116810190811067ffffffffffffffff8211176119da57604052565b916001600160a01b03808416928315611afb5716928315611ae257611a51611fc0565b60009083825281602052604082205490838210611ab0575091604082827fddf252ad1be2c89b69c2b068fc378daa952ba7f163c4a11628f55a4df523b3ef958760209652828652038282205586815220818154019055604051908152a3565b60405163391434e360e21b81526001600160a01b03919091166004820152602481019190915260448101839052606490fd5b60405163ec442f0560e01b815260006004820152602490fd5b604051634b637e8f60e11b815260006004820152602490fd5b6001600160a01b03908116918215611b8e5716918215611b755760207f8c5be1e5ebec7d5bd14f71427d1e84f3dd0314c0f7b2291e5b200ac8c7c3b925918360005260018252604060002085600052825280604060002055604051908152a3565b604051634a1406b160e11b815260006004820152602490fd5b60405163e602df0560e01b815260006004820152602490fd5b91907f7fffffffffffffffffffffffffffffff5d576e7357a4501ddfe92f46681b20a08411611c2b57926020929160ff608095604051948552168484015260408301526060820152600092839182805260015afa15611c1f5780516001600160a01b03811615611c1657918190565b50809160019190565b604051903d90823e3d90fd5b50505060009160039190565b6004811015611ca65780611c49575050565b60018103611c635760405163f645eedf60e01b8152600490fd5b60028103611c845760405163fce698f760e01b815260048101839052602490fd5b600314611c8e5750565b602490604051906335e2f38360e21b82526004820152fd5b634e487b7160e01b600052602160045260246000fd5b307f00000000000000000000000000000000000000000000000000000000000000006001600160a01b03161480611dbe575b15611d17577f000000000000000000000000000000000000000000000000000000000000000090565b60405160208101907f8b73c3c69bb8fe3d512ecc4cf759cc79239f7b179b0ffacaa9a75d522b39400f82527f000000000000000000000000000000000000000000000000000000000000000060408201527f000000000000000000000000000000000000000000000000000000000000000060608201524660808201523060a082015260a0815260c0810181811067ffffffffffffffff8211176119da5760405251902090565b507f00000000000000000000000000000000000000000000000000000000000000004614611cee565b60ff8114611e255760ff811690601f8211611e135760405191611e09836119f0565b8252602082015290565b604051632cd44ac360e21b8152600490fd5b50604051600554816000611e3883611984565b80835292600190818116908115611ec15750600114611e62575b50611e5f92500382611a0c565b90565b6005600090815291507f036b6384b5eca791c62761152d0c79bb0604c104a5fb6f4eb0703f3154bb3db05b848310611ea65750611e5f935050810160200138611e52565b81935090816020925483858901015201910190918492611e8d565b905060209250611e5f94915060ff191682840152151560051b82010138611e52565b60ff8114611f055760ff811690601f8211611e135760405191611e09836119f0565b50604051600654816000611f1883611984565b80835292600190818116908115611ec15750600114611f3e5750611e5f92500382611a0c565b6006600090815291507ff652222313e28459528d920b65115c16c04f3efc82aaedc97be59f3f377c0d3f5b848310611f825750611e5f935050810160200138611e52565b81935090816020925483858901015201910190918492611f69565b91908201809211611faa57565b634e487b7160e01b600052601160045260246000fd5b60ff60095416611fcc57565b60405163d93c066560e01b8152600490fd5b600260085414611fef576002600855565b604051633ee5aeb560e01b8152600490fd5b91908203918211611faa57565b6000198114611faa5760010190565b81810292918115918404141715611faa57565b6001600160a01b03166000908152600b6020526040902080548210156120c357611e5f9161205d91611781565b506301e133806120ba604051612072816119be565b835481526127106120b46001860154958660208501526120aa6003600283015492604087019384520154976060860198895242612001565b935190519061201d565b0461201d565b04905190612001565b5050600090565b6001600160a01b0316908115611ae2577fddf252ad1be2c89b69c2b068fc378daa952ba7f163c4a11628f55a4df523b3ef6020600092612108611fc0565b61211481600254611f9d565b60025584845283825260408420818154019055604051908152a3565b90612187916b033b2e3c9fd0803ce800000061214e83600254611f9d565b1161218c5761215d82826120ca565b60018060a01b0316600052600f602052604060002061217d828254611f9d565b9055601054611f9d565b601055565b60018060a01b038116600052600e60205260406000206121ad838254611f9d565b905561215d56fea26469706673582212207ee660aa621d2f59b5474703e3a8e513041add9950382be7502bc10ebf207ed464736f6c634300081400332f8788117e7eff1d82e926ec794901d17c78024a50270940304540a733656f0d","opcodes":"PUSH2 0x160 PUSH1 0x40 DUP2 DUP2 MSTORE CALLVALUE PUSH3 0x534 JUMPI PUSH3 0x18 DUP3 PUSH3 0x539 JUMP JUMPDEST PUSH1 0xF DUP3 MSTORE PUSH1 0x20 SWAP2 DUP3 DUP2 ADD SWAP2 PUSH15 0x2832B939B7B730A4A2102A37B5B2B7 PUSH1 0x89 SHL SWAP4 DUP5 DUP5 MSTORE DUP2 MLOAD SWAP5 PUSH3 0x48 DUP7 PUSH3 0x539 JUMP JUMPDEST PUSH1 0xF DUP7 MSTORE DUP2 DUP7 ADD MSTORE DUP2 MLOAD SWAP1 PUSH3 0x5E DUP3 PUSH3 0x539 JUMP JUMPDEST PUSH1 0x3 SWAP6 DUP7 DUP4 MSTORE PUSH3 0x141251 PUSH1 0xEA SHL DUP3 DUP5 ADD MSTORE DUP4 MLOAD PUSH3 0x7C DUP2 PUSH3 0x539 JUMP JUMPDEST PUSH1 0x1 DUP1 DUP3 MSTORE PUSH1 0x31 PUSH1 0xF8 SHL DUP5 DUP4 ADD SWAP1 DUP2 MSTORE DUP4 MLOAD PUSH1 0x1 PUSH1 0x1 PUSH1 0x40 SHL SUB SWAP11 SWAP3 SWAP5 SWAP2 SWAP3 SWAP1 DUP12 DUP2 GT PUSH3 0x434 JUMPI DUP2 SLOAD SWAP3 DUP7 DUP5 DUP2 SHR SWAP5 AND DUP1 ISZERO PUSH3 0x529 JUMPI JUMPDEST DUP9 DUP6 LT EQ PUSH3 0x513 JUMPI DUP2 SWAP1 PUSH1 0x1F SWAP5 DUP6 DUP2 GT PUSH3 0x4BD JUMPI JUMPDEST POP DUP9 SWAP1 DUP6 DUP4 GT PUSH1 0x1 EQ PUSH3 0x456 JUMPI PUSH1 0x0 SWAP3 PUSH3 0x44A JUMPI JUMPDEST POP POP PUSH1 0x0 NOT DUP3 DUP5 SHL SHR NOT AND SWAP1 DUP7 SHL OR DUP2 SSTORE JUMPDEST DUP7 MLOAD SWAP2 DUP12 DUP4 GT PUSH3 0x434 JUMPI PUSH1 0x4 SWAP8 DUP9 SLOAD DUP8 DUP2 DUP2 SHR SWAP2 AND DUP1 ISZERO PUSH3 0x429 JUMPI JUMPDEST DUP10 DUP3 LT EQ PUSH3 0x414 JUMPI SWAP1 DUP2 DUP4 DUP7 SWAP6 SWAP5 SWAP4 GT PUSH3 0x3BA JUMPI JUMPDEST POP DUP9 SWAP2 DUP5 GT PUSH1 0x1 EQ PUSH3 0x34F JUMPI PUSH1 0x0 SWAP4 PUSH3 0x343 JUMPI JUMPDEST POP POP DUP3 DUP7 SHL SWAP3 PUSH1 0x0 NOT SWAP2 SHL SHR NOT AND OR DUP6 SSTORE JUMPDEST PUSH3 0x15D DUP8 PUSH3 0x7B5 JUMP JUMPDEST SWAP8 PUSH2 0x120 SWAP9 DUP10 MSTORE PUSH3 0x16F DUP4 PUSH3 0x979 JUMP JUMPDEST SWAP8 PUSH2 0x140 SWAP9 DUP10 MSTORE MLOAD SWAP1 KECCAK256 SWAP2 DUP3 PUSH1 0xE0 MSTORE MLOAD SWAP1 KECCAK256 PUSH2 0x100 SWAP9 DUP2 DUP11 MSTORE CHAINID PUSH1 0xA0 MSTORE DUP7 MLOAD SWAP2 DUP6 DUP4 ADD SWAP4 PUSH32 0x8B73C3C69BB8FE3D512ECC4CF759CC79239F7B179B0FFACAA9A75D522B39400F DUP6 MSTORE DUP9 DUP5 ADD MSTORE PUSH1 0x60 DUP4 ADD MSTORE CHAINID PUSH1 0x80 DUP4 ADD MSTORE ADDRESS PUSH1 0xA0 DUP4 ADD MSTORE PUSH1 0xA0 DUP3 MSTORE PUSH1 0xC0 DUP3 ADD SWAP1 DUP3 DUP3 LT SWAP1 DUP3 GT OR PUSH3 0x32E JUMPI DUP7 MSTORE MLOAD SWAP1 KECCAK256 PUSH1 0x80 MSTORE ADDRESS PUSH1 0xC0 MSTORE PUSH1 0x8 SSTORE PUSH2 0x320 PUSH1 0x11 SSTORE PUSH8 0x8AC7230489E80000 PUSH1 0x12 SSTORE PUSH9 0x56BC75E2D63100000 PUSH1 0x13 SSTORE PUSH3 0x219 CALLER PUSH3 0x555 JUMP JUMPDEST POP PUSH3 0x225 CALLER PUSH3 0x5D6 JUMP JUMPDEST POP PUSH3 0x231 CALLER PUSH3 0x679 JUMP JUMPDEST POP PUSH3 0x23D CALLER PUSH3 0x717 JUMP JUMPDEST POP CALLER ISZERO PUSH3 0x317 JUMPI PUSH1 0xFF PUSH1 0x9 SLOAD AND PUSH3 0x308 JUMPI PUSH1 0x2 SLOAD PUSH11 0x52B7D2DCC80CD2E4000000 SWAP3 DUP4 DUP3 ADD DUP1 SWAP3 GT PUSH3 0x2F3 JUMPI POP PUSH1 0x0 SWAP2 PUSH32 0xDDF252AD1BE2C89B69C2B068FC378DAA952BA7F163C4A11628F55A4DF523B3EF SWAP2 PUSH1 0x2 SSTORE CALLER DUP4 MSTORE DUP3 DUP2 MSTORE DUP5 DUP4 KECCAK256 DUP5 DUP2 SLOAD ADD SWAP1 SSTORE DUP5 MLOAD SWAP4 DUP5 MSTORE CALLER SWAP4 LOG3 MLOAD SWAP2 PUSH2 0x21EA SWAP4 DUP5 PUSH3 0xB32 DUP6 CODECOPY PUSH1 0x80 MLOAD DUP5 PUSH2 0x1CF5 ADD MSTORE PUSH1 0xA0 MLOAD DUP5 PUSH2 0x1DC1 ADD MSTORE PUSH1 0xC0 MLOAD DUP5 PUSH2 0x1CBF ADD MSTORE PUSH1 0xE0 MLOAD DUP5 PUSH2 0x1D44 ADD MSTORE MLOAD DUP4 PUSH2 0x1D6A ADD MSTORE MLOAD DUP3 PUSH2 0xBAB ADD MSTORE MLOAD DUP2 PUSH2 0xBD5 ADD MSTORE RETURN JUMPDEST PUSH1 0x11 SWAP1 PUSH4 0x4E487B71 PUSH1 0xE0 SHL PUSH1 0x0 MSTORE MSTORE PUSH1 0x24 PUSH1 0x0 REVERT JUMPDEST POP SWAP1 MLOAD PUSH4 0xD93C0665 PUSH1 0xE0 SHL DUP2 MSTORE REVERT JUMPDEST POP PUSH1 0x0 PUSH1 0x24 SWAP3 MLOAD SWAP2 PUSH4 0xEC442F05 PUSH1 0xE0 SHL DUP4 MSTORE DUP3 ADD MSTORE REVERT JUMPDEST PUSH1 0x41 DUP7 PUSH4 0x4E487B71 PUSH1 0xE0 SHL PUSH1 0x0 MSTORE MSTORE PUSH1 0x24 PUSH1 0x0 REVERT JUMPDEST ADD MLOAD SWAP2 POP CODESIZE DUP1 PUSH3 0x140 JUMP JUMPDEST SWAP2 SWAP1 DUP8 SWAP5 POP PUSH1 0x1F NOT DUP5 AND SWAP3 DUP11 PUSH1 0x0 MSTORE DUP10 PUSH1 0x0 KECCAK256 SWAP4 PUSH1 0x0 JUMPDEST DUP12 DUP3 DUP3 LT PUSH3 0x3A3 JUMPI POP POP DUP6 GT PUSH3 0x388 JUMPI JUMPDEST POP POP POP POP DUP2 SHL ADD DUP6 SSTORE PUSH3 0x152 JUMP JUMPDEST ADD MLOAD SWAP1 PUSH1 0xF8 DUP5 PUSH1 0x0 NOT SWAP3 SHL AND SHR NOT AND SWAP1 SSTORE CODESIZE DUP1 DUP1 DUP1 PUSH3 0x379 JUMP JUMPDEST DUP4 DUP6 ADD MLOAD DUP8 SSTORE DUP12 SWAP9 SWAP1 SWAP7 ADD SWAP6 SWAP4 DUP5 ADD SWAP4 ADD PUSH3 0x366 JUMP JUMPDEST SWAP1 SWAP2 SWAP3 SWAP4 POP DUP10 PUSH1 0x0 MSTORE DUP9 PUSH1 0x0 KECCAK256 DUP4 DUP1 DUP8 ADD PUSH1 0x5 SHR DUP3 ADD SWAP3 DUP12 DUP9 LT PUSH3 0x40A JUMPI JUMPDEST SWAP2 DUP11 SWAP2 DUP9 SWAP8 SWAP7 SWAP6 SWAP5 SWAP4 ADD PUSH1 0x5 SHR ADD SWAP2 JUMPDEST DUP3 DUP2 LT PUSH3 0x3FA JUMPI POP POP PUSH3 0x12A JUMP JUMPDEST PUSH1 0x0 DUP2 SSTORE DUP8 SWAP7 POP DUP11 SWAP2 ADD PUSH3 0x3EA JUMP JUMPDEST SWAP3 POP DUP2 SWAP3 PUSH3 0x3DA JUMP JUMPDEST PUSH1 0x22 DUP11 PUSH4 0x4E487B71 PUSH1 0xE0 SHL PUSH1 0x0 MSTORE MSTORE PUSH1 0x24 PUSH1 0x0 REVERT JUMPDEST SWAP1 PUSH1 0x7F AND SWAP1 PUSH3 0x113 JUMP JUMPDEST PUSH4 0x4E487B71 PUSH1 0xE0 SHL PUSH1 0x0 MSTORE PUSH1 0x41 PUSH1 0x4 MSTORE PUSH1 0x24 PUSH1 0x0 REVERT JUMPDEST ADD MLOAD SWAP1 POP CODESIZE DUP1 PUSH3 0xE3 JUMP JUMPDEST SWAP1 DUP9 SWAP4 POP PUSH1 0x1F NOT DUP4 AND SWAP2 DUP6 PUSH1 0x0 MSTORE DUP11 PUSH1 0x0 KECCAK256 SWAP3 PUSH1 0x0 JUMPDEST DUP13 DUP3 DUP3 LT PUSH3 0x4A6 JUMPI POP POP DUP5 GT PUSH3 0x48D JUMPI JUMPDEST POP POP POP DUP2 SHL ADD DUP2 SSTORE PUSH3 0xF5 JUMP JUMPDEST ADD MLOAD PUSH1 0x0 NOT DUP4 DUP7 SHL PUSH1 0xF8 AND SHR NOT AND SWAP1 SSTORE CODESIZE DUP1 DUP1 PUSH3 0x47F JUMP JUMPDEST DUP4 DUP6 ADD MLOAD DUP7 SSTORE DUP13 SWAP8 SWAP1 SWAP6 ADD SWAP5 SWAP4 DUP5 ADD SWAP4 ADD PUSH3 0x46C JUMP JUMPDEST SWAP1 SWAP2 POP DUP4 PUSH1 0x0 MSTORE DUP9 PUSH1 0x0 KECCAK256 DUP6 DUP1 DUP6 ADD PUSH1 0x5 SHR DUP3 ADD SWAP3 DUP12 DUP7 LT PUSH3 0x509 JUMPI JUMPDEST SWAP2 DUP11 SWAP2 DUP7 SWAP6 SWAP5 SWAP4 ADD PUSH1 0x5 SHR ADD SWAP2 JUMPDEST DUP3 DUP2 LT PUSH3 0x4F9 JUMPI POP POP PUSH3 0xCC JUMP JUMPDEST PUSH1 0x0 DUP2 SSTORE DUP6 SWAP5 POP DUP11 SWAP2 ADD PUSH3 0x4E9 JUMP JUMPDEST SWAP3 POP DUP2 SWAP3 PUSH3 0x4DB JUMP JUMPDEST PUSH4 0x4E487B71 PUSH1 0xE0 SHL PUSH1 0x0 MSTORE PUSH1 0x22 PUSH1 0x4 MSTORE PUSH1 0x24 PUSH1 0x0 REVERT JUMPDEST SWAP4 PUSH1 0x7F AND SWAP4 PUSH3 0xB5 JUMP JUMPDEST PUSH1 0x0 DUP1 REVERT JUMPDEST PUSH1 0x40 DUP2 ADD SWAP1 DUP2 LT PUSH1 0x1 PUSH1 0x1 PUSH1 0x40 SHL SUB DUP3 GT OR PUSH3 0x434 JUMPI PUSH1 0x40 MSTORE JUMP JUMPDEST PUSH1 0x1 PUSH1 0x1 PUSH1 0xA0 SHL SUB AND PUSH1 0x0 DUP2 DUP2 MSTORE PUSH32 0x13DA86008BA1C6922DAEE3E07DB95305EF49EBCED9F5467A0B8613FCC6B343E3 PUSH1 0x20 MSTORE PUSH1 0x40 DUP2 KECCAK256 SLOAD SWAP1 SWAP2 SWAP1 PUSH1 0xFF AND PUSH3 0x5D2 JUMPI DUP2 DUP1 MSTORE PUSH1 0xA PUSH1 0x20 MSTORE PUSH1 0x40 DUP3 KECCAK256 DUP2 DUP4 MSTORE PUSH1 0x20 MSTORE PUSH1 0x40 DUP3 KECCAK256 PUSH1 0x1 PUSH1 0xFF NOT DUP3 SLOAD AND OR SWAP1 SSTORE CALLER SWAP2 PUSH1 0x0 DUP1 MLOAD PUSH1 0x20 PUSH3 0x2D1C DUP4 CODECOPY DUP2 MLOAD SWAP2 MSTORE DUP2 DUP1 LOG4 PUSH1 0x1 SWAP1 JUMP JUMPDEST POP SWAP1 JUMP JUMPDEST PUSH1 0x1 PUSH1 0x1 PUSH1 0xA0 SHL SUB AND PUSH1 0x0 DUP2 DUP2 MSTORE PUSH32 0x9C8843FCA7AB1747E9C69E3D39849BA2C8AEDC9D17B2BA460751D1B018C702FF PUSH1 0x20 MSTORE PUSH1 0x40 DUP2 KECCAK256 SLOAD SWAP1 SWAP2 SWAP1 PUSH32 0xF51ADB3F49E4A9BBB17B3783F025995EAF8C24BE2C8EEFFF214BDFDA05EF94D SWAP1 PUSH1 0xFF AND PUSH3 0x674 JUMPI DUP1 DUP4 MSTORE PUSH1 0xA PUSH1 0x20 MSTORE PUSH1 0x40 DUP4 KECCAK256 DUP3 DUP5 MSTORE PUSH1 0x20 MSTORE PUSH1 0x40 DUP4 KECCAK256 PUSH1 0x1 PUSH1 0xFF NOT DUP3 SLOAD AND OR SWAP1 SSTORE PUSH1 0x0 DUP1 MLOAD PUSH1 0x20 PUSH3 0x2D1C DUP4 CODECOPY DUP2 MLOAD SWAP2 MSTORE CALLER SWAP4 DUP1 LOG4 PUSH1 0x1 SWAP1 JUMP JUMPDEST POP POP SWAP1 JUMP JUMPDEST PUSH1 0x1 PUSH1 0x1 PUSH1 0xA0 SHL SUB AND PUSH1 0x0 DUP2 DUP2 MSTORE PUSH32 0x4FF89FC4F2A8C3E81968E251CE81A0192CE0C78211E2E4D669374E0B173BAEF8 PUSH1 0x20 MSTORE PUSH1 0x40 DUP2 KECCAK256 SLOAD SWAP1 SWAP2 SWAP1 PUSH32 0xCE23C3E399818CFEE81A7AB0880F714E53D7672B08DF0FA62F2843416E1EA09 SWAP1 PUSH1 0xFF AND PUSH3 0x674 JUMPI DUP1 DUP4 MSTORE PUSH1 0xA PUSH1 0x20 MSTORE PUSH1 0x40 DUP4 KECCAK256 DUP3 DUP5 MSTORE PUSH1 0x20 MSTORE PUSH1 0x40 DUP4 KECCAK256 PUSH1 0x1 PUSH1 0xFF NOT DUP3 SLOAD AND OR SWAP1 SSTORE PUSH1 0x0 DUP1 MLOAD PUSH1 0x20 PUSH3 0x2D1C DUP4 CODECOPY DUP2 MLOAD SWAP2 MSTORE CALLER SWAP4 DUP1 LOG4 PUSH1 0x1 SWAP1 JUMP JUMPDEST PUSH1 0x1 PUSH1 0x1 PUSH1 0xA0 SHL SUB AND PUSH1 0x0 DUP2 DUP2 MSTORE PUSH32 0x6C4AB3A3CC4FEA3AC566AFDAA38E0E471D1BDFD1AA59EB20AFFDABFA5E893FED PUSH1 0x20 MSTORE PUSH1 0x40 DUP2 KECCAK256 SLOAD SWAP1 SWAP2 SWAP1 PUSH32 0x65D7A28E3265B37A6474929F336521B332C1681B933F6CB9F3376673440D862A SWAP1 PUSH1 0xFF AND PUSH3 0x674 JUMPI DUP1 DUP4 MSTORE PUSH1 0xA PUSH1 0x20 MSTORE PUSH1 0x40 DUP4 KECCAK256 DUP3 DUP5 MSTORE PUSH1 0x20 MSTORE PUSH1 0x40 DUP4 KECCAK256 PUSH1 0x1 PUSH1 0xFF NOT DUP3 SLOAD AND OR SWAP1 SSTORE PUSH1 0x0 DUP1 MLOAD PUSH1 0x20 PUSH3 0x2D1C DUP4 CODECOPY DUP2 MLOAD SWAP2 MSTORE CALLER SWAP4 DUP1 LOG4 PUSH1 0x1 SWAP1 JUMP JUMPDEST DUP1 MLOAD PUSH1 0x20 SWAP2 SWAP1 DUP3 DUP2 LT ISZERO PUSH3 0x854 JUMPI POP SWAP1 PUSH1 0x1F DUP3 MLOAD GT PUSH3 0x7F3 JUMPI DUP1 DUP3 MLOAD SWAP3 ADD MLOAD SWAP1 DUP1 DUP4 LT PUSH3 0x7E4 JUMPI POP OR SWAP1 JUMP JUMPDEST DUP3 PUSH1 0x0 NOT SWAP2 SUB PUSH1 0x3 SHL SHL AND OR SWAP1 JUMP JUMPDEST SWAP1 PUSH1 0x40 MLOAD DUP1 SWAP3 PUSH4 0x305A27A9 PUSH1 0xE0 SHL DUP3 MSTORE DUP1 PUSH1 0x4 DUP4 ADD MSTORE DUP3 MLOAD SWAP1 DUP2 PUSH1 0x24 DUP5 ADD MSTORE PUSH1 0x0 SWAP4 JUMPDEST DUP3 DUP6 LT PUSH3 0x83A JUMPI POP POP PUSH1 0x44 SWAP3 POP PUSH1 0x0 DUP4 DUP3 DUP5 ADD ADD MSTORE PUSH1 0x1F DUP1 NOT SWAP2 ADD AND DUP2 ADD SUB ADD SWAP1 REVERT JUMPDEST DUP5 DUP2 ADD DUP3 ADD MLOAD DUP7 DUP7 ADD PUSH1 0x44 ADD MSTORE SWAP4 DUP2 ADD SWAP4 DUP6 SWAP4 POP PUSH3 0x816 JUMP JUMPDEST PUSH1 0x1 PUSH1 0x1 PUSH1 0x40 SHL SUB DUP2 GT PUSH3 0x434 JUMPI PUSH1 0x5 SWAP3 DUP4 SLOAD SWAP3 PUSH1 0x1 SWAP4 DUP5 DUP2 DUP2 SHR SWAP2 AND DUP1 ISZERO PUSH3 0x96E JUMPI JUMPDEST DUP4 DUP3 LT EQ PUSH3 0x513 JUMPI PUSH1 0x1F DUP2 GT PUSH3 0x937 JUMPI JUMPDEST POP DUP2 PUSH1 0x1F DUP5 GT PUSH1 0x1 EQ PUSH3 0x8CD JUMPI POP SWAP3 DUP3 SWAP4 SWAP2 DUP4 SWAP3 PUSH1 0x0 SWAP5 PUSH3 0x8C1 JUMPI JUMPDEST POP POP SHL SWAP2 PUSH1 0x0 NOT SWAP1 PUSH1 0x3 SHL SHR NOT AND OR SWAP1 SSTORE PUSH1 0xFF SWAP1 JUMP JUMPDEST ADD MLOAD SWAP3 POP CODESIZE DUP1 PUSH3 0x8AB JUMP JUMPDEST SWAP2 SWAP1 DUP4 PUSH1 0x1F NOT DUP2 AND DUP8 PUSH1 0x0 MSTORE DUP5 PUSH1 0x0 KECCAK256 SWAP5 PUSH1 0x0 SWAP1 JUMPDEST DUP9 DUP4 DUP4 LT PUSH3 0x91C JUMPI POP POP POP LT PUSH3 0x902 JUMPI JUMPDEST POP POP POP DUP2 SHL ADD SWAP1 SSTORE PUSH1 0xFF SWAP1 JUMP JUMPDEST ADD MLOAD PUSH1 0x0 NOT PUSH1 0xF8 DUP5 PUSH1 0x3 SHL AND SHR NOT AND SWAP1 SSTORE CODESIZE DUP1 DUP1 PUSH3 0x8F5 JUMP JUMPDEST DUP6 DUP8 ADD MLOAD DUP9 SSTORE SWAP1 SWAP7 ADD SWAP6 SWAP5 DUP6 ADD SWAP5 DUP8 SWAP4 POP SWAP1 DUP2 ADD SWAP1 PUSH3 0x8E2 JUMP JUMPDEST DUP6 PUSH1 0x0 MSTORE DUP5 PUSH1 0x1F DUP5 PUSH1 0x0 KECCAK256 SWAP3 ADD DUP8 SHR DUP3 ADD SWAP2 PUSH1 0x1F DUP7 ADD DUP9 SHR ADD JUMPDEST DUP3 DUP2 LT PUSH3 0x961 JUMPI POP POP PUSH3 0x88D JUMP JUMPDEST PUSH1 0x0 DUP2 SSTORE ADD DUP6 SWAP1 PUSH3 0x951 JUMP JUMPDEST SWAP1 PUSH1 0x7F AND SWAP1 PUSH3 0x87A JUMP JUMPDEST DUP1 MLOAD PUSH1 0x20 SWAP1 DUP2 DUP2 LT ISZERO PUSH3 0xA07 JUMPI POP PUSH1 0x1F DUP3 MLOAD GT PUSH3 0x9A6 JUMPI DUP1 DUP3 MLOAD SWAP3 ADD MLOAD SWAP1 DUP1 DUP4 LT PUSH3 0x7E4 JUMPI POP OR SWAP1 JUMP JUMPDEST SWAP1 PUSH1 0x40 MLOAD DUP1 SWAP3 PUSH4 0x305A27A9 PUSH1 0xE0 SHL DUP3 MSTORE DUP1 PUSH1 0x4 DUP4 ADD MSTORE DUP3 MLOAD SWAP1 DUP2 PUSH1 0x24 DUP5 ADD MSTORE PUSH1 0x0 SWAP4 JUMPDEST DUP3 DUP6 LT PUSH3 0x9ED JUMPI POP POP PUSH1 0x44 SWAP3 POP PUSH1 0x0 DUP4 DUP3 DUP5 ADD ADD MSTORE PUSH1 0x1F DUP1 NOT SWAP2 ADD AND DUP2 ADD SUB ADD SWAP1 REVERT JUMPDEST DUP5 DUP2 ADD DUP3 ADD MLOAD DUP7 DUP7 ADD PUSH1 0x44 ADD MSTORE SWAP4 DUP2 ADD SWAP4 DUP6 SWAP4 POP PUSH3 0x9C9 JUMP JUMPDEST SWAP1 PUSH1 0x1 PUSH1 0x1 PUSH1 0x40 SHL SUB DUP3 GT PUSH3 0x434 JUMPI PUSH1 0x6 SLOAD SWAP3 PUSH1 0x1 SWAP4 DUP5 DUP2 DUP2 SHR SWAP2 AND DUP1 ISZERO PUSH3 0xB26 JUMPI JUMPDEST DUP4 DUP3 LT EQ PUSH3 0x513 JUMPI PUSH1 0x1F DUP2 GT PUSH3 0xAEC JUMPI JUMPDEST POP DUP2 PUSH1 0x1F DUP5 GT PUSH1 0x1 EQ PUSH3 0xA80 JUMPI POP SWAP3 DUP3 SWAP4 SWAP2 DUP4 SWAP3 PUSH1 0x0 SWAP5 PUSH3 0xA74 JUMPI JUMPDEST POP POP SHL SWAP2 PUSH1 0x0 NOT SWAP1 PUSH1 0x3 SHL SHR NOT AND OR PUSH1 0x6 SSTORE PUSH1 0xFF SWAP1 JUMP JUMPDEST ADD MLOAD SWAP3 POP CODESIZE DUP1 PUSH3 0xA5D JUMP JUMPDEST SWAP2 SWAP1 DUP4 PUSH1 0x1F NOT DUP2 AND PUSH1 0x6 PUSH1 0x0 MSTORE DUP5 PUSH1 0x0 KECCAK256 SWAP5 PUSH1 0x0 SWAP1 JUMPDEST DUP9 DUP4 DUP4 LT PUSH3 0xAD1 JUMPI POP POP POP LT PUSH3 0xAB7 JUMPI JUMPDEST POP POP POP DUP2 SHL ADD PUSH1 0x6 SSTORE PUSH1 0xFF SWAP1 JUMP JUMPDEST ADD MLOAD PUSH1 0x0 NOT PUSH1 0xF8 DUP5 PUSH1 0x3 SHL AND SHR NOT AND SWAP1 SSTORE CODESIZE DUP1 DUP1 PUSH3 0xAA9 JUMP JUMPDEST DUP6 DUP8 ADD MLOAD DUP9 SSTORE SWAP1 SWAP7 ADD SWAP6 SWAP5 DUP6 ADD SWAP5 DUP8 SWAP4 POP SWAP1 DUP2 ADD SWAP1 PUSH3 0xA96 JUMP JUMPDEST PUSH1 0x6 PUSH1 0x0 MSTORE DUP5 PUSH1 0x1F DUP5 PUSH1 0x0 KECCAK256 SWAP3 ADD PUSH1 0x5 SHR DUP3 ADD SWAP2 PUSH1 0x1F DUP7 ADD PUSH1 0x5 SHR ADD JUMPDEST DUP3 DUP2 LT PUSH3 0xB19 JUMPI POP POP PUSH3 0xA3F JUMP JUMPDEST PUSH1 0x0 DUP2 SSTORE ADD DUP6 SWAP1 PUSH3 0xB09 JUMP JUMPDEST SWAP1 PUSH1 0x7F AND SWAP1 PUSH3 0xA2C JUMP INVALID PUSH1 0x80 PUSH1 0x40 DUP2 DUP2 MSTORE PUSH1 0x4 SWAP2 DUP3 CALLDATASIZE LT ISZERO PUSH2 0x16 JUMPI PUSH1 0x0 DUP1 REVERT JUMPDEST PUSH1 0x0 SWAP3 DUP4 CALLDATALOAD PUSH1 0xE0 SHR SWAP2 DUP3 PUSH4 0x1FFC9A7 EQ PUSH2 0x16BD JUMPI POP DUP2 PUSH4 0x6FDDE03 EQ PUSH2 0x15EA JUMPI DUP2 PUSH4 0x82FA374 EQ PUSH2 0x15CB JUMPI DUP2 PUSH4 0x95EA7B3 EQ PUSH2 0x15A1 JUMPI DUP2 PUSH4 0x18160DDD EQ PUSH2 0x1582 JUMPI DUP2 PUSH4 0x1D336D62 EQ PUSH2 0x154A JUMPI DUP2 PUSH4 0x23B872DD EQ PUSH2 0x1456 JUMPI DUP2 PUSH4 0x248A9CA3 EQ PUSH2 0x142B JUMPI DUP2 PUSH4 0x2E17DE78 EQ PUSH2 0x1237 JUMPI DUP2 PUSH4 0x2F2FF15D EQ PUSH2 0x120D JUMPI DUP2 PUSH4 0x2FF2E9DC EQ PUSH2 0x11E7 JUMPI DUP2 PUSH4 0x313CE567 EQ PUSH2 0x11CB JUMPI DUP2 PUSH4 0x31D7A262 EQ PUSH2 0x1193 JUMPI DUP2 PUSH4 0x32CB6B0C EQ PUSH2 0x116C JUMPI DUP2 PUSH4 0x3644E515 EQ PUSH2 0x114F JUMPI DUP2 PUSH4 0x36568ABE EQ PUSH2 0x1109 JUMPI DUP2 PUSH4 0x3F4BA83A EQ PUSH2 0x109F JUMPI DUP2 PUSH4 0x4D086228 EQ PUSH2 0x1067 JUMPI DUP2 PUSH4 0x567E98F9 EQ PUSH2 0x1048 JUMPI DUP2 PUSH4 0x5C975ABB EQ PUSH2 0x1024 JUMPI DUP2 PUSH4 0x60ACF9E4 EQ PUSH2 0xF12 JUMPI DUP2 PUSH4 0x6A20DE92 EQ PUSH2 0xE36 JUMPI DUP2 PUSH4 0x6D750D80 EQ PUSH2 0xDFB JUMPI DUP2 PUSH4 0x6F3BA889 EQ PUSH2 0xDCD JUMPI DUP2 PUSH4 0x70A08231 EQ PUSH2 0xD96 JUMPI DUP2 PUSH4 0x7ECEBE00 EQ PUSH2 0xD5E JUMPI DUP2 PUSH4 0x8456CB59 EQ PUSH2 0xCB1 JUMPI DUP2 PUSH4 0x84B0196E EQ PUSH2 0xB93 JUMPI DUP2 PUSH4 0x91BC7D5E EQ PUSH2 0xB5B JUMPI DUP2 PUSH4 0x91D14854 EQ PUSH2 0xB14 JUMPI DUP2 PUSH4 0x93B12E54 EQ PUSH2 0xAF5 JUMPI DUP2 PUSH4 0x95D89B41 EQ PUSH2 0xA0A JUMPI DUP2 PUSH4 0x9BFD8D61 EQ PUSH2 0x3D4 JUMPI DUP2 PUSH4 0xA217FDDF EQ PUSH2 0x9EF JUMPI DUP2 PUSH4 0xA694FC3A EQ PUSH2 0x841 JUMPI DUP2 PUSH4 0xA8C478BA EQ PUSH2 0x7C5 JUMPI DUP2 PUSH4 0xA9059CBB EQ PUSH2 0x794 JUMPI DUP2 PUSH4 0xB4ED30F5 EQ PUSH2 0x665 JUMPI DUP2 PUSH4 0xB5D5B5FA EQ PUSH2 0x5F0 JUMPI DUP2 PUSH4 0xCF57EE69 EQ PUSH2 0x5B8 JUMPI DUP2 PUSH4 0xD505ACCF EQ PUSH2 0x450 JUMPI DUP2 PUSH4 0xD547741F EQ PUSH2 0x40C JUMPI DUP2 PUSH4 0xDD2A8B11 EQ PUSH2 0x3D4 JUMPI DUP2 PUSH4 0xDD62ED3E EQ PUSH2 0x38B JUMPI DUP2 PUSH4 0xE63AB1E9 EQ PUSH2 0x350 JUMPI DUP2 PUSH4 0xE7705DB6 EQ PUSH2 0x315 JUMPI DUP2 PUSH4 0xE9C8298B EQ PUSH2 0x2B9 JUMPI POP DUP1 PUSH4 0xEE172546 EQ PUSH2 0x29B JUMPI DUP1 PUSH4 0xF417085E EQ PUSH2 0x27D JUMPI PUSH4 0xF6C45D02 EQ PUSH2 0x24B JUMPI PUSH1 0x0 DUP1 REVERT JUMPDEST CALLVALUE PUSH2 0x279 JUMPI DUP1 PUSH1 0x3 NOT CALLDATASIZE ADD SLT PUSH2 0x279 JUMPI PUSH1 0x20 SWAP1 PUSH2 0x272 PUSH2 0x269 PUSH2 0x1750 JUMP JUMPDEST PUSH1 0x24 CALLDATALOAD SWAP1 PUSH2 0x2030 JUMP JUMPDEST SWAP1 MLOAD SWAP1 DUP2 MSTORE RETURN JUMPDEST POP DUP1 REVERT JUMPDEST POP CALLVALUE PUSH2 0x279 JUMPI DUP2 PUSH1 0x3 NOT CALLDATASIZE ADD SLT PUSH2 0x279 JUMPI PUSH1 0x20 SWAP1 PUSH1 0x11 SLOAD SWAP1 MLOAD SWAP1 DUP2 MSTORE RETURN JUMPDEST POP CALLVALUE PUSH2 0x279 JUMPI DUP2 PUSH1 0x3 NOT CALLDATASIZE ADD SLT PUSH2 0x279 JUMPI PUSH1 0x20 SWAP1 PUSH1 0x10 SLOAD SWAP1 MLOAD SWAP1 DUP2 MSTORE RETURN JUMPDEST DUP4 DUP4 CALLVALUE PUSH2 0x279 JUMPI PUSH1 0x20 CALLDATASIZE PUSH1 0x3 NOT ADD SLT PUSH2 0x279 JUMPI PUSH1 0x1 PUSH1 0x1 PUSH1 0xA0 SHL SUB PUSH2 0x2DC PUSH2 0x1750 JUMP JUMPDEST AND DUP3 MSTORE PUSH1 0x15 PUSH1 0x20 MSTORE DUP1 DUP3 KECCAK256 SLOAD SWAP2 PUSH3 0x278D00 DUP4 ADD DUP1 SWAP4 GT PUSH2 0x302 JUMPI PUSH1 0x20 DUP4 DUP4 MLOAD SWAP1 TIMESTAMP GT DUP2 MSTORE RETURN JUMPDEST PUSH4 0x4E487B71 PUSH1 0xE0 SHL DUP2 MSTORE PUSH1 0x11 DUP5 MSTORE PUSH1 0x24 SWAP1 REVERT JUMPDEST POP POP CALLVALUE PUSH2 0x279 JUMPI DUP2 PUSH1 0x3 NOT CALLDATASIZE ADD SLT PUSH2 0x279 JUMPI PUSH1 0x20 SWAP1 MLOAD PUSH32 0xCE23C3E399818CFEE81A7AB0880F714E53D7672B08DF0FA62F2843416E1EA09 DUP2 MSTORE RETURN JUMPDEST POP POP CALLVALUE PUSH2 0x279 JUMPI DUP2 PUSH1 0x3 NOT CALLDATASIZE ADD SLT PUSH2 0x279 JUMPI PUSH1 0x20 SWAP1 MLOAD PUSH32 0x65D7A28E3265B37A6474929F336521B332C1681B933F6CB9F3376673440D862A DUP2 MSTORE RETURN JUMPDEST POP POP CALLVALUE PUSH2 0x279 JUMPI DUP1 PUSH1 0x3 NOT CALLDATASIZE ADD SLT PUSH2 0x279 JUMPI DUP1 PUSH1 0x20 SWAP3 PUSH2 0x3A9 PUSH2 0x1750 JUMP JUMPDEST PUSH2 0x3B1 PUSH2 0x176B JUMP JUMPDEST PUSH1 0x1 PUSH1 0x1 PUSH1 0xA0 SHL SUB SWAP2 DUP3 AND DUP4 MSTORE PUSH1 0x1 DUP7 MSTORE DUP4 DUP4 KECCAK256 SWAP2 AND DUP3 MSTORE DUP5 MSTORE KECCAK256 SLOAD SWAP1 MLOAD SWAP1 DUP2 MSTORE RETURN JUMPDEST POP POP CALLVALUE PUSH2 0x279 JUMPI PUSH1 0x20 CALLDATASIZE PUSH1 0x3 NOT ADD SLT PUSH2 0x279 JUMPI PUSH1 0x20 SWAP2 DUP2 SWAP1 PUSH1 0x1 PUSH1 0x1 PUSH1 0xA0 SHL SUB PUSH2 0x3FC PUSH2 0x1750 JUMP JUMPDEST AND DUP2 MSTORE PUSH1 0xC DUP5 MSTORE KECCAK256 SLOAD SWAP1 MLOAD SWAP1 DUP2 MSTORE RETURN JUMPDEST SWAP2 SWAP1 POP CALLVALUE PUSH2 0x44C JUMPI DUP1 PUSH1 0x3 NOT CALLDATASIZE ADD SLT PUSH2 0x44C JUMPI PUSH2 0x448 SWAP2 CALLDATALOAD PUSH2 0x443 PUSH1 0x1 PUSH2 0x431 PUSH2 0x176B JUMP JUMPDEST SWAP4 DUP4 DUP8 MSTORE PUSH1 0xA PUSH1 0x20 MSTORE DUP7 KECCAK256 ADD SLOAD PUSH2 0x1867 JUMP JUMPDEST PUSH2 0x190D JUMP JUMPDEST POP DUP1 RETURN JUMPDEST DUP3 DUP1 REVERT JUMPDEST DUP4 SWAP2 POP CALLVALUE PUSH2 0x279 JUMPI PUSH1 0xE0 CALLDATASIZE PUSH1 0x3 NOT ADD SLT PUSH2 0x279 JUMPI PUSH2 0x46C PUSH2 0x1750 JUMP JUMPDEST PUSH2 0x474 PUSH2 0x176B JUMP JUMPDEST SWAP1 PUSH1 0x44 CALLDATALOAD SWAP3 PUSH1 0x64 CALLDATALOAD PUSH1 0x84 CALLDATALOAD PUSH1 0xFF DUP2 AND DUP2 SUB PUSH2 0x5B4 JUMPI DUP2 TIMESTAMP GT PUSH2 0x59D JUMPI PUSH1 0x1 DUP1 PUSH1 0xA0 SHL SUB SWAP1 DUP2 DUP6 AND SWAP3 DUP4 DUP10 MSTORE PUSH1 0x7 PUSH1 0x20 MSTORE DUP10 DUP10 KECCAK256 SWAP1 DUP2 SLOAD SWAP2 PUSH1 0x1 DUP4 ADD SWAP1 SSTORE DUP11 MLOAD SWAP1 PUSH1 0x20 DUP3 ADD SWAP3 PUSH32 0x6E71EDAE12B1B97F4D1F60370FEF10105FA2FAAE0126114A169C64845D6126C9 DUP5 MSTORE DUP7 DUP14 DUP5 ADD MSTORE DUP6 DUP11 AND PUSH1 0x60 DUP5 ADD MSTORE DUP11 PUSH1 0x80 DUP5 ADD MSTORE PUSH1 0xA0 DUP4 ADD MSTORE PUSH1 0xC0 DUP3 ADD MSTORE PUSH1 0xC0 DUP2 MSTORE PUSH1 0xE0 DUP2 ADD DUP2 DUP2 LT PUSH8 0xFFFFFFFFFFFFFFFF DUP3 GT OR PUSH2 0x58A JUMPI DUP12 MSTORE MLOAD SWAP1 KECCAK256 PUSH2 0x558 SWAP2 PUSH2 0x54F SWAP2 PUSH2 0x529 PUSH2 0x1CBC JUMP JUMPDEST SWAP1 DUP13 MLOAD SWAP2 PUSH2 0x1901 PUSH1 0xF0 SHL DUP4 MSTORE PUSH1 0x2 DUP4 ADD MSTORE PUSH1 0x22 DUP3 ADD MSTORE PUSH1 0xC4 CALLDATALOAD SWAP2 PUSH1 0x42 PUSH1 0xA4 CALLDATALOAD SWAP3 KECCAK256 PUSH2 0x1BA7 JUMP JUMPDEST SWAP1 SWAP3 SWAP2 SWAP3 PUSH2 0x1C37 JUMP JUMPDEST AND DUP2 DUP2 SUB PUSH2 0x56F JUMPI DUP7 PUSH2 0x56C DUP8 DUP8 DUP8 PUSH2 0x1B14 JUMP JUMPDEST DUP1 RETURN JUMPDEST DUP8 MLOAD PUSH4 0x25C00723 PUSH1 0xE1 SHL DUP2 MSTORE SWAP3 DUP4 ADD MSTORE PUSH1 0x24 DUP3 ADD MSTORE PUSH1 0x44 SWAP2 POP REVERT JUMPDEST PUSH4 0x4E487B71 PUSH1 0xE0 SHL DUP12 MSTORE PUSH1 0x41 DUP8 MSTORE PUSH1 0x24 DUP12 REVERT JUMPDEST DUP8 MLOAD PUSH4 0x313C8981 PUSH1 0xE1 SHL DUP2 MSTORE DUP1 DUP5 ADD DUP4 SWAP1 MSTORE PUSH1 0x24 SWAP1 REVERT JUMPDEST DUP7 DUP1 REVERT JUMPDEST POP POP CALLVALUE PUSH2 0x279 JUMPI PUSH1 0x20 CALLDATASIZE PUSH1 0x3 NOT ADD SLT PUSH2 0x279 JUMPI PUSH1 0x20 SWAP2 DUP2 SWAP1 PUSH1 0x1 PUSH1 0x1 PUSH1 0xA0 SHL SUB PUSH2 0x5E0 PUSH2 0x1750 JUMP JUMPDEST AND DUP2 MSTORE PUSH1 0xB DUP5 MSTORE KECCAK256 SLOAD SWAP1 MLOAD SWAP1 DUP2 MSTORE RETURN JUMPDEST POP POP CALLVALUE PUSH2 0x279 JUMPI DUP1 PUSH1 0x3 NOT CALLDATASIZE ADD SLT PUSH2 0x279 JUMPI PUSH2 0x60A PUSH2 0x1750 JUMP JUMPDEST PUSH1 0x1 PUSH1 0x1 PUSH1 0xA0 SHL SUB AND DUP3 MSTORE PUSH1 0xB PUSH1 0x20 MSTORE DUP1 DUP3 KECCAK256 DUP1 SLOAD PUSH1 0x24 CALLDATALOAD SWAP4 SWAP1 DUP5 LT ISZERO PUSH2 0x662 JUMPI POP PUSH1 0x80 SWAP3 PUSH2 0x638 SWAP2 PUSH2 0x1781 JUMP JUMPDEST POP SWAP1 DUP2 SLOAD SWAP2 PUSH1 0x1 DUP2 ADD SLOAD SWAP2 PUSH1 0x3 PUSH1 0x2 DUP4 ADD SLOAD SWAP3 ADD SLOAD SWAP3 DUP2 MLOAD SWAP5 DUP6 MSTORE PUSH1 0x20 DUP6 ADD MSTORE DUP4 ADD MSTORE PUSH1 0x60 DUP3 ADD MSTORE RETURN JUMPDEST DUP1 REVERT JUMPDEST DUP4 SWAP2 POP CALLVALUE PUSH2 0x279 JUMPI DUP3 PUSH1 0x3 NOT CALLDATASIZE ADD SLT PUSH2 0x279 JUMPI PUSH2 0x680 PUSH2 0x1750 JUMP JUMPDEST SWAP3 PUSH1 0x24 CALLDATALOAD SWAP2 PUSH8 0xFFFFFFFFFFFFFFFF DUP1 DUP5 GT PUSH2 0x790 JUMPI CALLDATASIZE PUSH1 0x23 DUP6 ADD SLT ISZERO PUSH2 0x790 JUMPI DUP4 DUP3 ADD CALLDATALOAD SWAP1 DUP2 GT PUSH2 0x790 JUMPI CALLDATASIZE PUSH1 0x24 DUP3 DUP7 ADD ADD GT PUSH2 0x790 JUMPI PUSH2 0x6BF PUSH2 0x180B JUMP JUMPDEST PUSH1 0x1 PUSH1 0x1 PUSH1 0xA0 SHL SUB DUP7 AND DUP1 DUP7 MSTORE PUSH1 0x14 PUSH1 0x20 MSTORE DUP4 DUP7 KECCAK256 DUP1 SLOAD SWAP2 SWAP6 SWAP2 PUSH2 0x6E2 SWAP1 PUSH2 0x200E JUMP JUMPDEST SWAP1 SSTORE PUSH1 0x12 SLOAD SWAP3 DUP6 DUP8 MSTORE PUSH1 0x14 PUSH1 0x20 MSTORE PUSH1 0x1 DUP6 DUP9 KECCAK256 SLOAD EQ PUSH2 0x75F JUMPI JUMPDEST POP SWAP2 DUP2 PUSH1 0x60 SWAP3 PUSH1 0x24 PUSH32 0xF04232E906A9FA60F3DD1FD7E480DB536B06B5517B57271070107667C17B3375 SWAP7 SWAP6 PUSH2 0x731 DUP6 DUP13 PUSH2 0x2130 JUMP JUMPDEST DUP3 DUP8 MLOAD SWAP8 DUP9 SWAP7 DUP8 MSTORE DUP1 PUSH1 0x20 DUP9 ADD MSTORE DUP7 ADD MSTORE ADD DUP5 DUP5 ADD CALLDATACOPY DUP2 DUP2 ADD DUP4 ADD DUP8 SWAP1 MSTORE PUSH1 0x1F ADD PUSH1 0x1F NOT AND DUP2 ADD SUB ADD SWAP1 LOG2 DUP1 RETURN JUMPDEST SWAP7 SWAP3 DUP1 PUSH1 0x1 SHL SWAP1 DUP1 DUP3 DIV PUSH1 0x2 EQ SWAP1 ISZERO OR ISZERO PUSH2 0x77D JUMPI SWAP3 SWAP7 POP DUP2 PUSH2 0x6FC JUMP JUMPDEST PUSH4 0x4E487B71 PUSH1 0xE0 SHL DUP8 MSTORE PUSH1 0x11 DUP9 MSTORE PUSH1 0x24 DUP8 REVERT JUMPDEST DUP5 DUP1 REVERT JUMPDEST POP POP CALLVALUE PUSH2 0x279 JUMPI DUP1 PUSH1 0x3 NOT CALLDATASIZE ADD SLT PUSH2 0x279 JUMPI PUSH1 0x20 SWAP1 PUSH2 0x7BE PUSH2 0x7B4 PUSH2 0x1750 JUMP JUMPDEST PUSH1 0x24 CALLDATALOAD SWAP1 CALLER PUSH2 0x1A2E JUMP JUMPDEST MLOAD PUSH1 0x1 DUP2 MSTORE RETURN JUMPDEST DUP3 DUP5 CALLVALUE PUSH2 0x662 JUMPI PUSH1 0x20 DUP1 PUSH1 0x3 NOT CALLDATASIZE ADD SLT PUSH2 0x279 JUMPI PUSH2 0x7E1 PUSH2 0x1750 JUMP JUMPDEST PUSH1 0x1 PUSH1 0x1 PUSH1 0xA0 SHL SUB DUP2 AND DUP1 DUP5 MSTORE PUSH1 0xE DUP4 MSTORE DUP5 DUP5 KECCAK256 SLOAD SWAP1 SWAP5 SWAP2 SWAP3 SWAP2 SWAP1 DUP5 SWAP1 JUMPDEST DUP7 DUP3 MSTORE PUSH1 0xB DUP5 MSTORE DUP3 DUP3 KECCAK256 SLOAD DUP7 LT ISZERO PUSH2 0x839 JUMPI SWAP1 PUSH2 0x830 PUSH2 0x82A DUP5 SWAP4 PUSH2 0x824 DUP10 DUP10 PUSH2 0x2030 JUMP JUMPDEST SWAP1 PUSH2 0x1F9D JUMP JUMPDEST SWAP7 PUSH2 0x200E JUMP JUMPDEST SWAP6 SWAP1 SWAP2 POP PUSH2 0x7FF JUMP JUMPDEST SWAP2 MLOAD SWAP2 DUP3 MSTORE POP RETURN JUMPDEST DUP4 DUP4 CALLVALUE PUSH2 0x279 JUMPI PUSH1 0x20 SWAP1 DUP2 PUSH1 0x3 NOT CALLDATASIZE ADD SLT PUSH2 0x44C JUMPI DUP4 CALLDATALOAD SWAP2 PUSH2 0x861 PUSH2 0x1FC0 JUMP JUMPDEST PUSH2 0x869 PUSH2 0x1FDE JUMP JUMPDEST DUP3 ISZERO PUSH2 0x9BC JUMPI CALLER DUP5 MSTORE DUP4 DUP2 MSTORE DUP3 DUP3 DUP6 KECCAK256 SLOAD LT PUSH2 0x983 JUMPI PUSH2 0x88A DUP4 ADDRESS CALLER PUSH2 0x1A2E JUMP JUMPDEST CALLER DUP5 MSTORE PUSH1 0xB DUP2 MSTORE DUP2 DUP5 KECCAK256 PUSH1 0x11 SLOAD SWAP1 DUP4 MLOAD SWAP2 PUSH2 0x8A4 DUP4 PUSH2 0x19BE JUMP JUMPDEST DUP6 DUP4 MSTORE DUP4 DUP4 ADD TIMESTAMP DUP2 MSTORE DUP6 DUP5 ADD SWAP2 DUP3 MSTORE PUSH1 0x60 DUP5 ADD SWAP3 DUP9 DUP5 MSTORE DUP1 SLOAD SWAP1 PUSH9 0x10000000000000000 DUP3 LT ISZERO PUSH2 0x970 JUMPI SWAP1 PUSH2 0x8DF SWAP2 PUSH1 0x1 DUP3 ADD DUP2 SSTORE PUSH2 0x1781 JUMP JUMPDEST SWAP5 SWAP1 SWAP5 PUSH2 0x95E JUMPI SWAP2 PUSH32 0x1449C6DD7851ABC30ABF37F57715F492010519147CC2652FBC38202C18A6EE90 SWAP7 SWAP6 SWAP5 SWAP4 SWAP2 PUSH1 0x3 SWAP4 MLOAD DUP6 SSTORE MLOAD PUSH1 0x1 DUP6 ADD SSTORE MLOAD PUSH1 0x2 DUP5 ADD SSTORE MLOAD SWAP2 ADD SSTORE CALLER DUP6 MSTORE PUSH1 0xC DUP2 MSTORE DUP2 DUP6 KECCAK256 PUSH2 0x938 DUP6 DUP3 SLOAD PUSH2 0x1F9D JUMP JUMPDEST SWAP1 SSTORE PUSH2 0x946 DUP5 PUSH1 0xD SLOAD PUSH2 0x1F9D JUMP JUMPDEST PUSH1 0xD SSTORE DUP2 MLOAD SWAP4 DUP5 MSTORE TIMESTAMP SWAP1 DUP5 ADD MSTORE CALLER SWAP3 LOG2 PUSH1 0x1 PUSH1 0x8 SSTORE DUP1 RETURN JUMPDEST PUSH4 0x4E487B71 PUSH1 0xE0 SHL DUP10 MSTORE DUP9 DUP11 MSTORE PUSH1 0x24 DUP10 REVERT JUMPDEST PUSH4 0x4E487B71 PUSH1 0xE0 SHL DUP11 MSTORE PUSH1 0x41 DUP12 MSTORE PUSH1 0x24 DUP11 REVERT JUMPDEST DUP5 SWAP1 PUSH1 0x64 SWAP3 MLOAD SWAP2 PUSH3 0x461BCD PUSH1 0xE5 SHL DUP4 MSTORE DUP3 ADD MSTORE PUSH1 0x14 PUSH1 0x24 DUP3 ADD MSTORE PUSH20 0x496E73756666696369656E742062616C616E6365 PUSH1 0x60 SHL PUSH1 0x44 DUP3 ADD MSTORE REVERT JUMPDEST DUP5 SWAP1 PUSH1 0x64 SWAP3 MLOAD SWAP2 PUSH3 0x461BCD PUSH1 0xE5 SHL DUP4 MSTORE DUP3 ADD MSTORE PUSH1 0xE PUSH1 0x24 DUP3 ADD MSTORE PUSH14 0x125B9D985B1A5908185B5BDD5B9D PUSH1 0x92 SHL PUSH1 0x44 DUP3 ADD MSTORE REVERT JUMPDEST POP POP CALLVALUE PUSH2 0x279 JUMPI DUP2 PUSH1 0x3 NOT CALLDATASIZE ADD SLT PUSH2 0x279 JUMPI MLOAD SWAP1 DUP2 MSTORE PUSH1 0x20 SWAP1 RETURN JUMPDEST SWAP2 SWAP1 POP CALLVALUE PUSH2 0x44C JUMPI DUP3 PUSH1 0x3 NOT CALLDATASIZE ADD SLT PUSH2 0x44C JUMPI DUP1 MLOAD SWAP2 DUP4 DUP2 SLOAD SWAP1 PUSH2 0xA2D DUP3 PUSH2 0x1984 JUMP JUMPDEST DUP1 DUP7 MSTORE SWAP3 PUSH1 0x1 SWAP3 DUP1 DUP5 AND SWAP1 DUP2 ISZERO PUSH2 0xACA JUMPI POP PUSH1 0x1 EQ PUSH2 0xA6E JUMPI JUMPDEST PUSH2 0xA6A DUP7 DUP7 PUSH2 0xA58 DUP3 DUP12 SUB DUP4 PUSH2 0x1A0C JUMP JUMPDEST MLOAD SWAP2 DUP3 SWAP2 PUSH1 0x20 DUP4 MSTORE PUSH1 0x20 DUP4 ADD SWAP1 PUSH2 0x1710 JUMP JUMPDEST SUB SWAP1 RETURN JUMPDEST DUP2 MSTORE SWAP5 POP PUSH32 0x8A35ACFBC15FF81A39AE7D344FD709F28E8600B4AA8C65C6B64BFE7FE36BD19B JUMPDEST DUP3 DUP7 LT PUSH2 0xAB2 JUMPI POP POP POP PUSH2 0xA58 DUP3 PUSH1 0x20 PUSH2 0xA6A SWAP6 DUP3 ADD ADD SWAP5 CODESIZE PUSH2 0xA47 JUMP JUMPDEST DUP1 SLOAD PUSH1 0x20 DUP8 DUP8 ADD DUP2 ADD SWAP2 SWAP1 SWAP2 MSTORE SWAP1 SWAP6 ADD SWAP5 DUP2 ADD PUSH2 0xA94 JUMP JUMPDEST SWAP1 POP PUSH2 0xA6A SWAP8 POP DUP7 SWAP4 POP PUSH1 0x20 SWAP3 POP PUSH2 0xA58 SWAP5 SWAP2 POP PUSH1 0xFF NOT AND DUP3 DUP5 ADD MSTORE ISZERO ISZERO PUSH1 0x5 SHL DUP3 ADD ADD SWAP5 CODESIZE PUSH2 0xA47 JUMP JUMPDEST POP POP CALLVALUE PUSH2 0x279 JUMPI DUP2 PUSH1 0x3 NOT CALLDATASIZE ADD SLT PUSH2 0x279 JUMPI PUSH1 0x20 SWAP1 PUSH1 0x13 SLOAD SWAP1 MLOAD SWAP1 DUP2 MSTORE RETURN JUMPDEST SWAP1 POP CALLVALUE PUSH2 0x44C JUMPI DUP2 PUSH1 0x3 NOT CALLDATASIZE ADD SLT PUSH2 0x44C JUMPI DUP2 PUSH1 0x20 SWAP4 PUSH1 0xFF SWAP3 PUSH2 0xB35 PUSH2 0x176B JUMP JUMPDEST SWAP1 CALLDATALOAD DUP3 MSTORE PUSH1 0xA DUP7 MSTORE DUP3 DUP3 KECCAK256 PUSH1 0x1 PUSH1 0x1 PUSH1 0xA0 SHL SUB SWAP1 SWAP2 AND DUP3 MSTORE DUP6 MSTORE KECCAK256 SLOAD SWAP2 MLOAD SWAP2 AND ISZERO ISZERO DUP2 MSTORE RETURN JUMPDEST POP POP CALLVALUE PUSH2 0x279 JUMPI PUSH1 0x20 CALLDATASIZE PUSH1 0x3 NOT ADD SLT PUSH2 0x279 JUMPI PUSH1 0x20 SWAP2 DUP2 SWAP1 PUSH1 0x1 PUSH1 0x1 PUSH1 0xA0 SHL SUB PUSH2 0xB83 PUSH2 0x1750 JUMP JUMPDEST AND DUP2 MSTORE PUSH1 0x14 DUP5 MSTORE KECCAK256 SLOAD SWAP1 MLOAD SWAP1 DUP2 MSTORE RETURN JUMPDEST SWAP2 SWAP1 POP CALLVALUE PUSH2 0x44C JUMPI DUP3 PUSH1 0x3 NOT CALLDATASIZE ADD SLT PUSH2 0x44C JUMPI PUSH2 0xBCF PUSH32 0x0 PUSH2 0x1DE7 JUMP JUMPDEST SWAP3 PUSH2 0xBF9 PUSH32 0x0 PUSH2 0x1EE3 JUMP JUMPDEST SWAP1 DUP3 MLOAD SWAP3 PUSH1 0x20 SWAP3 DUP4 DUP6 ADD SWAP6 DUP6 DUP8 LT PUSH8 0xFFFFFFFFFFFFFFFF DUP9 GT OR PUSH2 0xC9E JUMPI POP SWAP3 DUP1 PUSH2 0xC54 DUP4 DUP9 SWAP7 PUSH2 0xC47 SWAP10 DUP12 SWAP10 SWAP7 MSTORE DUP7 DUP7 MSTORE DUP2 MLOAD SWAP10 DUP11 SWAP10 PUSH1 0xF PUSH1 0xF8 SHL DUP12 MSTORE PUSH1 0xE0 DUP7 DUP13 ADD MSTORE PUSH1 0xE0 DUP12 ADD SWAP1 PUSH2 0x1710 JUMP JUMPDEST SWAP2 DUP10 DUP4 SUB SWAP1 DUP11 ADD MSTORE PUSH2 0x1710 JUMP JUMPDEST SWAP3 CHAINID PUSH1 0x60 DUP9 ADD MSTORE ADDRESS PUSH1 0x80 DUP9 ADD MSTORE DUP5 PUSH1 0xA0 DUP9 ADD MSTORE DUP7 DUP5 SUB PUSH1 0xC0 DUP9 ADD MSTORE MLOAD SWAP3 DUP4 DUP2 MSTORE ADD SWAP4 SWAP3 JUMPDEST DUP3 DUP2 LT PUSH2 0xC87 JUMPI POP POP POP POP SUB SWAP1 RETURN JUMPDEST DUP4 MLOAD DUP6 MSTORE DUP7 SWAP6 POP SWAP4 DUP2 ADD SWAP4 SWAP3 DUP2 ADD SWAP3 PUSH1 0x1 ADD PUSH2 0xC78 JUMP JUMPDEST PUSH4 0x4E487B71 PUSH1 0xE0 SHL DUP5 MSTORE PUSH1 0x41 SWAP1 MSTORE PUSH1 0x24 DUP4 REVERT JUMPDEST SWAP1 POP CALLVALUE PUSH2 0x44C JUMPI DUP3 PUSH1 0x3 NOT CALLDATASIZE ADD SLT PUSH2 0x44C JUMPI PUSH32 0x65D7A28E3265B37A6474929F336521B332C1681B933F6CB9F3376673440D862A DUP1 DUP5 MSTORE PUSH1 0xA PUSH1 0x20 MSTORE DUP3 DUP5 KECCAK256 CALLER DUP6 MSTORE PUSH1 0x20 MSTORE PUSH1 0xFF DUP4 DUP6 KECCAK256 SLOAD AND ISZERO PUSH2 0xD43 JUMPI DUP4 PUSH32 0x62E78CEA01BEE320CD4E420270B5EA74000D11B0C9F74754EBDBFC544B05A258 PUSH1 0x20 DUP6 PUSH2 0xD2E PUSH2 0x1FC0 JUMP JUMPDEST PUSH1 0x1 PUSH1 0xFF NOT PUSH1 0x9 SLOAD AND OR PUSH1 0x9 SSTORE MLOAD CALLER DUP2 MSTORE LOG1 DUP1 RETURN JUMPDEST PUSH1 0x44 SWAP3 MLOAD SWAP2 PUSH4 0xE2517D3F PUSH1 0xE0 SHL DUP4 MSTORE CALLER SWAP1 DUP4 ADD MSTORE PUSH1 0x24 DUP3 ADD MSTORE REVERT JUMPDEST POP POP CALLVALUE PUSH2 0x279 JUMPI PUSH1 0x20 CALLDATASIZE PUSH1 0x3 NOT ADD SLT PUSH2 0x279 JUMPI PUSH1 0x20 SWAP2 DUP2 SWAP1 PUSH1 0x1 PUSH1 0x1 PUSH1 0xA0 SHL SUB PUSH2 0xD86 PUSH2 0x1750 JUMP JUMPDEST AND DUP2 MSTORE PUSH1 0x7 DUP5 MSTORE KECCAK256 SLOAD SWAP1 MLOAD SWAP1 DUP2 MSTORE RETURN JUMPDEST POP POP CALLVALUE PUSH2 0x279 JUMPI PUSH1 0x20 CALLDATASIZE PUSH1 0x3 NOT ADD SLT PUSH2 0x279 JUMPI PUSH1 0x20 SWAP2 DUP2 SWAP1 PUSH1 0x1 PUSH1 0x1 PUSH1 0xA0 SHL SUB PUSH2 0xDBE PUSH2 0x1750 JUMP JUMPDEST AND DUP2 MSTORE DUP1 DUP5 MSTORE KECCAK256 SLOAD SWAP1 MLOAD SWAP1 DUP2 MSTORE RETURN JUMPDEST DUP4 SWAP1 CALLVALUE PUSH2 0x279 JUMPI PUSH1 0x60 CALLDATASIZE PUSH1 0x3 NOT ADD SLT PUSH2 0x279 JUMPI PUSH2 0xDE8 PUSH2 0x17B3 JUMP JUMPDEST CALLDATALOAD PUSH1 0x11 SSTORE PUSH1 0x24 CALLDATALOAD PUSH1 0x12 SSTORE PUSH1 0x44 CALLDATALOAD PUSH1 0x13 SSTORE DUP1 RETURN JUMPDEST POP POP CALLVALUE PUSH2 0x279 JUMPI DUP2 PUSH1 0x3 NOT CALLDATASIZE ADD SLT PUSH2 0x279 JUMPI PUSH1 0x20 SWAP1 MLOAD PUSH32 0xF51ADB3F49E4A9BBB17B3783F025995EAF8C24BE2C8EEFFF214BDFDA05EF94D DUP2 MSTORE RETURN JUMPDEST DUP4 SWAP2 POP CALLVALUE PUSH2 0x279 JUMPI DUP3 PUSH1 0x3 NOT CALLDATASIZE ADD SLT PUSH2 0x279 JUMPI PUSH2 0xE51 PUSH2 0x1750 JUMP JUMPDEST PUSH1 0x24 CALLDATALOAD SWAP2 PUSH32 0xF51ADB3F49E4A9BBB17B3783F025995EAF8C24BE2C8EEFFF214BDFDA05EF94D DUP1 DUP6 MSTORE PUSH1 0xA PUSH1 0x20 MSTORE DUP6 DUP6 KECCAK256 CALLER DUP7 MSTORE PUSH1 0x20 MSTORE PUSH1 0xFF DUP7 DUP7 KECCAK256 SLOAD AND ISZERO PUSH2 0xEF5 JUMPI POP PUSH12 0x33B2E3C9FD0803CE8000000 PUSH2 0xEAD DUP5 PUSH1 0x2 SLOAD PUSH2 0x1F9D JUMP JUMPDEST GT PUSH2 0xEBD JUMPI POP SWAP1 PUSH2 0x56C SWAP2 PUSH2 0x20CA JUMP JUMPDEST PUSH1 0x64 SWAP1 PUSH1 0x20 DUP7 MLOAD SWAP2 PUSH3 0x461BCD PUSH1 0xE5 SHL DUP4 MSTORE DUP3 ADD MSTORE PUSH1 0x12 PUSH1 0x24 DUP3 ADD MSTORE PUSH18 0x45786365656473206D617820737570706C79 PUSH1 0x70 SHL PUSH1 0x44 DUP3 ADD MSTORE REVERT JUMPDEST PUSH1 0x44 SWAP3 POP DUP6 MLOAD SWAP2 PUSH4 0xE2517D3F PUSH1 0xE0 SHL DUP4 MSTORE CALLER SWAP1 DUP4 ADD MSTORE PUSH1 0x24 DUP3 ADD MSTORE REVERT JUMPDEST SWAP2 SWAP1 POP CALLVALUE PUSH2 0x44C JUMPI PUSH1 0x20 CALLDATASIZE PUSH1 0x3 NOT ADD SLT PUSH2 0x44C JUMPI PUSH2 0xF2E PUSH2 0x1750 JUMP JUMPDEST PUSH2 0xF36 PUSH2 0x180B JUMP JUMPDEST PUSH1 0x1 PUSH1 0x1 PUSH1 0xA0 SHL SUB DUP2 AND DUP1 DUP6 MSTORE PUSH1 0x15 PUSH1 0x20 MSTORE DUP3 DUP6 KECCAK256 SLOAD SWAP1 SWAP4 SWAP1 PUSH3 0x278D00 DUP2 ADD SWAP1 DUP2 LT PUSH2 0x1011 JUMPI TIMESTAMP GT ISZERO PUSH2 0xFCE JUMPI POP PUSH32 0xF04232E906A9FA60F3DD1FD7E480DB536B06B5517B57271070107667C17B3375 SWAP2 PUSH2 0xFA2 PUSH1 0x80 SWAP3 DUP6 DUP8 MSTORE PUSH1 0x15 PUSH1 0x20 MSTORE TIMESTAMP DUP4 DUP9 KECCAK256 SSTORE PUSH1 0x13 SLOAD SWAP1 PUSH2 0x2130 JUMP JUMPDEST PUSH1 0xB PUSH1 0x13 SLOAD SWAP2 DUP1 MLOAD SWAP3 DUP4 MSTORE DUP1 PUSH1 0x20 DUP5 ADD MSTORE DUP3 ADD MSTORE PUSH11 0x4D6F6E74686C79204B5943 PUSH1 0xA8 SHL PUSH1 0x60 DUP3 ADD MSTORE LOG2 DUP1 RETURN JUMPDEST PUSH1 0x64 SWAP1 PUSH1 0x20 DUP5 MLOAD SWAP2 PUSH3 0x461BCD PUSH1 0xE5 SHL DUP4 MSTORE DUP3 ADD MSTORE PUSH1 0x1E PUSH1 0x24 DUP3 ADD MSTORE PUSH32 0x4D6F6E74686C792072657761726420616C726561647920636C61696D65640000 PUSH1 0x44 DUP3 ADD MSTORE REVERT JUMPDEST PUSH4 0x4E487B71 PUSH1 0xE0 SHL DUP7 MSTORE PUSH1 0x11 DUP3 MSTORE PUSH1 0x24 DUP7 REVERT JUMPDEST POP POP CALLVALUE PUSH2 0x279 JUMPI DUP2 PUSH1 0x3 NOT CALLDATASIZE ADD SLT PUSH2 0x279 JUMPI PUSH1 0x20 SWAP1 PUSH1 0xFF PUSH1 0x9 SLOAD AND SWAP1 MLOAD SWAP1 ISZERO ISZERO DUP2 MSTORE RETURN JUMPDEST POP POP CALLVALUE PUSH2 0x279 JUMPI DUP2 PUSH1 0x3 NOT CALLDATASIZE ADD SLT PUSH2 0x279 JUMPI PUSH1 0x20 SWAP1 PUSH1 0xD SLOAD SWAP1 MLOAD SWAP1 DUP2 MSTORE RETURN JUMPDEST POP POP CALLVALUE PUSH2 0x279 JUMPI PUSH1 0x20 CALLDATASIZE PUSH1 0x3 NOT ADD SLT PUSH2 0x279 JUMPI PUSH1 0x20 SWAP2 DUP2 SWAP1 PUSH1 0x1 PUSH1 0x1 PUSH1 0xA0 SHL SUB PUSH2 0x108F PUSH2 0x1750 JUMP JUMPDEST AND DUP2 MSTORE PUSH1 0x15 DUP5 MSTORE KECCAK256 SLOAD SWAP1 MLOAD SWAP1 DUP2 MSTORE RETURN JUMPDEST SWAP1 POP CALLVALUE PUSH2 0x44C JUMPI DUP3 PUSH1 0x3 NOT CALLDATASIZE ADD SLT PUSH2 0x44C JUMPI PUSH2 0x10B9 PUSH2 0x17B3 JUMP JUMPDEST PUSH1 0x9 SLOAD SWAP1 PUSH1 0xFF DUP3 AND ISZERO PUSH2 0x10FB JUMPI POP PUSH1 0xFF NOT AND PUSH1 0x9 SSTORE MLOAD CALLER DUP2 MSTORE PUSH32 0x5DB9EE0A495BF2E6FF9C91A7834C1BA4FDD244A5E8AA4E537BD38AEAE4B073AA SWAP1 PUSH1 0x20 SWAP1 LOG1 DUP1 RETURN JUMPDEST DUP3 MLOAD PUSH4 0x8DFC202B PUSH1 0xE0 SHL DUP2 MSTORE REVERT JUMPDEST DUP4 DUP4 CALLVALUE PUSH2 0x279 JUMPI DUP1 PUSH1 0x3 NOT CALLDATASIZE ADD SLT PUSH2 0x279 JUMPI PUSH2 0x1123 PUSH2 0x176B JUMP JUMPDEST SWAP1 CALLER PUSH1 0x1 PUSH1 0x1 PUSH1 0xA0 SHL SUB DUP4 AND SUB PUSH2 0x1140 JUMPI POP PUSH2 0x448 SWAP2 SWAP3 CALLDATALOAD PUSH2 0x190D JUMP JUMPDEST MLOAD PUSH4 0x334BD919 PUSH1 0xE1 SHL DUP2 MSTORE DUP4 SWAP1 REVERT JUMPDEST POP POP CALLVALUE PUSH2 0x279 JUMPI DUP2 PUSH1 0x3 NOT CALLDATASIZE ADD SLT PUSH2 0x279 JUMPI PUSH1 0x20 SWAP1 PUSH2 0x272 PUSH2 0x1CBC JUMP JUMPDEST POP POP CALLVALUE PUSH2 0x279 JUMPI DUP2 PUSH1 0x3 NOT CALLDATASIZE ADD SLT PUSH2 0x279 JUMPI PUSH1 0x20 SWAP1 MLOAD PUSH12 0x33B2E3C9FD0803CE8000000 DUP2 MSTORE RETURN JUMPDEST POP POP CALLVALUE PUSH2 0x279 JUMPI PUSH1 0x20 CALLDATASIZE PUSH1 0x3 NOT ADD SLT PUSH2 0x279 JUMPI PUSH1 0x20 SWAP2 DUP2 SWAP1 PUSH1 0x1 PUSH1 0x1 PUSH1 0xA0 SHL SUB PUSH2 0x11BB PUSH2 0x1750 JUMP JUMPDEST AND DUP2 MSTORE PUSH1 0xE DUP5 MSTORE KECCAK256 SLOAD SWAP1 MLOAD SWAP1 DUP2 MSTORE RETURN JUMPDEST POP POP CALLVALUE PUSH2 0x279 JUMPI DUP2 PUSH1 0x3 NOT CALLDATASIZE ADD SLT PUSH2 0x279 JUMPI PUSH1 0x20 SWAP1 MLOAD PUSH1 0x12 DUP2 MSTORE RETURN JUMPDEST POP POP CALLVALUE PUSH2 0x279 JUMPI DUP2 PUSH1 0x3 NOT CALLDATASIZE ADD SLT PUSH2 0x279 JUMPI PUSH1 0x20 SWAP1 MLOAD PUSH11 0x52B7D2DCC80CD2E4000000 DUP2 MSTORE RETURN JUMPDEST SWAP2 SWAP1 POP CALLVALUE PUSH2 0x44C JUMPI DUP1 PUSH1 0x3 NOT CALLDATASIZE ADD SLT PUSH2 0x44C JUMPI PUSH2 0x448 SWAP2 CALLDATALOAD PUSH2 0x1232 PUSH1 0x1 PUSH2 0x431 PUSH2 0x176B JUMP JUMPDEST PUSH2 0x188D JUMP JUMPDEST DUP4 DUP4 CALLVALUE PUSH2 0x279 JUMPI PUSH1 0x20 SWAP1 DUP2 PUSH1 0x3 NOT CALLDATASIZE ADD SLT PUSH2 0x44C JUMPI DUP4 CALLDATALOAD PUSH2 0x1256 PUSH2 0x1FC0 JUMP JUMPDEST PUSH2 0x125E PUSH2 0x1FDE JUMP JUMPDEST CALLER DUP5 MSTORE PUSH1 0xB DUP4 MSTORE DUP2 DUP5 KECCAK256 SLOAD DUP2 LT ISZERO PUSH2 0x13F2 JUMPI CALLER DUP5 MSTORE PUSH1 0xB DUP4 MSTORE PUSH2 0x1283 DUP2 DUP4 DUP7 KECCAK256 PUSH2 0x1781 JUMP JUMPDEST POP SLOAD SWAP3 PUSH2 0x1290 DUP3 CALLER PUSH2 0x2030 JUMP JUMPDEST SWAP2 CALLER DUP7 MSTORE PUSH1 0xB DUP3 MSTORE DUP4 DUP7 KECCAK256 SWAP1 DUP2 SLOAD PUSH1 0x0 NOT SWAP3 DUP4 DUP3 ADD SWAP2 DUP3 GT PUSH2 0x13DF JUMPI PUSH2 0x12CA SWAP2 PUSH2 0x12B9 SWAP2 PUSH2 0x1781 JUMP JUMPDEST POP SWAP2 CALLER DUP10 MSTORE PUSH1 0xB DUP6 MSTORE DUP7 DUP10 KECCAK256 PUSH2 0x1781 JUMP JUMPDEST SWAP2 SWAP1 SWAP2 PUSH2 0x1392 JUMPI DUP1 DUP3 SUB PUSH2 0x13B7 JUMPI JUMPDEST POP POP CALLER DUP7 MSTORE PUSH1 0xB DUP3 MSTORE DUP4 DUP7 KECCAK256 SWAP1 DUP2 SLOAD DUP1 ISZERO PUSH2 0x13A4 JUMPI ADD SWAP1 PUSH2 0x12FA DUP3 DUP3 PUSH2 0x1781 JUMP JUMPDEST PUSH2 0x1392 JUMPI DUP8 SWAP9 POP SWAP7 PUSH1 0x3 DUP9 DUP3 PUSH32 0x7FC4727E062E336010F2C282598EF5F14FACB3DE68CF8195C2F23E1454B2B74E SWAP10 SWAP11 SSTORE DUP3 PUSH1 0x1 DUP3 ADD SSTORE DUP3 PUSH1 0x2 DUP3 ADD SSTORE ADD SSTORE SSTORE CALLER DUP7 MSTORE PUSH1 0xC DUP2 MSTORE DUP3 DUP7 KECCAK256 PUSH2 0x134E DUP7 DUP3 SLOAD PUSH2 0x2001 JUMP JUMPDEST SWAP1 SSTORE PUSH2 0x135C DUP6 PUSH1 0xD SLOAD PUSH2 0x2001 JUMP JUMPDEST PUSH1 0xD SSTORE PUSH2 0x136A DUP6 CALLER ADDRESS PUSH2 0x1A2E JUMP JUMPDEST DUP2 PUSH2 0x1383 JUMPI JUMPDEST DUP3 MLOAD SWAP5 DUP6 MSTORE DUP5 ADD MSTORE CALLER SWAP3 LOG2 PUSH1 0x1 PUSH1 0x8 SSTORE DUP1 RETURN JUMPDEST PUSH2 0x138D DUP3 CALLER PUSH2 0x2130 JUMP JUMPDEST PUSH2 0x1370 JUMP JUMPDEST PUSH4 0x4E487B71 PUSH1 0xE0 SHL DUP9 MSTORE DUP8 DUP10 MSTORE PUSH1 0x24 DUP9 REVERT JUMPDEST PUSH4 0x4E487B71 PUSH1 0xE0 SHL DUP9 MSTORE PUSH1 0x31 DUP10 MSTORE PUSH1 0x24 DUP9 REVERT JUMPDEST PUSH1 0x3 DUP2 DUP2 SWAP3 SLOAD DUP5 SSTORE PUSH1 0x1 DUP2 ADD SLOAD PUSH1 0x1 DUP6 ADD SSTORE PUSH1 0x2 DUP2 ADD SLOAD PUSH1 0x2 DUP6 ADD SSTORE ADD SLOAD SWAP2 ADD SSTORE DUP8 DUP1 PUSH2 0x12D9 JUMP JUMPDEST PUSH4 0x4E487B71 PUSH1 0xE0 SHL DUP10 MSTORE PUSH1 0x11 DUP11 MSTORE PUSH1 0x24 DUP10 REVERT JUMPDEST DUP2 MLOAD PUSH3 0x461BCD PUSH1 0xE5 SHL DUP2 MSTORE DUP1 DUP7 ADD DUP5 SWAP1 MSTORE PUSH1 0x13 PUSH1 0x24 DUP3 ADD MSTORE PUSH19 0x92DCECC2D8D2C840E6E8C2D6CA40D2DCC8CAF PUSH1 0x6B SHL PUSH1 0x44 DUP3 ADD MSTORE PUSH1 0x64 SWAP1 REVERT JUMPDEST SWAP1 POP CALLVALUE PUSH2 0x44C JUMPI PUSH1 0x20 CALLDATASIZE PUSH1 0x3 NOT ADD SLT PUSH2 0x44C JUMPI DUP2 PUSH1 0x20 SWAP4 PUSH1 0x1 SWAP3 CALLDATALOAD DUP2 MSTORE PUSH1 0xA DUP6 MSTORE KECCAK256 ADD SLOAD SWAP1 MLOAD SWAP1 DUP2 MSTORE RETURN JUMPDEST SWAP1 POP DUP3 CALLVALUE PUSH2 0x662 JUMPI PUSH1 0x60 CALLDATASIZE PUSH1 0x3 NOT ADD SLT PUSH2 0x662 JUMPI PUSH2 0x1472 PUSH2 0x1750 JUMP JUMPDEST PUSH2 0x147A PUSH2 0x176B JUMP JUMPDEST SWAP2 PUSH1 0x44 CALLDATALOAD SWAP4 PUSH1 0x1 DUP1 PUSH1 0xA0 SHL SUB DUP4 AND DUP1 DUP4 MSTORE PUSH1 0x1 PUSH1 0x20 MSTORE DUP7 DUP4 KECCAK256 CALLER DUP5 MSTORE PUSH1 0x20 MSTORE DUP7 DUP4 KECCAK256 SLOAD SWAP2 PUSH1 0x0 NOT DUP4 LT PUSH2 0x14B6 JUMPI JUMPDEST PUSH1 0x20 DUP9 PUSH2 0x7BE DUP10 DUP10 DUP10 PUSH2 0x1A2E JUMP JUMPDEST DUP7 DUP4 LT PUSH2 0x151E JUMPI DUP2 ISZERO PUSH2 0x1507 JUMPI CALLER ISZERO PUSH2 0x14F0 JUMPI POP DUP3 MSTORE PUSH1 0x1 PUSH1 0x20 SWAP1 DUP2 MSTORE DUP7 DUP4 KECCAK256 CALLER DUP5 MSTORE DUP2 MSTORE SWAP2 DUP7 SWAP1 KECCAK256 SWAP1 DUP6 SWAP1 SUB SWAP1 SSTORE DUP3 SWAP1 PUSH2 0x7BE DUP8 PUSH2 0x14A8 JUMP JUMPDEST DUP8 MLOAD PUSH4 0x4A1406B1 PUSH1 0xE1 SHL DUP2 MSTORE SWAP1 DUP2 ADD DUP5 SWAP1 MSTORE PUSH1 0x24 SWAP1 REVERT JUMPDEST DUP8 MLOAD PUSH4 0xE602DF05 PUSH1 0xE0 SHL DUP2 MSTORE SWAP1 DUP2 ADD DUP5 SWAP1 MSTORE PUSH1 0x24 SWAP1 REVERT JUMPDEST DUP8 MLOAD PUSH4 0x7DC7A0D9 PUSH1 0xE1 SHL DUP2 MSTORE CALLER SWAP2 DUP2 ADD SWAP2 DUP3 MSTORE PUSH1 0x20 DUP3 ADD SWAP4 SWAP1 SWAP4 MSTORE PUSH1 0x40 DUP2 ADD DUP8 SWAP1 MSTORE DUP3 SWAP2 POP PUSH1 0x60 ADD SUB SWAP1 REVERT JUMPDEST POP POP CALLVALUE PUSH2 0x279 JUMPI PUSH1 0x20 CALLDATASIZE PUSH1 0x3 NOT ADD SLT PUSH2 0x279 JUMPI PUSH1 0x20 SWAP2 DUP2 SWAP1 PUSH1 0x1 PUSH1 0x1 PUSH1 0xA0 SHL SUB PUSH2 0x1572 PUSH2 0x1750 JUMP JUMPDEST AND DUP2 MSTORE PUSH1 0xF DUP5 MSTORE KECCAK256 SLOAD SWAP1 MLOAD SWAP1 DUP2 MSTORE RETURN JUMPDEST POP POP CALLVALUE PUSH2 0x279 JUMPI DUP2 PUSH1 0x3 NOT CALLDATASIZE ADD SLT PUSH2 0x279 JUMPI PUSH1 0x20 SWAP1 PUSH1 0x2 SLOAD SWAP1 MLOAD SWAP1 DUP2 MSTORE RETURN JUMPDEST POP POP CALLVALUE PUSH2 0x279 JUMPI DUP1 PUSH1 0x3 NOT CALLDATASIZE ADD SLT PUSH2 0x279 JUMPI PUSH1 0x20 SWAP1 PUSH2 0x7BE PUSH2 0x15C1 PUSH2 0x1750 JUMP JUMPDEST PUSH1 0x24 CALLDATALOAD SWAP1 CALLER PUSH2 0x1B14 JUMP JUMPDEST POP POP CALLVALUE PUSH2 0x279 JUMPI DUP2 PUSH1 0x3 NOT CALLDATASIZE ADD SLT PUSH2 0x279 JUMPI PUSH1 0x20 SWAP1 PUSH1 0x12 SLOAD SWAP1 MLOAD SWAP1 DUP2 MSTORE RETURN JUMPDEST POP POP CALLVALUE PUSH2 0x279 JUMPI DUP2 PUSH1 0x3 NOT CALLDATASIZE ADD SLT PUSH2 0x279 JUMPI DUP1 MLOAD SWAP1 DUP3 PUSH1 0x3 SLOAD PUSH2 0x160C DUP2 PUSH2 0x1984 JUMP JUMPDEST DUP1 DUP6 MSTORE SWAP2 PUSH1 0x1 SWAP2 DUP1 DUP4 AND SWAP1 DUP2 ISZERO PUSH2 0x1695 JUMPI POP PUSH1 0x1 EQ PUSH2 0x1638 JUMPI JUMPDEST POP POP POP PUSH2 0xA58 DUP3 PUSH2 0xA6A SWAP5 SUB DUP4 PUSH2 0x1A0C JUMP JUMPDEST SWAP5 POP PUSH1 0x3 DUP6 MSTORE PUSH32 0xC2575A0E9E593C00F959F8C92F12DB2869C3395A3B0502D05E2516446F71F85B JUMPDEST DUP3 DUP7 LT PUSH2 0x167D JUMPI POP POP POP PUSH2 0xA58 DUP3 PUSH1 0x20 PUSH2 0xA6A SWAP6 DUP3 ADD ADD SWAP5 PUSH2 0x1626 JUMP JUMPDEST DUP1 SLOAD PUSH1 0x20 DUP8 DUP8 ADD DUP2 ADD SWAP2 SWAP1 SWAP2 MSTORE SWAP1 SWAP6 ADD SWAP5 DUP2 ADD PUSH2 0x1660 JUMP JUMPDEST PUSH2 0xA6A SWAP8 POP DUP7 SWAP4 POP PUSH1 0x20 SWAP3 POP PUSH2 0xA58 SWAP5 SWAP2 POP PUSH1 0xFF NOT AND DUP3 DUP5 ADD MSTORE ISZERO ISZERO PUSH1 0x5 SHL DUP3 ADD ADD SWAP5 PUSH2 0x1626 JUMP JUMPDEST DUP5 SWAP2 CALLVALUE PUSH2 0x44C JUMPI PUSH1 0x20 CALLDATASIZE PUSH1 0x3 NOT ADD SLT PUSH2 0x44C JUMPI CALLDATALOAD PUSH4 0xFFFFFFFF PUSH1 0xE0 SHL DUP2 AND DUP1 SWAP2 SUB PUSH2 0x44C JUMPI PUSH1 0x20 SWAP3 POP PUSH4 0x7965DB0B PUSH1 0xE0 SHL DUP2 EQ SWAP1 DUP2 ISZERO PUSH2 0x16FF JUMPI JUMPDEST POP ISZERO ISZERO DUP2 MSTORE RETURN JUMPDEST PUSH4 0x1FFC9A7 PUSH1 0xE0 SHL EQ SWAP1 POP DUP4 PUSH2 0x16F8 JUMP JUMPDEST SWAP2 SWAP1 DUP3 MLOAD SWAP3 DUP4 DUP3 MSTORE PUSH1 0x0 JUMPDEST DUP5 DUP2 LT PUSH2 0x173C JUMPI POP POP DUP3 PUSH1 0x0 PUSH1 0x20 DUP1 SWAP5 SWAP6 DUP5 ADD ADD MSTORE PUSH1 0x1F DUP1 NOT SWAP2 ADD AND ADD ADD SWAP1 JUMP JUMPDEST PUSH1 0x20 DUP2 DUP4 ADD DUP2 ADD MLOAD DUP5 DUP4 ADD DUP3 ADD MSTORE ADD PUSH2 0x171B JUMP JUMPDEST PUSH1 0x4 CALLDATALOAD SWAP1 PUSH1 0x1 PUSH1 0x1 PUSH1 0xA0 SHL SUB DUP3 AND DUP3 SUB PUSH2 0x1766 JUMPI JUMP JUMPDEST PUSH1 0x0 DUP1 REVERT JUMPDEST PUSH1 0x24 CALLDATALOAD SWAP1 PUSH1 0x1 PUSH1 0x1 PUSH1 0xA0 SHL SUB DUP3 AND DUP3 SUB PUSH2 0x1766 JUMPI JUMP JUMPDEST DUP1 SLOAD DUP3 LT ISZERO PUSH2 0x179D JUMPI PUSH1 0x0 MSTORE PUSH1 0x20 PUSH1 0x0 KECCAK256 SWAP1 PUSH1 0x2 SHL ADD SWAP1 PUSH1 0x0 SWAP1 JUMP JUMPDEST PUSH4 0x4E487B71 PUSH1 0xE0 SHL PUSH1 0x0 MSTORE PUSH1 0x32 PUSH1 0x4 MSTORE PUSH1 0x24 PUSH1 0x0 REVERT JUMPDEST CALLER PUSH1 0x0 SWAP1 DUP2 MSTORE PUSH32 0x13DA86008BA1C6922DAEE3E07DB95305EF49EBCED9F5467A0B8613FCC6B343E3 PUSH1 0x20 MSTORE PUSH1 0x40 DUP2 KECCAK256 SLOAD PUSH1 0xFF AND ISZERO PUSH2 0x17ED JUMPI POP JUMP JUMPDEST PUSH1 0x44 SWAP1 PUSH1 0x40 MLOAD SWAP1 PUSH4 0xE2517D3F PUSH1 0xE0 SHL DUP3 MSTORE CALLER PUSH1 0x4 DUP4 ADD MSTORE PUSH1 0x24 DUP3 ADD MSTORE REVERT JUMPDEST CALLER PUSH1 0x0 SWAP1 DUP2 MSTORE PUSH32 0x4FF89FC4F2A8C3E81968E251CE81A0192CE0C78211E2E4D669374E0B173BAEF8 PUSH1 0x20 MSTORE PUSH1 0x40 SWAP1 KECCAK256 SLOAD PUSH32 0xCE23C3E399818CFEE81A7AB0880F714E53D7672B08DF0FA62F2843416E1EA09 SWAP1 PUSH1 0xFF AND ISZERO PUSH2 0x17ED JUMPI POP JUMP JUMPDEST DUP1 PUSH1 0x0 MSTORE PUSH1 0xA PUSH1 0x20 MSTORE PUSH1 0x40 PUSH1 0x0 KECCAK256 CALLER PUSH1 0x0 MSTORE PUSH1 0x20 MSTORE PUSH1 0xFF PUSH1 0x40 PUSH1 0x0 KECCAK256 SLOAD AND ISZERO PUSH2 0x17ED JUMPI POP JUMP JUMPDEST SWAP1 PUSH1 0x0 SWAP2 DUP1 DUP4 MSTORE PUSH1 0xA PUSH1 0x20 MSTORE PUSH1 0x40 DUP4 KECCAK256 SWAP2 PUSH1 0x1 DUP1 PUSH1 0xA0 SHL SUB AND SWAP2 DUP3 DUP5 MSTORE PUSH1 0x20 MSTORE PUSH1 0xFF PUSH1 0x40 DUP5 KECCAK256 SLOAD AND ISZERO PUSH1 0x0 EQ PUSH2 0x1908 JUMPI DUP1 DUP4 MSTORE PUSH1 0xA PUSH1 0x20 MSTORE PUSH1 0x40 DUP4 KECCAK256 DUP3 DUP5 MSTORE PUSH1 0x20 MSTORE PUSH1 0x40 DUP4 KECCAK256 PUSH1 0x1 PUSH1 0xFF NOT DUP3 SLOAD AND OR SWAP1 SSTORE PUSH32 0x2F8788117E7EFF1D82E926EC794901D17C78024A50270940304540A733656F0D CALLER SWAP4 DUP1 LOG4 PUSH1 0x1 SWAP1 JUMP JUMPDEST POP POP SWAP1 JUMP JUMPDEST SWAP1 PUSH1 0x0 SWAP2 DUP1 DUP4 MSTORE PUSH1 0xA PUSH1 0x20 MSTORE PUSH1 0x40 DUP4 KECCAK256 SWAP2 PUSH1 0x1 DUP1 PUSH1 0xA0 SHL SUB AND SWAP2 DUP3 DUP5 MSTORE PUSH1 0x20 MSTORE PUSH1 0xFF PUSH1 0x40 DUP5 KECCAK256 SLOAD AND PUSH1 0x0 EQ PUSH2 0x1908 JUMPI DUP1 DUP4 MSTORE PUSH1 0xA PUSH1 0x20 MSTORE PUSH1 0x40 DUP4 KECCAK256 DUP3 DUP5 MSTORE PUSH1 0x20 MSTORE PUSH1 0x40 DUP4 KECCAK256 PUSH1 0xFF NOT DUP2 SLOAD AND SWAP1 SSTORE PUSH32 0xF6391F5C32D9C69D2A47EA670B442974B53935D1EDC7FD64EB21E047A839171B CALLER SWAP4 DUP1 LOG4 PUSH1 0x1 SWAP1 JUMP JUMPDEST SWAP1 PUSH1 0x1 DUP3 DUP2 SHR SWAP3 AND DUP1 ISZERO PUSH2 0x19B4 JUMPI JUMPDEST PUSH1 0x20 DUP4 LT EQ PUSH2 0x199E JUMPI JUMP JUMPDEST PUSH4 0x4E487B71 PUSH1 0xE0 SHL PUSH1 0x0 MSTORE PUSH1 0x22 PUSH1 0x4 MSTORE PUSH1 0x24 PUSH1 0x0 REVERT JUMPDEST SWAP2 PUSH1 0x7F AND SWAP2 PUSH2 0x1993 JUMP JUMPDEST PUSH1 0x80 DUP2 ADD SWAP1 DUP2 LT PUSH8 0xFFFFFFFFFFFFFFFF DUP3 GT OR PUSH2 0x19DA JUMPI PUSH1 0x40 MSTORE JUMP JUMPDEST PUSH4 0x4E487B71 PUSH1 0xE0 SHL PUSH1 0x0 MSTORE PUSH1 0x41 PUSH1 0x4 MSTORE PUSH1 0x24 PUSH1 0x0 REVERT JUMPDEST PUSH1 0x40 DUP2 ADD SWAP1 DUP2 LT PUSH8 0xFFFFFFFFFFFFFFFF DUP3 GT OR PUSH2 0x19DA JUMPI PUSH1 0x40 MSTORE JUMP JUMPDEST SWAP1 PUSH1 0x1F DUP1 NOT SWAP2 ADD AND DUP2 ADD SWAP1 DUP2 LT PUSH8 0xFFFFFFFFFFFFFFFF DUP3 GT OR PUSH2 0x19DA JUMPI PUSH1 0x40 MSTORE JUMP JUMPDEST SWAP2 PUSH1 0x1 PUSH1 0x1 PUSH1 0xA0 SHL SUB DUP1 DUP5 AND SWAP3 DUP4 ISZERO PUSH2 0x1AFB JUMPI AND SWAP3 DUP4 ISZERO PUSH2 0x1AE2 JUMPI PUSH2 0x1A51 PUSH2 0x1FC0 JUMP JUMPDEST PUSH1 0x0 SWAP1 DUP4 DUP3 MSTORE DUP2 PUSH1 0x20 MSTORE PUSH1 0x40 DUP3 KECCAK256 SLOAD SWAP1 DUP4 DUP3 LT PUSH2 0x1AB0 JUMPI POP SWAP2 PUSH1 0x40 DUP3 DUP3 PUSH32 0xDDF252AD1BE2C89B69C2B068FC378DAA952BA7F163C4A11628F55A4DF523B3EF SWAP6 DUP8 PUSH1 0x20 SWAP7 MSTORE DUP3 DUP7 MSTORE SUB DUP3 DUP3 KECCAK256 SSTORE DUP7 DUP2 MSTORE KECCAK256 DUP2 DUP2 SLOAD ADD SWAP1 SSTORE PUSH1 0x40 MLOAD SWAP1 DUP2 MSTORE LOG3 JUMP JUMPDEST PUSH1 0x40 MLOAD PUSH4 0x391434E3 PUSH1 0xE2 SHL DUP2 MSTORE PUSH1 0x1 PUSH1 0x1 PUSH1 0xA0 SHL SUB SWAP2 SWAP1 SWAP2 AND PUSH1 0x4 DUP3 ADD MSTORE PUSH1 0x24 DUP2 ADD SWAP2 SWAP1 SWAP2 MSTORE PUSH1 0x44 DUP2 ADD DUP4 SWAP1 MSTORE PUSH1 0x64 SWAP1 REVERT JUMPDEST PUSH1 0x40 MLOAD PUSH4 0xEC442F05 PUSH1 0xE0 SHL DUP2 MSTORE PUSH1 0x0 PUSH1 0x4 DUP3 ADD MSTORE PUSH1 0x24 SWAP1 REVERT JUMPDEST PUSH1 0x40 MLOAD PUSH4 0x4B637E8F PUSH1 0xE1 SHL DUP2 MSTORE PUSH1 0x0 PUSH1 0x4 DUP3 ADD MSTORE PUSH1 0x24 SWAP1 REVERT JUMPDEST PUSH1 0x1 PUSH1 0x1 PUSH1 0xA0 SHL SUB SWAP1 DUP2 AND SWAP2 DUP3 ISZERO PUSH2 0x1B8E JUMPI AND SWAP2 DUP3 ISZERO PUSH2 0x1B75 JUMPI PUSH1 0x20 PUSH32 0x8C5BE1E5EBEC7D5BD14F71427D1E84F3DD0314C0F7B2291E5B200AC8C7C3B925 SWAP2 DUP4 PUSH1 0x0 MSTORE PUSH1 0x1 DUP3 MSTORE PUSH1 0x40 PUSH1 0x0 KECCAK256 DUP6 PUSH1 0x0 MSTORE DUP3 MSTORE DUP1 PUSH1 0x40 PUSH1 0x0 KECCAK256 SSTORE PUSH1 0x40 MLOAD SWAP1 DUP2 MSTORE LOG3 JUMP JUMPDEST PUSH1 0x40 MLOAD PUSH4 0x4A1406B1 PUSH1 0xE1 SHL DUP2 MSTORE PUSH1 0x0 PUSH1 0x4 DUP3 ADD MSTORE PUSH1 0x24 SWAP1 REVERT JUMPDEST PUSH1 0x40 MLOAD PUSH4 0xE602DF05 PUSH1 0xE0 SHL DUP2 MSTORE PUSH1 0x0 PUSH1 0x4 DUP3 ADD MSTORE PUSH1 0x24 SWAP1 REVERT JUMPDEST SWAP2 SWAP1 PUSH32 0x7FFFFFFFFFFFFFFFFFFFFFFFFFFFFFFF5D576E7357A4501DDFE92F46681B20A0 DUP5 GT PUSH2 0x1C2B JUMPI SWAP3 PUSH1 0x20 SWAP3 SWAP2 PUSH1 0xFF PUSH1 0x80 SWAP6 PUSH1 0x40 MLOAD SWAP5 DUP6 MSTORE AND DUP5 DUP5 ADD MSTORE PUSH1 0x40 DUP4 ADD MSTORE PUSH1 0x60 DUP3 ADD MSTORE PUSH1 0x0 SWAP3 DUP4 SWAP2 DUP3 DUP1 MSTORE PUSH1 0x1 GAS STATICCALL ISZERO PUSH2 0x1C1F JUMPI DUP1 MLOAD PUSH1 0x1 PUSH1 0x1 PUSH1 0xA0 SHL SUB DUP2 AND ISZERO PUSH2 0x1C16 JUMPI SWAP2 DUP2 SWAP1 JUMP JUMPDEST POP DUP1 SWAP2 PUSH1 0x1 SWAP2 SWAP1 JUMP JUMPDEST PUSH1 0x40 MLOAD SWAP1 RETURNDATASIZE SWAP1 DUP3 RETURNDATACOPY RETURNDATASIZE SWAP1 REVERT JUMPDEST POP POP POP PUSH1 0x0 SWAP2 PUSH1 0x3 SWAP2 SWAP1 JUMP JUMPDEST PUSH1 0x4 DUP2 LT ISZERO PUSH2 0x1CA6 JUMPI DUP1 PUSH2 0x1C49 JUMPI POP POP JUMP JUMPDEST PUSH1 0x1 DUP2 SUB PUSH2 0x1C63 JUMPI PUSH1 0x40 MLOAD PUSH4 0xF645EEDF PUSH1 0xE0 SHL DUP2 MSTORE PUSH1 0x4 SWAP1 REVERT JUMPDEST PUSH1 0x2 DUP2 SUB PUSH2 0x1C84 JUMPI PUSH1 0x40 MLOAD PUSH4 0xFCE698F7 PUSH1 0xE0 SHL DUP2 MSTORE PUSH1 0x4 DUP2 ADD DUP4 SWAP1 MSTORE PUSH1 0x24 SWAP1 REVERT JUMPDEST PUSH1 0x3 EQ PUSH2 0x1C8E JUMPI POP JUMP JUMPDEST PUSH1 0x24 SWAP1 PUSH1 0x40 MLOAD SWAP1 PUSH4 0x35E2F383 PUSH1 0xE2 SHL DUP3 MSTORE PUSH1 0x4 DUP3 ADD MSTORE REVERT JUMPDEST PUSH4 0x4E487B71 PUSH1 0xE0 SHL PUSH1 0x0 MSTORE PUSH1 0x21 PUSH1 0x4 MSTORE PUSH1 0x24 PUSH1 0x0 REVERT JUMPDEST ADDRESS PUSH32 0x0 PUSH1 0x1 PUSH1 0x1 PUSH1 0xA0 SHL SUB AND EQ DUP1 PUSH2 0x1DBE JUMPI JUMPDEST ISZERO PUSH2 0x1D17 JUMPI PUSH32 0x0 SWAP1 JUMP JUMPDEST PUSH1 0x40 MLOAD PUSH1 0x20 DUP2 ADD SWAP1 PUSH32 0x8B73C3C69BB8FE3D512ECC4CF759CC79239F7B179B0FFACAA9A75D522B39400F DUP3 MSTORE PUSH32 0x0 PUSH1 0x40 DUP3 ADD MSTORE PUSH32 0x0 PUSH1 0x60 DUP3 ADD MSTORE CHAINID PUSH1 0x80 DUP3 ADD MSTORE ADDRESS PUSH1 0xA0 DUP3 ADD MSTORE PUSH1 0xA0 DUP2 MSTORE PUSH1 0xC0 DUP2 ADD DUP2 DUP2 LT PUSH8 0xFFFFFFFFFFFFFFFF DUP3 GT OR PUSH2 0x19DA JUMPI PUSH1 0x40 MSTORE MLOAD SWAP1 KECCAK256 SWAP1 JUMP JUMPDEST POP PUSH32 0x0 CHAINID EQ PUSH2 0x1CEE JUMP JUMPDEST PUSH1 0xFF DUP2 EQ PUSH2 0x1E25 JUMPI PUSH1 0xFF DUP2 AND SWAP1 PUSH1 0x1F DUP3 GT PUSH2 0x1E13 JUMPI PUSH1 0x40 MLOAD SWAP2 PUSH2 0x1E09 DUP4 PUSH2 0x19F0 JUMP JUMPDEST DUP3 MSTORE PUSH1 0x20 DUP3 ADD MSTORE SWAP1 JUMP JUMPDEST PUSH1 0x40 MLOAD PUSH4 0x2CD44AC3 PUSH1 0xE2 SHL DUP2 MSTORE PUSH1 0x4 SWAP1 REVERT JUMPDEST POP PUSH1 0x40 MLOAD PUSH1 0x5 SLOAD DUP2 PUSH1 0x0 PUSH2 0x1E38 DUP4 PUSH2 0x1984 JUMP JUMPDEST DUP1 DUP4 MSTORE SWAP3 PUSH1 0x1 SWAP1 DUP2 DUP2 AND SWAP1 DUP2 ISZERO PUSH2 0x1EC1 JUMPI POP PUSH1 0x1 EQ PUSH2 0x1E62 JUMPI JUMPDEST POP PUSH2 0x1E5F SWAP3 POP SUB DUP3 PUSH2 0x1A0C JUMP JUMPDEST SWAP1 JUMP JUMPDEST PUSH1 0x5 PUSH1 0x0 SWAP1 DUP2 MSTORE SWAP2 POP PUSH32 0x36B6384B5ECA791C62761152D0C79BB0604C104A5FB6F4EB0703F3154BB3DB0 JUMPDEST DUP5 DUP4 LT PUSH2 0x1EA6 JUMPI POP PUSH2 0x1E5F SWAP4 POP POP DUP2 ADD PUSH1 0x20 ADD CODESIZE PUSH2 0x1E52 JUMP JUMPDEST DUP2 SWAP4 POP SWAP1 DUP2 PUSH1 0x20 SWAP3 SLOAD DUP4 DUP6 DUP10 ADD ADD MSTORE ADD SWAP2 ADD SWAP1 SWAP2 DUP5 SWAP3 PUSH2 0x1E8D JUMP JUMPDEST SWAP1 POP PUSH1 0x20 SWAP3 POP PUSH2 0x1E5F SWAP5 SWAP2 POP PUSH1 0xFF NOT AND DUP3 DUP5 ADD MSTORE ISZERO ISZERO PUSH1 0x5 SHL DUP3 ADD ADD CODESIZE PUSH2 0x1E52 JUMP JUMPDEST PUSH1 0xFF DUP2 EQ PUSH2 0x1F05 JUMPI PUSH1 0xFF DUP2 AND SWAP1 PUSH1 0x1F DUP3 GT PUSH2 0x1E13 JUMPI PUSH1 0x40 MLOAD SWAP2 PUSH2 0x1E09 DUP4 PUSH2 0x19F0 JUMP JUMPDEST POP PUSH1 0x40 MLOAD PUSH1 0x6 SLOAD DUP2 PUSH1 0x0 PUSH2 0x1F18 DUP4 PUSH2 0x1984 JUMP JUMPDEST DUP1 DUP4 MSTORE SWAP3 PUSH1 0x1 SWAP1 DUP2 DUP2 AND SWAP1 DUP2 ISZERO PUSH2 0x1EC1 JUMPI POP PUSH1 0x1 EQ PUSH2 0x1F3E JUMPI POP PUSH2 0x1E5F SWAP3 POP SUB DUP3 PUSH2 0x1A0C JUMP JUMPDEST PUSH1 0x6 PUSH1 0x0 SWAP1 DUP2 MSTORE SWAP2 POP PUSH32 0xF652222313E28459528D920B65115C16C04F3EFC82AAEDC97BE59F3F377C0D3F JUMPDEST DUP5 DUP4 LT PUSH2 0x1F82 JUMPI POP PUSH2 0x1E5F SWAP4 POP POP DUP2 ADD PUSH1 0x20 ADD CODESIZE PUSH2 0x1E52 JUMP JUMPDEST DUP2 SWAP4 POP SWAP1 DUP2 PUSH1 0x20 SWAP3 SLOAD DUP4 DUP6 DUP10 ADD ADD MSTORE ADD SWAP2 ADD SWAP1 SWAP2 DUP5 SWAP3 PUSH2 0x1F69 JUMP JUMPDEST SWAP2 SWAP1 DUP3 ADD DUP1 SWAP3 GT PUSH2 0x1FAA JUMPI JUMP JUMPDEST PUSH4 0x4E487B71 PUSH1 0xE0 SHL PUSH1 0x0 MSTORE PUSH1 0x11 PUSH1 0x4 MSTORE PUSH1 0x24 PUSH1 0x0 REVERT JUMPDEST PUSH1 0xFF PUSH1 0x9 SLOAD AND PUSH2 0x1FCC JUMPI JUMP JUMPDEST PUSH1 0x40 MLOAD PUSH4 0xD93C0665 PUSH1 0xE0 SHL DUP2 MSTORE PUSH1 0x4 SWAP1 REVERT JUMPDEST PUSH1 0x2 PUSH1 0x8 SLOAD EQ PUSH2 0x1FEF JUMPI PUSH1 0x2 PUSH1 0x8 SSTORE JUMP JUMPDEST PUSH1 0x40 MLOAD PUSH4 0x3EE5AEB5 PUSH1 0xE0 SHL DUP2 MSTORE PUSH1 0x4 SWAP1 REVERT JUMPDEST SWAP2 SWAP1 DUP3 SUB SWAP2 DUP3 GT PUSH2 0x1FAA JUMPI JUMP JUMPDEST PUSH1 0x0 NOT DUP2 EQ PUSH2 0x1FAA JUMPI PUSH1 0x1 ADD SWAP1 JUMP JUMPDEST DUP2 DUP2 MUL SWAP3 SWAP2 DUP2 ISZERO SWAP2 DUP5 DIV EQ OR ISZERO PUSH2 0x1FAA JUMPI JUMP JUMPDEST PUSH1 0x1 PUSH1 0x1 PUSH1 0xA0 SHL SUB AND PUSH1 0x0 SWAP1 DUP2 MSTORE PUSH1 0xB PUSH1 0x20 MSTORE PUSH1 0x40 SWAP1 KECCAK256 DUP1 SLOAD DUP3 LT ISZERO PUSH2 0x20C3 JUMPI PUSH2 0x1E5F SWAP2 PUSH2 0x205D SWAP2 PUSH2 0x1781 JUMP JUMPDEST POP PUSH4 0x1E13380 PUSH2 0x20BA PUSH1 0x40 MLOAD PUSH2 0x2072 DUP2 PUSH2 0x19BE JUMP JUMPDEST DUP4 SLOAD DUP2 MSTORE PUSH2 0x2710 PUSH2 0x20B4 PUSH1 0x1 DUP7 ADD SLOAD SWAP6 DUP7 PUSH1 0x20 DUP6 ADD MSTORE PUSH2 0x20AA PUSH1 0x3 PUSH1 0x2 DUP4 ADD SLOAD SWAP3 PUSH1 0x40 DUP8 ADD SWAP4 DUP5 MSTORE ADD SLOAD SWAP8 PUSH1 0x60 DUP7 ADD SWAP9 DUP10 MSTORE TIMESTAMP PUSH2 0x2001 JUMP JUMPDEST SWAP4 MLOAD SWAP1 MLOAD SWAP1 PUSH2 0x201D JUMP JUMPDEST DIV PUSH2 0x201D JUMP JUMPDEST DIV SWAP1 MLOAD SWAP1 PUSH2 0x2001 JUMP JUMPDEST POP POP PUSH1 0x0 SWAP1 JUMP JUMPDEST PUSH1 0x1 PUSH1 0x1 PUSH1 0xA0 SHL SUB AND SWAP1 DUP2 ISZERO PUSH2 0x1AE2 JUMPI PUSH32 0xDDF252AD1BE2C89B69C2B068FC378DAA952BA7F163C4A11628F55A4DF523B3EF PUSH1 0x20 PUSH1 0x0 SWAP3 PUSH2 0x2108 PUSH2 0x1FC0 JUMP JUMPDEST PUSH2 0x2114 DUP2 PUSH1 0x2 SLOAD PUSH2 0x1F9D JUMP JUMPDEST PUSH1 0x2 SSTORE DUP5 DUP5 MSTORE DUP4 DUP3 MSTORE PUSH1 0x40 DUP5 KECCAK256 DUP2 DUP2 SLOAD ADD SWAP1 SSTORE PUSH1 0x40 MLOAD SWAP1 DUP2 MSTORE LOG3 JUMP JUMPDEST SWAP1 PUSH2 0x2187 SWAP2 PUSH12 0x33B2E3C9FD0803CE8000000 PUSH2 0x214E DUP4 PUSH1 0x2 SLOAD PUSH2 0x1F9D JUMP JUMPDEST GT PUSH2 0x218C JUMPI PUSH2 0x215D DUP3 DUP3 PUSH2 0x20CA JUMP JUMPDEST PUSH1 0x1 DUP1 PUSH1 0xA0 SHL SUB AND PUSH1 0x0 MSTORE PUSH1 0xF PUSH1 0x20 MSTORE PUSH1 0x40 PUSH1 0x0 KECCAK256 PUSH2 0x217D DUP3 DUP3 SLOAD PUSH2 0x1F9D JUMP JUMPDEST SWAP1 SSTORE PUSH1 0x10 SLOAD PUSH2 0x1F9D JUMP JUMPDEST PUSH1 0x10 SSTORE JUMP JUMPDEST PUSH1 0x1 DUP1 PUSH1 0xA0 SHL SUB DUP2 AND PUSH1 0x0 MSTORE PUSH1 0xE PUSH1 0x20 MSTORE PUSH1 0x40 PUSH1 0x0 KECCAK256 PUSH2 0x21AD DUP4 DUP3 SLOAD PUSH2 0x1F9D JUMP JUMPDEST SWAP1 SSTORE PUSH2 0x215D JUMP INVALID LOG2 PUSH5 0x6970667358 0x22 SLT KECCAK256 PUSH31 0xE660AA621D2F59B5474703E3A8E513041ADD9950382BE7502BC10EBF207ED4 PUSH5 0x736F6C6343 STOP ADDMOD EQ STOP CALLER 0x2F DUP8 DUP9 GT PUSH31 0x7EFF1D82E926EC794901D17C78024A50270940304540A733656F0D00000000 "},"methodIdentifiers":{"DEFAULT_ADMIN_ROLE()":"a217fddf","DOMAIN_SEPARATOR()":"3644e515","INITIAL_SUPPLY()":"2ff2e9dc","MAX_SUPPLY()":"32cb6b0c","PAUSER_ROLE()":"e63ab1e9","REWARD_MANAGER_ROLE()":"6d750d80","VERIFIER_ROLE()":"e7705db6","allowance(address,address)":"dd62ed3e","approve(address,uint256)":"095ea7b3","balanceOf(address)":"70a08231","baseStakingRate()":"f417085e","calculateStakingRewards(address,uint256)":"f6c45d02","canClaimMonthlyKYC(address)":"e9c8298b","decimals()":"313ce567","distributeMonthlyKYCReward(address)":"60acf9e4","distributeVerificationReward(address,string)":"b4ed30f5","eip712Domain()":"84b0196e","getRoleAdmin(bytes32)":"248a9ca3","getStakeCount(address)":"cf57ee69","getTotalPendingRewards(address)":"a8c478ba","getTotalStaked(address)":"dd2a8b11","grantRole(bytes32,address)":"2f2ff15d","hasRole(bytes32,address)":"91d14854","lastKYCReward(address)":"4d086228","lifetimeRewards(address)":"1d336d62","mintRewards(address,uint256)":"6a20de92","monthlyKYCReward()":"93b12e54","name()":"06fdde03","nonces(address)":"7ecebe00","pause()":"8456cb59","paused()":"5c975abb","pendingRewards(address)":"31d7a262","permit(address,address,uint256,uint256,uint8,bytes32,bytes32)":"d505accf","renounceRole(bytes32,address)":"36568abe","revokeRole(bytes32,address)":"d547741f","stake(uint256)":"a694fc3a","supportsInterface(bytes4)":"01ffc9a7","symbol()":"95d89b41","totalRewardsDistributed()":"ee172546","totalStaked(address)":"9bfd8d61","totalStakedAmount()":"567e98f9","totalSupply()":"18160ddd","transfer(address,uint256)":"a9059cbb","transferFrom(address,address,uint256)":"23b872dd","unpause()":"3f4ba83a","unstake(uint256)":"2e17de78","updateRewardConfig(uint256,uint256,uint256)":"6f3ba889","userStakes(address,uint256)":"b5d5b5fa","verificationCount(address)":"91bc7d5e","verificationReward()":"082fa374"}},"storageLayout":{"storage":[{"astId":564,"contract":"contracts/SimplePersonaToken.sol:SimplePersonaToken","label":"_balances","offset":0,"slot":"0","type":"t_mapping(t_address,t_uint256)"},{"astId":570,"contract":"contracts/SimplePersonaToken.sol:SimplePersonaToken","label":"_allowances","offset":0,"slot":"1","type":"t_mapping(t_address,t_mapping(t_address,t_uint256))"},{"astId":572,"contract":"contracts/SimplePersonaToken.sol:SimplePersonaToken","label":"_totalSupply","offset":0,"slot":"2","type":"t_uint256"},{"astId":574,"contract":"contracts/SimplePersonaToken.sol:SimplePersonaToken","label":"_name","offset":0,"slot":"3","type":"t_string_storage"},{"astId":576,"contract":"contracts/SimplePersonaToken.sol:SimplePersonaToken","label":"_symbol","offset":0,"slot":"4","type":"t_string_storage"},{"astId":3805,"contract":"contracts/SimplePersonaToken.sol:SimplePersonaToken","label":"_nameFallback","offset":0,"slot":"5","type":"t_string_storage"},{"astId":3807,"contract":"contracts/SimplePersonaToken.sol:SimplePersonaToken","label":"_versionFallback","offset":0,"slot":"6","type":"t_string_storage"},{"astId":1394,"contract":"contracts/SimplePersonaToken.sol:SimplePersonaToken","label":"_nonces","offset":0,"slot":"7","type":"t_mapping(t_address,t_uint256)"},{"astId":1619,"contract":"contracts/SimplePersonaToken.sol:SimplePersonaToken","label":"_status","offset":0,"slot":"8","type":"t_uint256"},{"astId":1509,"contract":"contracts/SimplePersonaToken.sol:SimplePersonaToken","label":"_paused","offset":0,"slot":"9","type":"t_bool"},{"astId":27,"contract":"contracts/SimplePersonaToken.sol:SimplePersonaToken","label":"_roles","offset":0,"slot":"10","type":"t_mapping(t_bytes32,t_struct(RoleData)22_storage)"},{"astId":7868,"contract":"contracts/SimplePersonaToken.sol:SimplePersonaToken","label":"userStakes","offset":0,"slot":"11","type":"t_mapping(t_address,t_array(t_struct(StakeInfo)7848_storage)dyn_storage)"},{"astId":7872,"contract":"contracts/SimplePersonaToken.sol:SimplePersonaToken","label":"totalStaked","offset":0,"slot":"12","type":"t_mapping(t_address,t_uint256)"},{"astId":7874,"contract":"contracts/SimplePersonaToken.sol:SimplePersonaToken","label":"totalStakedAmount","offset":0,"slot":"13","type":"t_uint256"},{"astId":7878,"contract":"contracts/SimplePersonaToken.sol:SimplePersonaToken","label":"pendingRewards","offset":0,"slot":"14","type":"t_mapping(t_address,t_uint256)"},{"astId":7882,"contract":"contracts/SimplePersonaToken.sol:SimplePersonaToken","label":"lifetimeRewards","offset":0,"slot":"15","type":"t_mapping(t_address,t_uint256)"},{"astId":7884,"contract":"contracts/SimplePersonaToken.sol:SimplePersonaToken","label":"totalRewardsDistributed","offset":0,"slot":"16","type":"t_uint256"},{"astId":7887,"contract":"contracts/SimplePersonaToken.sol:SimplePersonaToken","label":"baseStakingRate","offset":0,"slot":"17","type":"t_uint256"},{"astId":7894,"contract":"contracts/SimplePersonaToken.sol:SimplePersonaToken","label":"verificationReward","offset":0,"slot":"18","type":"t_uint256"},{"astId":7901,"contract":"contracts/SimplePersonaToken.sol:SimplePersonaToken","label":"monthlyKYCReward","offset":0,"slot":"19","type":"t_uint256"},{"astId":7905,"contract":"contracts/SimplePersonaToken.sol:SimplePersonaToken","label":"verificationCount","offset":0,"slot":"20","type":"t_mapping(t_address,t_uint256)"},{"astId":7909,"contract":"contracts/SimplePersonaToken.sol:SimplePersonaToken","label":"lastKYCReward","offset":0,"slot":"21","type":"t_mapping(t_address,t_uint256)"}],"types":{"t_address":{"encoding":"inplace","label":"address","numberOfBytes":"20"},"t_array(t_struct(StakeInfo)7848_storage)dyn_storage":{"base":"t_struct(StakeInfo)7848_storage","encoding":"dynamic_array","label":"struct SimplePersonaToken.StakeInfo[]","numberOfBytes":"32"},"t_bool":{"encoding":"inplace","label":"bool","numberOfBytes":"1"},"t_bytes32":{"encoding":"inplace","label":"bytes32","numberOfBytes":"32"},"t_mapping(t_address,t_array(t_struct(StakeInfo)7848_storage)dyn_storage)":{"encoding":"mapping","key":"t_address","label":"mapping(address => struct SimplePersonaToken.StakeInfo[])","numberOfBytes":"32","value":"t_array(t_struct(StakeInfo)7848_storage)dyn_storage"},"t_mapping(t_address,t_bool)":{"encoding":"mapping","key":"t_address","label":"mapping(address => bool)","numberOfBytes":"32","value":"t_bool"},"t_mapping(t_address,t_mapping(t_address,t_uint256))":{"encoding":"mapping","key":"t_address","label":"mapping(address => mapping(address => uint256))","numberOfBytes":"32","value":"t_mapping(t_address,t_uint256)"},"t_mapping(t_address,t_uint256)":{"encoding":"mapping","key":"t_address","label":"mapping(address => uint256)","numberOfBytes":"32","value":"t_uint256"},"t_mapping(t_bytes32,t_struct(RoleData)22_storage)":{"encoding":"mapping","key":"t_bytes32","label":"mapping(bytes32 => struct AccessControl.RoleData)","numberOfBytes":"32","value":"t_struct(RoleData)22_storage"},"t_string_storage":{"encoding":"bytes","label":"string","numberOfBytes":"32"},"t_struct(RoleData)22_storage":{"encoding":"inplace","label":"struct AccessControl.RoleData","members":[{"astId":19,"contract":"contracts/SimplePersonaToken.sol:SimplePersonaToken","label":"hasRole","offset":0,"slot":"0","type":"t_mapping(t_address,t_bool)"},{"astId":21,"contract":"contracts/SimplePersonaToken.sol:SimplePersonaToken","label":"adminRole","offset":0,"slot":"1","type":"t_bytes32"}],"numberOfBytes":"64"},"t_struct(StakeInfo)7848_storage":{"encoding":"inplace","label":"struct SimplePersonaToken.StakeInfo","members":[{"astId":7841,"contract":"contracts/SimplePersonaToken.sol:SimplePersonaToken","label":"amount","offset":0,"slot":"0","type":"t_uint256"},{"astId":7843,"contract":"contracts/SimplePersonaToken.sol:SimplePersonaToken","label":"timestamp","offset":0,"slot":"1","type":"t_uint256"},{"astId":7845,"contract":"contracts/SimplePersonaToken.sol:SimplePersonaToken","label":"rewardRate","offset":0,"slot":"2","type":"t_uint256"},{"astId":7847,"contract":"contracts/SimplePersonaToken.sol:SimplePersonaToken","label":"claimedRewards","offset":0,"slot":"3","type":"t_uint256"}],"numberOfBytes":"128"},"t_uint256":{"encoding":"inplace","label":"uint256","numberOfBytes":"32"}}}}}}