{"contracts/PersonhoodVerifier.sol":{"PersonhoodVerifier":{"abi":[{"anonymous":false,"inputs":[{"indexed":true,"internalType":"bytes32","name":"personhoodHash","type":"bytes32"},{"indexed":true,"internalType":"address","name":"user","type":"address"},{"indexed":false,"internalType":"uint256","name":"timestamp","type":"uint256"}],"name":"PersonhoodVerified","type":"event"},{"inputs":[{"internalType":"address","name":"user","type":"address"}],"name":"getPersonhoodHash","outputs":[{"internalType":"bytes32","name":"","type":"bytes32"}],"stateMutability":"view","type":"function"},{"inputs":[{"internalType":"address","name":"user","type":"address"}],"name":"isPersonVerified","outputs":[{"internalType":"bool","name":"","type":"bool"}],"stateMutability":"view","type":"function"},{"inputs":[{"internalType":"address","name":"","type":"address"}],"name":"userPersonhoods","outputs":[{"internalType":"bytes32","name":"","type":"bytes32"}],"stateMutability":"view","type":"function"},{"inputs":[{"internalType":"bytes32","name":"","type":"bytes32"}],"name":"verifiedPersonhoods","outputs":[{"internalType":"bool","name":"","type":"bool"}],"stateMutability":"view","type":"function"},{"inputs":[{"internalType":"uint256[2]","name":"_pA","type":"uint256[2]"},{"internalType":"uint256[2][2]","name":"_pB","type":"uint256[2][2]"},{"internalType":"uint256[2]","name":"_pC","type":"uint256[2]"},{"internalType":"uint256[1]","name":"_pubSignals","type":"uint256[1]"}],"name":"verifyPersonhood","outputs":[{"internalType":"bool","name":"","type":"bool"}],"stateMutability":"pure","type":"function"}],"evm":{"bytecode":{"linkReferences":{},"object":"6080806040523461001657610316908161001c8239f35b600080fdfe6080604081815260048036101561001557600080fd5b600092833560e01c90816303be621614610281575080632071a71314610248578063695485b3146100d15780636d285006146100965763f23a00d71461005a57600080fd5b3461009257602036600319011261009257356001600160a01b0381169081900361009257828291602094526001845220549051908152f35b8280fd5b503461009257602036600319011261009257356001600160a01b03811690819003610092578282916020945260018452205415159051908152f35b5091346101b1576101203660031901126101b15736602312156101b1576100f66102aa565b6044903682116100925784905b82821061023857505036606312156101c75761011d6102aa565b60c4913683116101db57905b8282106101df5750503660e312156101c7576101436102aa565b610104913683116101db57905b8282106101cb5750503661012312156101c75782516020948582019082821067ffffffffffffffff8311176101b45750845290610124923684116101b1575084915b8382106101a25782855160018152f35b81358152908201908201610192565b80fd5b634e487b7160e01b855260419052602484fd5b5080fd5b8135815260209182019101610150565b8380fd5b36601f830112156101db576101f26102aa565b808684013681116102345791879285949294905b80821061021e57505081529201916020019050610129565b813586526020958601958a955090910190610206565b8680fd5b8135815260209182019101610103565b503461009257602036600319011261009257356001600160a01b0381169081900361009257828291602094526001845220549051908152f35b92919050346101db5760203660031901126101db57358352602083815292205460ff1615158152f35b604051906040820182811067ffffffffffffffff8211176102ca57604052565b634e487b7160e01b600052604160045260246000fdfea2646970667358221220937b715dc8cc17cb2d383f4302067bb2768cbfdc0db2ed3c03800e3de2a9b34564736f6c63430008140033","opcodes":"PUSH1 0x80 DUP1 PUSH1 0x40 MSTORE CALLVALUE PUSH2 0x16 JUMPI PUSH2 0x316 SWAP1 DUP2 PUSH2 0x1C DUP3 CODECOPY RETURN JUMPDEST PUSH1 0x0 DUP1 REVERT INVALID PUSH1 0x80 PUSH1 0x40 DUP2 DUP2 MSTORE PUSH1 0x4 DUP1 CALLDATASIZE LT ISZERO PUSH2 0x15 JUMPI PUSH1 0x0 DUP1 REVERT JUMPDEST PUSH1 0x0 SWAP3 DUP4 CALLDATALOAD PUSH1 0xE0 SHR SWAP1 DUP2 PUSH4 0x3BE6216 EQ PUSH2 0x281 JUMPI POP DUP1 PUSH4 0x2071A713 EQ PUSH2 0x248 JUMPI DUP1 PUSH4 0x695485B3 EQ PUSH2 0xD1 JUMPI DUP1 PUSH4 0x6D285006 EQ PUSH2 0x96 JUMPI PUSH4 0xF23A00D7 EQ PUSH2 0x5A JUMPI PUSH1 0x0 DUP1 REVERT JUMPDEST CALLVALUE PUSH2 0x92 JUMPI PUSH1 0x20 CALLDATASIZE PUSH1 0x3 NOT ADD SLT PUSH2 0x92 JUMPI CALLDATALOAD PUSH1 0x1 PUSH1 0x1 PUSH1 0xA0 SHL SUB DUP2 AND SWAP1 DUP2 SWAP1 SUB PUSH2 0x92 JUMPI DUP3 DUP3 SWAP2 PUSH1 0x20 SWAP5 MSTORE PUSH1 0x1 DUP5 MSTORE KECCAK256 SLOAD SWAP1 MLOAD SWAP1 DUP2 MSTORE RETURN JUMPDEST DUP3 DUP1 REVERT JUMPDEST POP CALLVALUE PUSH2 0x92 JUMPI PUSH1 0x20 CALLDATASIZE PUSH1 0x3 NOT ADD SLT PUSH2 0x92 JUMPI CALLDATALOAD PUSH1 0x1 PUSH1 0x1 PUSH1 0xA0 SHL SUB DUP2 AND SWAP1 DUP2 SWAP1 SUB PUSH2 0x92 JUMPI DUP3 DUP3 SWAP2 PUSH1 0x20 SWAP5 MSTORE PUSH1 0x1 DUP5 MSTORE KECCAK256 SLOAD ISZERO ISZERO SWAP1 MLOAD SWAP1 DUP2 MSTORE RETURN JUMPDEST POP SWAP2 CALLVALUE PUSH2 0x1B1 JUMPI PUSH2 0x120 CALLDATASIZE PUSH1 0x3 NOT ADD SLT PUSH2 0x1B1 JUMPI CALLDATASIZE PUSH1 0x23 SLT ISZERO PUSH2 0x1B1 JUMPI PUSH2 0xF6 PUSH2 0x2AA JUMP JUMPDEST PUSH1 0x44 SWAP1 CALLDATASIZE DUP3 GT PUSH2 0x92 JUMPI DUP5 SWAP1 JUMPDEST DUP3 DUP3 LT PUSH2 0x238 JUMPI POP POP CALLDATASIZE PUSH1 0x63 SLT ISZERO PUSH2 0x1C7 JUMPI PUSH2 0x11D PUSH2 0x2AA JUMP JUMPDEST PUSH1 0xC4 SWAP2 CALLDATASIZE DUP4 GT PUSH2 0x1DB JUMPI SWAP1 JUMPDEST DUP3 DUP3 LT PUSH2 0x1DF JUMPI POP POP CALLDATASIZE PUSH1 0xE3 SLT ISZERO PUSH2 0x1C7 JUMPI PUSH2 0x143 PUSH2 0x2AA JUMP JUMPDEST PUSH2 0x104 SWAP2 CALLDATASIZE DUP4 GT PUSH2 0x1DB JUMPI SWAP1 JUMPDEST DUP3 DUP3 LT PUSH2 0x1CB JUMPI POP POP CALLDATASIZE PUSH2 0x123 SLT ISZERO PUSH2 0x1C7 JUMPI DUP3 MLOAD PUSH1 0x20 SWAP5 DUP6 DUP3 ADD SWAP1 DUP3 DUP3 LT PUSH8 0xFFFFFFFFFFFFFFFF DUP4 GT OR PUSH2 0x1B4 JUMPI POP DUP5 MSTORE SWAP1 PUSH2 0x124 SWAP3 CALLDATASIZE DUP5 GT PUSH2 0x1B1 JUMPI POP DUP5 SWAP2 JUMPDEST DUP4 DUP3 LT PUSH2 0x1A2 JUMPI DUP3 DUP6 MLOAD PUSH1 0x1 DUP2 MSTORE RETURN JUMPDEST DUP2 CALLDATALOAD DUP2 MSTORE SWAP1 DUP3 ADD SWAP1 DUP3 ADD PUSH2 0x192 JUMP JUMPDEST DUP1 REVERT JUMPDEST PUSH4 0x4E487B71 PUSH1 0xE0 SHL DUP6 MSTORE PUSH1 0x41 SWAP1 MSTORE PUSH1 0x24 DUP5 REVERT JUMPDEST POP DUP1 REVERT JUMPDEST DUP2 CALLDATALOAD DUP2 MSTORE PUSH1 0x20 SWAP2 DUP3 ADD SWAP2 ADD PUSH2 0x150 JUMP JUMPDEST DUP4 DUP1 REVERT JUMPDEST CALLDATASIZE PUSH1 0x1F DUP4 ADD SLT ISZERO PUSH2 0x1DB JUMPI PUSH2 0x1F2 PUSH2 0x2AA JUMP JUMPDEST DUP1 DUP7 DUP5 ADD CALLDATASIZE DUP2 GT PUSH2 0x234 JUMPI SWAP2 DUP8 SWAP3 DUP6 SWAP5 SWAP3 SWAP5 SWAP1 JUMPDEST DUP1 DUP3 LT PUSH2 0x21E JUMPI POP POP DUP2 MSTORE SWAP3 ADD SWAP2 PUSH1 0x20 ADD SWAP1 POP PUSH2 0x129 JUMP JUMPDEST DUP2 CALLDATALOAD DUP7 MSTORE PUSH1 0x20 SWAP6 DUP7 ADD SWAP6 DUP11 SWAP6 POP SWAP1 SWAP2 ADD SWAP1 PUSH2 0x206 JUMP JUMPDEST DUP7 DUP1 REVERT JUMPDEST DUP2 CALLDATALOAD DUP2 MSTORE PUSH1 0x20 SWAP2 DUP3 ADD SWAP2 ADD PUSH2 0x103 JUMP JUMPDEST POP CALLVALUE PUSH2 0x92 JUMPI PUSH1 0x20 CALLDATASIZE PUSH1 0x3 NOT ADD SLT PUSH2 0x92 JUMPI CALLDATALOAD PUSH1 0x1 PUSH1 0x1 PUSH1 0xA0 SHL SUB DUP2 AND SWAP1 DUP2 SWAP1 SUB PUSH2 0x92 JUMPI DUP3 DUP3 SWAP2 PUSH1 0x20 SWAP5 MSTORE PUSH1 0x1 DUP5 MSTORE KECCAK256 SLOAD SWAP1 MLOAD SWAP1 DUP2 MSTORE RETURN JUMPDEST SWAP3 SWAP2 SWAP1 POP CALLVALUE PUSH2 0x1DB JUMPI PUSH1 0x20 CALLDATASIZE PUSH1 0x3 NOT ADD SLT PUSH2 0x1DB JUMPI CALLDATALOAD DUP4 MSTORE PUSH1 0x20 DUP4 DUP2 MSTORE SWAP3 KECCAK256 SLOAD PUSH1 0xFF AND ISZERO ISZERO DUP2 MSTORE RETURN JUMPDEST PUSH1 0x40 MLOAD SWAP1 PUSH1 0x40 DUP3 ADD DUP3 DUP2 LT PUSH8 0xFFFFFFFFFFFFFFFF DUP3 GT OR PUSH2 0x2CA JUMPI PUSH1 0x40 MSTORE JUMP JUMPDEST PUSH4 0x4E487B71 PUSH1 0xE0 SHL PUSH1 0x0 MSTORE PUSH1 0x41 PUSH1 0x4 MSTORE PUSH1 0x24 PUSH1 0x0 REVERT INVALID LOG2 PUSH5 0x6970667358 0x22 SLT KECCAK256 SWAP4 PUSH28 0x715DC8CC17CB2D383F4302067BB2768CBFDC0DB2ED3C03800E3DE2A9 0xB3 GASLIMIT PUSH5 0x736F6C6343 STOP ADDMOD EQ STOP CALLER "},"methodIdentifiers":{"getPersonhoodHash(address)":"f23a00d7","isPersonVerified(address)":"6d285006","userPersonhoods(address)":"2071a713","verifiedPersonhoods(bytes32)":"03be6216","verifyPersonhood(uint256[2],uint256[2][2],uint256[2],uint256[1])":"695485b3"}},"storageLayout":{"storage":[{"astId":7708,"contract":"contracts/PersonhoodVerifier.sol:PersonhoodVerifier","label":"verifiedPersonhoods","offset":0,"slot":"0","type":"t_mapping(t_bytes32,t_bool)"},{"astId":7712,"contract":"contracts/PersonhoodVerifier.sol:PersonhoodVerifier","label":"userPersonhoods","offset":0,"slot":"1","type":"t_mapping(t_address,t_bytes32)"}],"types":{"t_address":{"encoding":"inplace","label":"address","numberOfBytes":"20"},"t_bool":{"encoding":"inplace","label":"bool","numberOfBytes":"1"},"t_bytes32":{"encoding":"inplace","label":"bytes32","numberOfBytes":"32"},"t_mapping(t_address,t_bytes32)":{"encoding":"mapping","key":"t_address","label":"mapping(address => bytes32)","numberOfBytes":"32","value":"t_bytes32"},"t_mapping(t_bytes32,t_bool)":{"encoding":"mapping","key":"t_bytes32","label":"mapping(bytes32 => bool)","numberOfBytes":"32","value":"t_bool"}}}}}}