{"contracts/KYCVerifier.sol":{"KYCVerifier":{"abi":[{"anonymous":false,"inputs":[{"indexed":true,"internalType":"bytes32","name":"proofHash","type":"bytes32"},{"indexed":true,"internalType":"address","name":"user","type":"address"},{"indexed":false,"internalType":"uint256","name":"timestamp","type":"uint256"}],"name":"ProofVerified","type":"event"},{"inputs":[{"internalType":"bytes32","name":"proofHash","type":"bytes32"}],"name":"isVerified","outputs":[{"internalType":"bool","name":"","type":"bool"}],"stateMutability":"view","type":"function"},{"inputs":[{"internalType":"bytes32","name":"","type":"bytes32"}],"name":"verifiedProofs","outputs":[{"internalType":"bool","name":"","type":"bool"}],"stateMutability":"view","type":"function"},{"inputs":[{"internalType":"uint256[2]","name":"_pA","type":"uint256[2]"},{"internalType":"uint256[2][2]","name":"_pB","type":"uint256[2][2]"},{"internalType":"uint256[2]","name":"_pC","type":"uint256[2]"},{"internalType":"uint256[1]","name":"_pubSignals","type":"uint256[1]"}],"name":"verifyProof","outputs":[{"internalType":"bool","name":"","type":"bool"}],"stateMutability":"pure","type":"function"}],"evm":{"bytecode":{"linkReferences":{},"object":"608080604052346100165761027c908161001c8239f35b600080fdfe60806040818152600436101561001457600080fd5b600091823560e01c908163176d80c4146101e65750806343753b4d146100725763c181b2731461004357600080fd5b3461006e57602036600319011261006e5760ff81602093600435815280855220541690519015158152f35b5080fd5b503461006e5761012036600319011261006e57366023121561006e57610096610210565b9160449236841161006e576004905b8482106101d65750503660631215610152576100bf610210565b60c49336851161017957905b84821061017d5750503660e31215610152576100e5610210565b6101049336851161017957905b8482106101695750503661012312156101525781519260209384810181811067ffffffffffffffff8211176101555784529061012492368411610152575084915b8382106101435782855160018152f35b81358152908201908201610133565b80fd5b634e487b7160e01b84526041600452602484fd5b81358152602091820191016100f2565b8280fd5b36601f8301121561017957610190610210565b808584013681116101d25791869285949294905b8082106101bc575050815292019160200190506100cb565b81358652602095860195899550909101906101a4565b8580fd5b81358152602091820191016100a5565b91905034610179576020366003190112610179576004358352602083815292205460ff1615158152f35b604051906040820182811067ffffffffffffffff82111761023057604052565b634e487b7160e01b600052604160045260246000fdfea26469706673582212201e8d7747bf3752e1d121566f73317878b88e260440ffd211dc15bc52db88a41564736f6c63430008140033","opcodes":"PUSH1 0x80 DUP1 PUSH1 0x40 MSTORE CALLVALUE PUSH2 0x16 JUMPI PUSH2 0x27C SWAP1 DUP2 PUSH2 0x1C DUP3 CODECOPY RETURN JUMPDEST PUSH1 0x0 DUP1 REVERT INVALID PUSH1 0x80 PUSH1 0x40 DUP2 DUP2 MSTORE PUSH1 0x4 CALLDATASIZE LT ISZERO PUSH2 0x14 JUMPI PUSH1 0x0 DUP1 REVERT JUMPDEST PUSH1 0x0 SWAP2 DUP3 CALLDATALOAD PUSH1 0xE0 SHR SWAP1 DUP2 PUSH4 0x176D80C4 EQ PUSH2 0x1E6 JUMPI POP DUP1 PUSH4 0x43753B4D EQ PUSH2 0x72 JUMPI PUSH4 0xC181B273 EQ PUSH2 0x43 JUMPI PUSH1 0x0 DUP1 REVERT JUMPDEST CALLVALUE PUSH2 0x6E JUMPI PUSH1 0x20 CALLDATASIZE PUSH1 0x3 NOT ADD SLT PUSH2 0x6E JUMPI PUSH1 0xFF DUP2 PUSH1 0x20 SWAP4 PUSH1 0x4 CALLDATALOAD DUP2 MSTORE DUP1 DUP6 MSTORE KECCAK256 SLOAD AND SWAP1 MLOAD SWAP1 ISZERO ISZERO DUP2 MSTORE RETURN JUMPDEST POP DUP1 REVERT JUMPDEST POP CALLVALUE PUSH2 0x6E JUMPI PUSH2 0x120 CALLDATASIZE PUSH1 0x3 NOT ADD SLT PUSH2 0x6E JUMPI CALLDATASIZE PUSH1 0x23 SLT ISZERO PUSH2 0x6E JUMPI PUSH2 0x96 PUSH2 0x210 JUMP JUMPDEST SWAP2 PUSH1 0x44 SWAP3 CALLDATASIZE DUP5 GT PUSH2 0x6E JUMPI PUSH1 0x4 SWAP1 JUMPDEST DUP5 DUP3 LT PUSH2 0x1D6 JUMPI POP POP CALLDATASIZE PUSH1 0x63 SLT ISZERO PUSH2 0x152 JUMPI PUSH2 0xBF PUSH2 0x210 JUMP JUMPDEST PUSH1 0xC4 SWAP4 CALLDATASIZE DUP6 GT PUSH2 0x179 JUMPI SWAP1 JUMPDEST DUP5 DUP3 LT PUSH2 0x17D JUMPI POP POP CALLDATASIZE PUSH1 0xE3 SLT ISZERO PUSH2 0x152 JUMPI PUSH2 0xE5 PUSH2 0x210 JUMP JUMPDEST PUSH2 0x104 SWAP4 CALLDATASIZE DUP6 GT PUSH2 0x179 JUMPI SWAP1 JUMPDEST DUP5 DUP3 LT PUSH2 0x169 JUMPI POP POP CALLDATASIZE PUSH2 0x123 SLT ISZERO PUSH2 0x152 JUMPI DUP2 MLOAD SWAP3 PUSH1 0x20 SWAP4 DUP5 DUP2 ADD DUP2 DUP2 LT PUSH8 0xFFFFFFFFFFFFFFFF DUP3 GT OR PUSH2 0x155 JUMPI DUP5 MSTORE SWAP1 PUSH2 0x124 SWAP3 CALLDATASIZE DUP5 GT PUSH2 0x152 JUMPI POP DUP5 SWAP2 JUMPDEST DUP4 DUP3 LT PUSH2 0x143 JUMPI DUP3 DUP6 MLOAD PUSH1 0x1 DUP2 MSTORE RETURN JUMPDEST DUP2 CALLDATALOAD DUP2 MSTORE SWAP1 DUP3 ADD SWAP1 DUP3 ADD PUSH2 0x133 JUMP JUMPDEST DUP1 REVERT JUMPDEST PUSH4 0x4E487B71 PUSH1 0xE0 SHL DUP5 MSTORE PUSH1 0x41 PUSH1 0x4 MSTORE PUSH1 0x24 DUP5 REVERT JUMPDEST DUP2 CALLDATALOAD DUP2 MSTORE PUSH1 0x20 SWAP2 DUP3 ADD SWAP2 ADD PUSH2 0xF2 JUMP JUMPDEST DUP3 DUP1 REVERT JUMPDEST CALLDATASIZE PUSH1 0x1F DUP4 ADD SLT ISZERO PUSH2 0x179 JUMPI PUSH2 0x190 PUSH2 0x210 JUMP JUMPDEST DUP1 DUP6 DUP5 ADD CALLDATASIZE DUP2 GT PUSH2 0x1D2 JUMPI SWAP2 DUP7 SWAP3 DUP6 SWAP5 SWAP3 SWAP5 SWAP1 JUMPDEST DUP1 DUP3 LT PUSH2 0x1BC JUMPI POP POP DUP2 MSTORE SWAP3 ADD SWAP2 PUSH1 0x20 ADD SWAP1 POP PUSH2 0xCB JUMP JUMPDEST DUP2 CALLDATALOAD DUP7 MSTORE PUSH1 0x20 SWAP6 DUP7 ADD SWAP6 DUP10 SWAP6 POP SWAP1 SWAP2 ADD SWAP1 PUSH2 0x1A4 JUMP JUMPDEST DUP6 DUP1 REVERT JUMPDEST DUP2 CALLDATALOAD DUP2 MSTORE PUSH1 0x20 SWAP2 DUP3 ADD SWAP2 ADD PUSH2 0xA5 JUMP JUMPDEST SWAP2 SWAP1 POP CALLVALUE PUSH2 0x179 JUMPI PUSH1 0x20 CALLDATASIZE PUSH1 0x3 NOT ADD SLT PUSH2 0x179 JUMPI PUSH1 0x4 CALLDATALOAD DUP4 MSTORE PUSH1 0x20 DUP4 DUP2 MSTORE SWAP3 KECCAK256 SLOAD PUSH1 0xFF AND ISZERO ISZERO DUP2 MSTORE RETURN JUMPDEST PUSH1 0x40 MLOAD SWAP1 PUSH1 0x40 DUP3 ADD DUP3 DUP2 LT PUSH8 0xFFFFFFFFFFFFFFFF DUP3 GT OR PUSH2 0x230 JUMPI PUSH1 0x40 MSTORE JUMP JUMPDEST PUSH4 0x4E487B71 PUSH1 0xE0 SHL PUSH1 0x0 MSTORE PUSH1 0x41 PUSH1 0x4 MSTORE PUSH1 0x24 PUSH1 0x0 REVERT INVALID LOG2 PUSH5 0x6970667358 0x22 SLT KECCAK256 0x1E DUP14 PUSH24 0x47BF3752E1D121566F73317878B88E260440FFD211DC15BC MSTORE 0xDB DUP9 LOG4 ISZERO PUSH5 0x736F6C6343 STOP ADDMOD EQ STOP CALLER "},"methodIdentifiers":{"isVerified(bytes32)":"c181b273","verifiedProofs(bytes32)":"176d80c4","verifyProof(uint256[2],uint256[2][2],uint256[2],uint256[1])":"43753b4d"}},"storageLayout":{"storage":[{"astId":7654,"contract":"contracts/KYCVerifier.sol:KYCVerifier","label":"verifiedProofs","offset":0,"slot":"0","type":"t_mapping(t_bytes32,t_bool)"}],"types":{"t_bool":{"encoding":"inplace","label":"bool","numberOfBytes":"1"},"t_bytes32":{"encoding":"inplace","label":"bytes32","numberOfBytes":"32"},"t_mapping(t_bytes32,t_bool)":{"encoding":"mapping","key":"t_bytes32","label":"mapping(bytes32 => bool)","numberOfBytes":"32","value":"t_bool"}}}}}}